{
  "_format": "hh-sol-artifact-1",
  "contractName": "PoolManager",
  "sourceName": "contracts/PoolManager.sol",
  "abi": [
    {
      "inputs": [
        {
          "internalType": "address",
          "name": "_token",
          "type": "address"
        }
      ],
      "stateMutability": "nonpayable",
      "type": "constructor"
    },
    {
      "inputs": [],
      "name": "AccessControlBadConfirmation",
      "type": "error"
    },
    {
      "inputs": [
        {
          "internalType": "address",
          "name": "account",
          "type": "address"
        },
        {
          "internalType": "bytes32",
          "name": "neededRole",
          "type": "bytes32"
        }
      ],
      "name": "AccessControlUnauthorizedAccount",
      "type": "error"
    },
    {
      "inputs": [],
      "name": "ReentrancyGuardReentrantCall",
      "type": "error"
    },
    {
      "inputs": [
        {
          "internalType": "address",
          "name": "token",
          "type": "address"
        }
      ],
      "name": "SafeERC20FailedOperation",
      "type": "error"
    },
    {
      "anonymous": false,
      "inputs": [
        {
          "indexed": true,
          "internalType": "address",
          "name": "admin",
          "type": "address"
        }
      ],
      "name": "AdminAdded",
      "type": "event"
    },
    {
      "anonymous": false,
      "inputs": [
        {
          "indexed": true,
          "internalType": "address",
          "name": "admin",
          "type": "address"
        }
      ],
      "name": "AdminRemoved",
      "type": "event"
    },
    {
      "anonymous": false,
      "inputs": [
        {
          "indexed": true,
          "internalType": "address",
          "name": "donor",
          "type": "address"
        },
        {
          "indexed": false,
          "internalType": "uint256",
          "name": "amount",
          "type": "uint256"
        },
        {
          "indexed": false,
          "internalType": "uint256",
          "name": "timestamp",
          "type": "uint256"
        },
        {
          "indexed": false,
          "internalType": "bool",
          "name": "isDirect",
          "type": "bool"
        },
        {
          "indexed": false,
          "internalType": "uint256",
          "name": "donationId",
          "type": "uint256"
        }
      ],
      "name": "DonationReceived",
      "type": "event"
    },
    {
      "anonymous": false,
      "inputs": [
        {
          "indexed": true,
          "internalType": "address",
          "name": "distributor",
          "type": "address"
        },
        {
          "indexed": false,
          "internalType": "uint256",
          "name": "totalAmount",
          "type": "uint256"
        },
        {
          "indexed": false,
          "internalType": "uint256",
          "name": "recipientCount",
          "type": "uint256"
        },
        {
          "indexed": false,
          "internalType": "uint256",
          "name": "timestamp",
          "type": "uint256"
        },
        {
          "indexed": false,
          "internalType": "uint256",
          "name": "distributionId",
          "type": "uint256"
        }
      ],
      "name": "FundsDistributed",
      "type": "event"
    },
    {
      "anonymous": false,
      "inputs": [
        {
          "indexed": true,
          "internalType": "address",
          "name": "previousOwner",
          "type": "address"
        },
        {
          "indexed": true,
          "internalType": "address",
          "name": "newOwner",
          "type": "address"
        }
      ],
      "name": "OwnershipTransferred",
      "type": "event"
    },
    {
      "anonymous": false,
      "inputs": [
        {
          "indexed": true,
          "internalType": "bytes32",
          "name": "role",
          "type": "bytes32"
        },
        {
          "indexed": true,
          "internalType": "bytes32",
          "name": "previousAdminRole",
          "type": "bytes32"
        },
        {
          "indexed": true,
          "internalType": "bytes32",
          "name": "newAdminRole",
          "type": "bytes32"
        }
      ],
      "name": "RoleAdminChanged",
      "type": "event"
    },
    {
      "anonymous": false,
      "inputs": [
        {
          "indexed": true,
          "internalType": "bytes32",
          "name": "role",
          "type": "bytes32"
        },
        {
          "indexed": true,
          "internalType": "address",
          "name": "account",
          "type": "address"
        },
        {
          "indexed": true,
          "internalType": "address",
          "name": "sender",
          "type": "address"
        }
      ],
      "name": "RoleGranted",
      "type": "event"
    },
    {
      "anonymous": false,
      "inputs": [
        {
          "indexed": true,
          "internalType": "bytes32",
          "name": "role",
          "type": "bytes32"
        },
        {
          "indexed": true,
          "internalType": "address",
          "name": "account",
          "type": "address"
        },
        {
          "indexed": true,
          "internalType": "address",
          "name": "sender",
          "type": "address"
        }
      ],
      "name": "RoleRevoked",
      "type": "event"
    },
    {
      "inputs": [],
      "name": "ADMIN_ROLE",
      "outputs": [
        {
          "internalType": "bytes32",
          "name": "",
          "type": "bytes32"
        }
      ],
      "stateMutability": "view",
      "type": "function"
    },
    {
      "inputs": [],
      "name": "DEFAULT_ADMIN_ROLE",
      "outputs": [
        {
          "internalType": "bytes32",
          "name": "",
          "type": "bytes32"
        }
      ],
      "stateMutability": "view",
      "type": "function"
    },
    {
      "inputs": [
        {
          "internalType": "address",
          "name": "admin",
          "type": "address"
        }
      ],
      "name": "addAdmin",
      "outputs": [],
      "stateMutability": "nonpayable",
      "type": "function"
    },
    {
      "inputs": [],
      "name": "contractOwner",
      "outputs": [
        {
          "internalType": "address",
          "name": "",
          "type": "address"
        }
      ],
      "stateMutability": "view",
      "type": "function"
    },
    {
      "inputs": [],
      "name": "currentBalance",
      "outputs": [
        {
          "internalType": "uint256",
          "name": "",
          "type": "uint256"
        }
      ],
      "stateMutability": "view",
      "type": "function"
    },
    {
      "inputs": [
        {
          "internalType": "address[]",
          "name": "recipients",
          "type": "address[]"
        },
        {
          "internalType": "uint256[]",
          "name": "amounts",
          "type": "uint256[]"
        }
      ],
      "name": "distributeFunds",
      "outputs": [],
      "stateMutability": "nonpayable",
      "type": "function"
    },
    {
      "inputs": [
        {
          "internalType": "uint256",
          "name": "",
          "type": "uint256"
        }
      ],
      "name": "distributions",
      "outputs": [
        {
          "internalType": "uint256",
          "name": "timestamp",
          "type": "uint256"
        },
        {
          "internalType": "address",
          "name": "distributor",
          "type": "address"
        },
        {
          "internalType": "uint256",
          "name": "totalAmount",
          "type": "uint256"
        }
      ],
      "stateMutability": "view",
      "type": "function"
    },
    {
      "inputs": [
        {
          "internalType": "uint256",
          "name": "amount",
          "type": "uint256"
        }
      ],
      "name": "donate",
      "outputs": [],
      "stateMutability": "nonpayable",
      "type": "function"
    },
    {
      "inputs": [
        {
          "internalType": "address",
          "name": "",
          "type": "address"
        },
        {
          "internalType": "uint256",
          "name": "",
          "type": "uint256"
        }
      ],
      "name": "donationIdsByAddress",
      "outputs": [
        {
          "internalType": "uint256",
          "name": "",
          "type": "uint256"
        }
      ],
      "stateMutability": "view",
      "type": "function"
    },
    {
      "inputs": [
        {
          "internalType": "uint256",
          "name": "",
          "type": "uint256"
        }
      ],
      "name": "donations",
      "outputs": [
        {
          "internalType": "address",
          "name": "donor",
          "type": "address"
        },
        {
          "internalType": "uint256",
          "name": "amount",
          "type": "uint256"
        },
        {
          "internalType": "uint256",
          "name": "timestamp",
          "type": "uint256"
        },
        {
          "internalType": "bool",
          "name": "isDirect",
          "type": "bool"
        }
      ],
      "stateMutability": "view",
      "type": "function"
    },
    {
      "inputs": [],
      "name": "getContractStats",
      "outputs": [
        {
          "internalType": "uint256",
          "name": "_totalDonated",
          "type": "uint256"
        },
        {
          "internalType": "uint256",
          "name": "_totalDistributed",
          "type": "uint256"
        },
        {
          "internalType": "uint256",
          "name": "_currentBalance",
          "type": "uint256"
        },
        {
          "internalType": "uint256",
          "name": "_totalDonations",
          "type": "uint256"
        },
        {
          "internalType": "uint256",
          "name": "_totalDistributions",
          "type": "uint256"
        }
      ],
      "stateMutability": "view",
      "type": "function"
    },
    {
      "inputs": [
        {
          "internalType": "uint256",
          "name": "distributionId",
          "type": "uint256"
        }
      ],
      "name": "getDistribution",
      "outputs": [
        {
          "internalType": "address[]",
          "name": "recipients",
          "type": "address[]"
        },
        {
          "internalType": "uint256[]",
          "name": "amounts",
          "type": "uint256[]"
        },
        {
          "internalType": "uint256",
          "name": "timestamp",
          "type": "uint256"
        },
        {
          "internalType": "address",
          "name": "distributor",
          "type": "address"
        },
        {
          "internalType": "uint256",
          "name": "totalAmount",
          "type": "uint256"
        }
      ],
      "stateMutability": "view",
      "type": "function"
    },
    {
      "inputs": [
        {
          "internalType": "uint256",
          "name": "donationId",
          "type": "uint256"
        }
      ],
      "name": "getDonation",
      "outputs": [
        {
          "internalType": "address",
          "name": "donor",
          "type": "address"
        },
        {
          "internalType": "uint256",
          "name": "amount",
          "type": "uint256"
        },
        {
          "internalType": "uint256",
          "name": "timestamp",
          "type": "uint256"
        },
        {
          "internalType": "bool",
          "name": "isDirect",
          "type": "bool"
        }
      ],
      "stateMutability": "view",
      "type": "function"
    },
    {
      "inputs": [
        {
          "internalType": "address",
          "name": "donor",
          "type": "address"
        }
      ],
      "name": "getDonationIdsByAddress",
      "outputs": [
        {
          "internalType": "uint256[]",
          "name": "",
          "type": "uint256[]"
        }
      ],
      "stateMutability": "view",
      "type": "function"
    },
    {
      "inputs": [
        {
          "internalType": "bytes32",
          "name": "role",
          "type": "bytes32"
        }
      ],
      "name": "getRoleAdmin",
      "outputs": [
        {
          "internalType": "bytes32",
          "name": "",
          "type": "bytes32"
        }
      ],
      "stateMutability": "view",
      "type": "function"
    },
    {
      "inputs": [],
      "name": "getTotalDistributions",
      "outputs": [
        {
          "internalType": "uint256",
          "name": "",
          "type": "uint256"
        }
      ],
      "stateMutability": "view",
      "type": "function"
    },
    {
      "inputs": [],
      "name": "getTotalDonations",
      "outputs": [
        {
          "internalType": "uint256",
          "name": "",
          "type": "uint256"
        }
      ],
      "stateMutability": "view",
      "type": "function"
    },
    {
      "inputs": [
        {
          "internalType": "bytes32",
          "name": "role",
          "type": "bytes32"
        },
        {
          "internalType": "address",
          "name": "account",
          "type": "address"
        }
      ],
      "name": "grantRole",
      "outputs": [],
      "stateMutability": "nonpayable",
      "type": "function"
    },
    {
      "inputs": [],
      "name": "handleDirectTransfer",
      "outputs": [],
      "stateMutability": "nonpayable",
      "type": "function"
    },
    {
      "inputs": [
        {
          "internalType": "bytes32",
          "name": "role",
          "type": "bytes32"
        },
        {
          "internalType": "address",
          "name": "account",
          "type": "address"
        }
      ],
      "name": "hasRole",
      "outputs": [
        {
          "internalType": "bool",
          "name": "",
          "type": "bool"
        }
      ],
      "stateMutability": "view",
      "type": "function"
    },
    {
      "inputs": [
        {
          "internalType": "address",
          "name": "account",
          "type": "address"
        }
      ],
      "name": "isAdmin",
      "outputs": [
        {
          "internalType": "bool",
          "name": "",
          "type": "bool"
        }
      ],
      "stateMutability": "view",
      "type": "function"
    },
    {
      "inputs": [
        {
          "internalType": "address",
          "name": "account",
          "type": "address"
        }
      ],
      "name": "isOwner",
      "outputs": [
        {
          "internalType": "bool",
          "name": "",
          "type": "bool"
        }
      ],
      "stateMutability": "view",
      "type": "function"
    },
    {
      "inputs": [],
      "name": "owner",
      "outputs": [
        {
          "internalType": "address",
          "name": "",
          "type": "address"
        }
      ],
      "stateMutability": "view",
      "type": "function"
    },
    {
      "inputs": [
        {
          "internalType": "address",
          "name": "admin",
          "type": "address"
        }
      ],
      "name": "removeAdmin",
      "outputs": [],
      "stateMutability": "nonpayable",
      "type": "function"
    },
    {
      "inputs": [
        {
          "internalType": "bytes32",
          "name": "role",
          "type": "bytes32"
        },
        {
          "internalType": "address",
          "name": "callerConfirmation",
          "type": "address"
        }
      ],
      "name": "renounceRole",
      "outputs": [],
      "stateMutability": "nonpayable",
      "type": "function"
    },
    {
      "inputs": [
        {
          "internalType": "bytes32",
          "name": "role",
          "type": "bytes32"
        },
        {
          "internalType": "address",
          "name": "account",
          "type": "address"
        }
      ],
      "name": "revokeRole",
      "outputs": [],
      "stateMutability": "nonpayable",
      "type": "function"
    },
    {
      "inputs": [
        {
          "internalType": "bytes4",
          "name": "interfaceId",
          "type": "bytes4"
        }
      ],
      "name": "supportsInterface",
      "outputs": [
        {
          "internalType": "bool",
          "name": "",
          "type": "bool"
        }
      ],
      "stateMutability": "view",
      "type": "function"
    },
    {
      "inputs": [],
      "name": "syncBalance",
      "outputs": [],
      "stateMutability": "nonpayable",
      "type": "function"
    },
    {
      "inputs": [],
      "name": "token",
      "outputs": [
        {
          "internalType": "contract IERC20",
          "name": "",
          "type": "address"
        }
      ],
      "stateMutability": "view",
      "type": "function"
    },
    {
      "inputs": [],
      "name": "totalDistributed",
      "outputs": [
        {
          "internalType": "uint256",
          "name": "",
          "type": "uint256"
        }
      ],
      "stateMutability": "view",
      "type": "function"
    },
    {
      "inputs": [],
      "name": "totalDonated",
      "outputs": [
        {
          "internalType": "uint256",
          "name": "",
          "type": "uint256"
        }
      ],
      "stateMutability": "view",
      "type": "function"
    },
    {
      "inputs": [
        {
          "internalType": "address",
          "name": "",
          "type": "address"
        }
      ],
      "name": "totalDonatedByAddress",
      "outputs": [
        {
          "internalType": "uint256",
          "name": "",
          "type": "uint256"
        }
      ],
      "stateMutability": "view",
      "type": "function"
    },
    {
      "inputs": [
        {
          "internalType": "address",
          "name": "newOwner",
          "type": "address"
        }
      ],
      "name": "transferOwnership",
      "outputs": [],
      "stateMutability": "nonpayable",
      "type": "function"
    }
  ],
  "bytecode": "0x60a060405234801561001057600080fd5b50604051613a46380380613a468339818101604052810190610032919061030b565b6001600081905550600073ffffffffffffffffffffffffffffffffffffffff168173ffffffffffffffffffffffffffffffffffffffff16036100a9576040517f08c379a00000000000000000000000000000000000000000000000000000000081526004016100a090610395565b60405180910390fd5b8073ffffffffffffffffffffffffffffffffffffffff1660808173ffffffffffffffffffffffffffffffffffffffff168152505033600260006101000a81548173ffffffffffffffffffffffffffffffffffffffff021916908373ffffffffffffffffffffffffffffffffffffffff1602179055506101316000801b3361013860201b60201c565b50506103b5565b600061014a838361023560201b60201c565b61022a57600180600085815260200190815260200160002060000160008473ffffffffffffffffffffffffffffffffffffffff1673ffffffffffffffffffffffffffffffffffffffff16815260200190815260200160002060006101000a81548160ff0219169083151502179055506101c76102a060201b60201c565b73ffffffffffffffffffffffffffffffffffffffff168273ffffffffffffffffffffffffffffffffffffffff16847f2f8788117e7eff1d82e926ec794901d17c78024a50270940304540a733656f0d60405160405180910390a46001905061022f565b600090505b92915050565b60006001600084815260200190815260200160002060000160008373ffffffffffffffffffffffffffffffffffffffff1673ffffffffffffffffffffffffffffffffffffffff16815260200190815260200160002060009054906101000a900460ff16905092915050565b600033905090565b600080fd5b600073ffffffffffffffffffffffffffffffffffffffff82169050919050565b60006102d8826102ad565b9050919050565b6102e8816102cd565b81146102f357600080fd5b50565b600081519050610305816102df565b92915050565b600060208284031215610321576103206102a8565b5b600061032f848285016102f6565b91505092915050565b600082825260208201905092915050565b7f546f6b656e20616464726573732063616e6e6f74206265207a65726f00000000600082015250565b600061037f601c83610338565b915061038a82610349565b602082019050919050565b600060208201905081810360008301526103ae81610372565b9050919050565b60805161364c6103fa60003960008181610f0201528181611318015281816116dd0152818161177f015281816117c801528181611b270152611b99015261364c6000f3fe608060405234801561001057600080fd5b50600436106101fa5760003560e01c806375b238fc1161011a578063d547741f116100ad578063f14faf6f1161007c578063f14faf6f146105fa578063f2fde38b14610616578063f8626af814610632578063fc0c546a14610665578063fd9c652b14610683576101fa565b8063d547741f1461056b578063dfe6b5d614610587578063ef07a81f146105a9578063efca2eed146105dc576101fa565b8063a217fddf116100e9578063a217fddf146104e1578063c68ac852146104ff578063ce606ee01461052f578063ce845d1d1461054d576101fa565b806375b238fc14610457578063777c658f146104755780638da5cb5b1461049357806391d14854146104b1576101fa565b80632f54bf6e116101925780635e6d4a64116101615780635e6d4a64146103f75780636bd59ec0146104155780637048027514610431578063732d432c1461044d576101fa565b80632f54bf6e1461034557806336568abe146103755780633b345a87146103915780634487d3df146103c5576101fa565b8063248a9ca3116101ce578063248a9ca31461029957806324d7806c146102c95780632cda0460146102f95780632f2ff15d14610329576101fa565b8062b37044146101ff57806301ffc9a71461021d578063034411d71461024d5780631785f53c1461027d575b600080fd5b61020761068d565b60405161021491906124a7565b60405180910390f35b61023760048036038101906102329190612524565b610693565b604051610244919061256c565b60405180910390f35b610267600480360381019061026291906125e5565b61070d565b60405161027491906124a7565b60405180910390f35b610297600480360381019061029291906125e5565b610725565b005b6102b360048036038101906102ae9190612648565b61084b565b6040516102c09190612684565b60405180910390f35b6102e360048036038101906102de91906125e5565b61086b565b6040516102f0919061256c565b60405180910390f35b610313600480360381019061030e91906126cb565b61089e565b60405161032091906124a7565b60405180910390f35b610343600480360381019061033e919061270b565b6108cf565b005b61035f600480360381019061035a91906125e5565b6108f1565b60405161036c919061256c565b60405180910390f35b61038f600480360381019061038a919061270b565b610907565b005b6103ab60048036038101906103a6919061274b565b610982565b6040516103bc959493929190612903565b60405180910390f35b6103df60048036038101906103da919061274b565b610b1c565b6040516103ee93929190612964565b60405180910390f35b6103ff610b76565b60405161040c91906124a7565b60405180910390f35b61042f600480360381019061042a9190612a56565b610bd8565b005b61044b600480360381019061044691906125e5565b61117e565b005b610455611314565b005b61045f6113e0565b60405161046c9190612684565b60405180910390f35b61047d611404565b60405161048a91906124a7565b60405180910390f35b61049b61140e565b6040516104a89190612ad7565b60405180910390f35b6104cb60048036038101906104c6919061270b565b611438565b6040516104d8919061256c565b60405180910390f35b6104e96114a3565b6040516104f69190612684565b60405180910390f35b610519600480360381019061051491906125e5565b6114aa565b6040516105269190612af2565b60405180910390f35b610537611541565b6040516105449190612ad7565b60405180910390f35b610555611567565b60405161056291906124a7565b60405180910390f35b6105856004803603810190610580919061270b565b61156d565b005b61058f61158f565b6040516105a0959493929190612b14565b60405180910390f35b6105c360048036038101906105be919061274b565b6115c4565b6040516105d39493929190612b67565b60405180910390f35b6105e4611688565b6040516105f191906124a7565b60405180910390f35b610614600480360381019061060f919061274b565b61168e565b005b610630600480360381019061062b91906125e5565b6118cf565b005b61064c6004803603810190610647919061274b565b611ab8565b60405161065c9493929190612b67565b60405180910390f35b61066d611b25565b60405161067a9190612c0b565b60405180910390f35b61068b611b49565b005b60075481565b60007f7965db0b000000000000000000000000000000000000000000000000000000007bffffffffffffffffffffffffffffffffffffffffffffffffffffffff1916827bffffffffffffffffffffffffffffffffffffffffffffffffffffffff19161480610706575061070582611c78565b5b9050919050565b60056020528060005260406000206000915090505481565b6107326000801b33611438565b610771576040517f08c379a000000000000000000000000000000000000000000000000000000000815260040161076890612ca9565b60405180910390fd5b61079b7fa49807205ce4d355092ef5a8a18f56e8913cf4a201fbe287825b095693c2177582611438565b6107da576040517f08c379a00000000000000000000000000000000000000000000000000000000081526004016107d190612d15565b60405180910390fd5b6108047fa49807205ce4d355092ef5a8a18f56e8913cf4a201fbe287825b095693c2177582611ce2565b508073ffffffffffffffffffffffffffffffffffffffff167fa3b62bc36326052d97ea62d63c3d60308ed4c3ea8ac079dd8499f1e9c4f80c0f60405160405180910390a250565b600060016000838152602001908152602001600020600101549050919050565b60006108977fa49807205ce4d355092ef5a8a18f56e8913cf4a201fbe287825b095693c2177583611438565b9050919050565b600660205281600052604060002081815481106108ba57600080fd5b90600052602060002001600091509150505481565b6108d88261084b565b6108e181611dd5565b6108eb8383611de9565b50505050565b60006109006000801b83611438565b9050919050565b61090f611eda565b73ffffffffffffffffffffffffffffffffffffffff168173ffffffffffffffffffffffffffffffffffffffff1614610973576040517f6697b23200000000000000000000000000000000000000000000000000000000815260040160405180910390fd5b61097d8282611ce2565b505050565b606080600080600060048054905086106109d1576040517f08c379a00000000000000000000000000000000000000000000000000000000081526004016109c890612d81565b60405180910390fd5b6000600487815481106109e7576109e6612da1565b5b90600052602060002090600502019050806000018160010182600201548360030160009054906101000a900473ffffffffffffffffffffffffffffffffffffffff16846004015484805480602002602001604051908101604052809291908181526020018280548015610aaf57602002820191906000526020600020905b8160009054906101000a900473ffffffffffffffffffffffffffffffffffffffff1673ffffffffffffffffffffffffffffffffffffffff1681526020019060010190808311610a65575b5050505050945083805480602002602001604051908101604052809291908181526020018280548015610b0157602002820191906000526020600020905b815481526020019060010190808311610aed575b50505050509350955095509550955095505091939590929450565b60048181548110610b2c57600080fd5b90600052602060002090600502016000915090508060020154908060030160009054906101000a900473ffffffffffffffffffffffffffffffffffffffff16908060040154905083565b6000806000905060005b600480549050811015610bd05760048181548110610ba157610ba0612da1565b5b90600052602060002090600502016000018054905082610bc19190612dff565b91508080600101915050610b80565b508091505090565b610be56000801b33611438565b80610c165750610c157fa49807205ce4d355092ef5a8a18f56e8913cf4a201fbe287825b095693c2177533611438565b5b610c55576040517f08c379a0000000000000000000000000000000000000000000000000000000008152600401610c4c90612ea5565b60405180910390fd5b610c5d611ee2565b60008484905011610ca3576040517f08c379a0000000000000000000000000000000000000000000000000000000008152600401610c9a90612f11565b60405180910390fd5b818190508484905014610ceb576040517f08c379a0000000000000000000000000000000000000000000000000000000008152600401610ce290612f7d565b60405180910390fd5b6064848490501115610d32576040517f08c379a0000000000000000000000000000000000000000000000000000000008152600401610d2990612fe9565b60405180910390fd5b6000805b83839050811015610e67576000848483818110610d5657610d55612da1565b5b9050602002013511610d9d576040517f08c379a0000000000000000000000000000000000000000000000000000000008152600401610d9490613055565b60405180910390fd5b600073ffffffffffffffffffffffffffffffffffffffff16868683818110610dc857610dc7612da1565b5b9050602002016020810190610ddd91906125e5565b73ffffffffffffffffffffffffffffffffffffffff1603610e33576040517f08c379a0000000000000000000000000000000000000000000000000000000008152600401610e2a906130c1565b60405180910390fd5b838382818110610e4657610e45612da1565b5b9050602002013582610e589190612dff565b91508080600101915050610d36565b50600954811115610ead576040517f08c379a0000000000000000000000000000000000000000000000000000000008152600401610ea49061312d565b60405180910390fd5b60005b85859050811015610f5357610f46868683818110610ed157610ed0612da1565b5b9050602002016020810190610ee691906125e5565b858584818110610ef957610ef8612da1565b5b905060200201357f000000000000000000000000000000000000000000000000000000000000000073ffffffffffffffffffffffffffffffffffffffff16611f289092919063ffffffff16565b8080600101915050610eb0565b508060086000828254610f669190612dff565b925050819055508060096000828254610f7f919061314d565b9250508190555060046040518060a00160405280878780806020026020016040519081016040528093929190818152602001838360200280828437600081840152601f19601f820116905080830192505050505050508152602001858580806020026020016040519081016040528093929190818152602001838360200280828437600081840152601f19601f8201169050808301925050505050505081526020014281526020013373ffffffffffffffffffffffffffffffffffffffff168152602001838152509080600181540180825580915050600190039060005260206000209060050201600090919091909150600082015181600001908051906020019061108c92919061239a565b5060208201518160010190805190602001906110a9929190612424565b506040820151816002015560608201518160030160006101000a81548173ffffffffffffffffffffffffffffffffffffffff021916908373ffffffffffffffffffffffffffffffffffffffff1602179055506080820151816004015550503373ffffffffffffffffffffffffffffffffffffffff167f2bd565fffd3136f51e857a386c0502ff823d41b58259913079b1754154dbd34c8287879050426001600480549050611157919061314d565b6040516111679493929190613181565b60405180910390a250611178611fa7565b50505050565b61118b6000801b33611438565b6111ca576040517f08c379a00000000000000000000000000000000000000000000000000000000081526004016111c190612ca9565b60405180910390fd5b600073ffffffffffffffffffffffffffffffffffffffff168173ffffffffffffffffffffffffffffffffffffffff1603611239576040517f08c379a000000000000000000000000000000000000000000000000000000000815260040161123090613212565b60405180910390fd5b6112637fa49807205ce4d355092ef5a8a18f56e8913cf4a201fbe287825b095693c2177582611438565b156112a3576040517f08c379a000000000000000000000000000000000000000000000000000000000815260040161129a9061327e565b60405180910390fd5b6112cd7fa49807205ce4d355092ef5a8a18f56e8913cf4a201fbe287825b095693c2177582611de9565b508073ffffffffffffffffffffffffffffffffffffffff167f44d6d25963f097ad14f29f06854a01f575648a1ef82f30e562ccd3889717e33960405160405180910390a250565b60007f000000000000000000000000000000000000000000000000000000000000000073ffffffffffffffffffffffffffffffffffffffff166370a08231306040518263ffffffff1660e01b815260040161136f9190612ad7565b602060405180830381865afa15801561138c573d6000803e3d6000fd5b505050506040513d601f19601f820116820180604052508101906113b091906132b3565b90506009548111156113dd576000600954826113cc919061314d565b90506113db6000826001611fb1565b505b50565b7fa49807205ce4d355092ef5a8a18f56e8913cf4a201fbe287825b095693c2177581565b6000600754905090565b6000600260009054906101000a900473ffffffffffffffffffffffffffffffffffffffff16905090565b60006001600084815260200190815260200160002060000160008373ffffffffffffffffffffffffffffffffffffffff1673ffffffffffffffffffffffffffffffffffffffff16815260200190815260200160002060009054906101000a900460ff16905092915050565b6000801b81565b6060600660008373ffffffffffffffffffffffffffffffffffffffff1673ffffffffffffffffffffffffffffffffffffffff16815260200190815260200160002080548060200260200160405190810160405280929190818152602001828054801561153557602002820191906000526020600020905b815481526020019060010190808311611521575b50505050509050919050565b600260009054906101000a900473ffffffffffffffffffffffffffffffffffffffff1681565b60095481565b6115768261084b565b61157f81611dd5565b6115898383611ce2565b50505050565b6000806000806000806115a0610b76565b90506007546008546009546003805490508495509550955095509550509091929394565b6000806000806003805490508510611611576040517f08c379a00000000000000000000000000000000000000000000000000000000081526004016116089061332c565b60405180910390fd5b60006003868154811061162757611626612da1565b5b906000526020600020906004020190508060000160009054906101000a900473ffffffffffffffffffffffffffffffffffffffff16816001015482600201548360030160009054906101000a900460ff169450945094509450509193509193565b60085481565b611696611ee2565b600081116116d9576040517f08c379a00000000000000000000000000000000000000000000000000000000081526004016116d0906133be565b60405180910390fd5b60007f000000000000000000000000000000000000000000000000000000000000000073ffffffffffffffffffffffffffffffffffffffff166370a08231306040518263ffffffff1660e01b81526004016117349190612ad7565b602060405180830381865afa158015611751573d6000803e3d6000fd5b505050506040513d601f19601f8201168201806040525081019061177591906132b3565b90506117c43330847f000000000000000000000000000000000000000000000000000000000000000073ffffffffffffffffffffffffffffffffffffffff16612225909392919063ffffffff16565b60007f000000000000000000000000000000000000000000000000000000000000000073ffffffffffffffffffffffffffffffffffffffff166370a08231306040518263ffffffff1660e01b815260040161181f9190612ad7565b602060405180830381865afa15801561183c573d6000803e3d6000fd5b505050506040513d601f19601f8201168201806040525081019061186091906132b3565b905060008282611870919061314d565b9050600081116118b5576040517f08c379a00000000000000000000000000000000000000000000000000000000081526004016118ac9061342a565b60405180910390fd5b6118c133826000611fb1565b5050506118cc611fa7565b50565b6118dc6000801b33611438565b61191b576040517f08c379a000000000000000000000000000000000000000000000000000000000815260040161191290612ca9565b60405180910390fd5b600073ffffffffffffffffffffffffffffffffffffffff168173ffffffffffffffffffffffffffffffffffffffff160361198a576040517f08c379a000000000000000000000000000000000000000000000000000000000815260040161198190613496565b60405180910390fd5b3373ffffffffffffffffffffffffffffffffffffffff168173ffffffffffffffffffffffffffffffffffffffff16036119f8576040517f08c379a00000000000000000000000000000000000000000000000000000000081526004016119ef90613528565b60405180910390fd5b6000339050611a0a6000801b82611ce2565b50611a186000801b83611de9565b5081600260006101000a81548173ffffffffffffffffffffffffffffffffffffffff021916908373ffffffffffffffffffffffffffffffffffffffff1602179055508173ffffffffffffffffffffffffffffffffffffffff168173ffffffffffffffffffffffffffffffffffffffff167f8be0079c531659141344cd1fd0a4f28419497f9722a3daafe3b4186f6b6457e060405160405180910390a35050565b60038181548110611ac857600080fd5b90600052602060002090600402016000915090508060000160009054906101000a900473ffffffffffffffffffffffffffffffffffffffff16908060010154908060020154908060030160009054906101000a900460ff16905084565b7f000000000000000000000000000000000000000000000000000000000000000081565b611b566000801b33611438565b611b95576040517f08c379a0000000000000000000000000000000000000000000000000000000008152600401611b8c90612ca9565b60405180910390fd5b60007f000000000000000000000000000000000000000000000000000000000000000073ffffffffffffffffffffffffffffffffffffffff166370a08231306040518263ffffffff1660e01b8152600401611bf09190612ad7565b602060405180830381865afa158015611c0d573d6000803e3d6000fd5b505050506040513d601f19601f82011682018060405250810190611c3191906132b3565b9050600954811115611c6257600060095482611c4d919061314d565b9050611c5c6000826001611fb1565b50611c75565b600954811015611c7457806009819055505b5b50565b60007f01ffc9a7000000000000000000000000000000000000000000000000000000007bffffffffffffffffffffffffffffffffffffffffffffffffffffffff1916827bffffffffffffffffffffffffffffffffffffffffffffffffffffffff1916149050919050565b6000611cee8383611438565b15611dca5760006001600085815260200190815260200160002060000160008473ffffffffffffffffffffffffffffffffffffffff1673ffffffffffffffffffffffffffffffffffffffff16815260200190815260200160002060006101000a81548160ff021916908315150217905550611d67611eda565b73ffffffffffffffffffffffffffffffffffffffff168273ffffffffffffffffffffffffffffffffffffffff16847ff6391f5c32d9c69d2a47ea670b442974b53935d1edc7fd64eb21e047a839171b60405160405180910390a460019050611dcf565b600090505b92915050565b611de681611de1611eda565b6122a7565b50565b6000611df58383611438565b611ecf57600180600085815260200190815260200160002060000160008473ffffffffffffffffffffffffffffffffffffffff1673ffffffffffffffffffffffffffffffffffffffff16815260200190815260200160002060006101000a81548160ff021916908315150217905550611e6c611eda565b73ffffffffffffffffffffffffffffffffffffffff168273ffffffffffffffffffffffffffffffffffffffff16847f2f8788117e7eff1d82e926ec794901d17c78024a50270940304540a733656f0d60405160405180910390a460019050611ed4565b600090505b92915050565b600033905090565b600260005403611f1e576040517f3ee5aeb500000000000000000000000000000000000000000000000000000000815260040160405180910390fd5b6002600081905550565b611fa2838473ffffffffffffffffffffffffffffffffffffffff1663a9059cbb8585604051602401611f5b929190613548565b604051602081830303815290604052915060e01b6020820180517bffffffffffffffffffffffffffffffffffffffffffffffffffffffff83818316178352505050506122f8565b505050565b6001600081905550565b600360405180608001604052808573ffffffffffffffffffffffffffffffffffffffff168152602001848152602001428152602001831515815250908060018154018082558091505060019003906000526020600020906004020160009091909190915060008201518160000160006101000a81548173ffffffffffffffffffffffffffffffffffffffff021916908373ffffffffffffffffffffffffffffffffffffffff160217905550602082015181600101556040820151816002015560608201518160030160006101000a81548160ff0219169083151502179055505050600060016003805490506120a6919061314d565b9050600073ffffffffffffffffffffffffffffffffffffffff168473ffffffffffffffffffffffffffffffffffffffff16146121995782600560008673ffffffffffffffffffffffffffffffffffffffff1673ffffffffffffffffffffffffffffffffffffffff168152602001908152602001600020600082825461212b9190612dff565b92505081905550600660008573ffffffffffffffffffffffffffffffffffffffff1673ffffffffffffffffffffffffffffffffffffffff1681526020019081526020016000208190806001815401808255809150506001900390600052602060002001600090919091909150555b82600760008282546121ab9190612dff565b9250508190555082600960008282546121c49190612dff565b925050819055508373ffffffffffffffffffffffffffffffffffffffff167f8b710bf75d0c255d5b9c32ad5905dbd0a9457b807f4d70722143743e08dcb916844285856040516122179493929190613571565b60405180910390a250505050565b6122a1848573ffffffffffffffffffffffffffffffffffffffff166323b872dd86868660405160240161225a939291906135b6565b604051602081830303815290604052915060e01b6020820180517bffffffffffffffffffffffffffffffffffffffffffffffffffffffff83818316178352505050506122f8565b50505050565b6122b18282611438565b6122f45780826040517fe2517d3f0000000000000000000000000000000000000000000000000000000081526004016122eb9291906135ed565b60405180910390fd5b5050565b600080602060008451602086016000885af18061231b576040513d6000823e3d81fd5b3d925060005191505060008214612336576001811415612352565b60008473ffffffffffffffffffffffffffffffffffffffff163b145b1561239457836040517f5274afe700000000000000000000000000000000000000000000000000000000815260040161238b9190612ad7565b60405180910390fd5b50505050565b828054828255906000526020600020908101928215612413579160200282015b828111156124125782518260006101000a81548173ffffffffffffffffffffffffffffffffffffffff021916908373ffffffffffffffffffffffffffffffffffffffff160217905550916020019190600101906123ba565b5b5090506124209190612471565b5090565b828054828255906000526020600020908101928215612460579160200282015b8281111561245f578251825591602001919060010190612444565b5b50905061246d9190612471565b5090565b5b8082111561248a576000816000905550600101612472565b5090565b6000819050919050565b6124a18161248e565b82525050565b60006020820190506124bc6000830184612498565b92915050565b600080fd5b600080fd5b60007fffffffff0000000000000000000000000000000000000000000000000000000082169050919050565b612501816124cc565b811461250c57600080fd5b50565b60008135905061251e816124f8565b92915050565b60006020828403121561253a576125396124c2565b5b60006125488482850161250f565b91505092915050565b60008115159050919050565b61256681612551565b82525050565b6000602082019050612581600083018461255d565b92915050565b600073ffffffffffffffffffffffffffffffffffffffff82169050919050565b60006125b282612587565b9050919050565b6125c2816125a7565b81146125cd57600080fd5b50565b6000813590506125df816125b9565b92915050565b6000602082840312156125fb576125fa6124c2565b5b6000612609848285016125d0565b91505092915050565b6000819050919050565b61262581612612565b811461263057600080fd5b50565b6000813590506126428161261c565b92915050565b60006020828403121561265e5761265d6124c2565b5b600061266c84828501612633565b91505092915050565b61267e81612612565b82525050565b60006020820190506126996000830184612675565b92915050565b6126a88161248e565b81146126b357600080fd5b50565b6000813590506126c58161269f565b92915050565b600080604083850312156126e2576126e16124c2565b5b60006126f0858286016125d0565b9250506020612701858286016126b6565b9150509250929050565b60008060408385031215612722576127216124c2565b5b600061273085828601612633565b9250506020612741858286016125d0565b9150509250929050565b600060208284031215612761576127606124c2565b5b600061276f848285016126b6565b91505092915050565b600081519050919050565b600082825260208201905092915050565b6000819050602082019050919050565b6127ad816125a7565b82525050565b60006127bf83836127a4565b60208301905092915050565b6000602082019050919050565b60006127e382612778565b6127ed8185612783565b93506127f883612794565b8060005b8381101561282957815161281088826127b3565b975061281b836127cb565b9250506001810190506127fc565b5085935050505092915050565b600081519050919050565b600082825260208201905092915050565b6000819050602082019050919050565b61286b8161248e565b82525050565b600061287d8383612862565b60208301905092915050565b6000602082019050919050565b60006128a182612836565b6128ab8185612841565b93506128b683612852565b8060005b838110156128e75781516128ce8882612871565b97506128d983612889565b9250506001810190506128ba565b5085935050505092915050565b6128fd816125a7565b82525050565b600060a082019050818103600083015261291d81886127d8565b905081810360208301526129318187612896565b90506129406040830186612498565b61294d60608301856128f4565b61295a6080830184612498565b9695505050505050565b60006060820190506129796000830186612498565b61298660208301856128f4565b6129936040830184612498565b949350505050565b600080fd5b600080fd5b600080fd5b60008083601f8401126129c0576129bf61299b565b5b8235905067ffffffffffffffff8111156129dd576129dc6129a0565b5b6020830191508360208202830111156129f9576129f86129a5565b5b9250929050565b60008083601f840112612a1657612a1561299b565b5b8235905067ffffffffffffffff811115612a3357612a326129a0565b5b602083019150836020820283011115612a4f57612a4e6129a5565b5b9250929050565b60008060008060408587031215612a7057612a6f6124c2565b5b600085013567ffffffffffffffff811115612a8e57612a8d6124c7565b5b612a9a878288016129aa565b9450945050602085013567ffffffffffffffff811115612abd57612abc6124c7565b5b612ac987828801612a00565b925092505092959194509250565b6000602082019050612aec60008301846128f4565b92915050565b60006020820190508181036000830152612b0c8184612896565b905092915050565b600060a082019050612b296000830188612498565b612b366020830187612498565b612b436040830186612498565b612b506060830185612498565b612b5d6080830184612498565b9695505050505050565b6000608082019050612b7c60008301876128f4565b612b896020830186612498565b612b966040830185612498565b612ba3606083018461255d565b95945050505050565b6000819050919050565b6000612bd1612bcc612bc784612587565b612bac565b612587565b9050919050565b6000612be382612bb6565b9050919050565b6000612bf582612bd8565b9050919050565b612c0581612bea565b82525050565b6000602082019050612c206000830184612bfc565b92915050565b600082825260208201905092915050565b7f4f6e6c79206f776e65722063616e2063616c6c20746869732066756e6374696f60008201527f6e00000000000000000000000000000000000000000000000000000000000000602082015250565b6000612c93602183612c26565b9150612c9e82612c37565b604082019050919050565b60006020820190508181036000830152612cc281612c86565b9050919050565b7f41646472657373206973206e6f7420616e2061646d696e000000000000000000600082015250565b6000612cff601783612c26565b9150612d0a82612cc9565b602082019050919050565b60006020820190508181036000830152612d2e81612cf2565b9050919050565b7f496e76616c696420646973747269627574696f6e204944000000000000000000600082015250565b6000612d6b601783612c26565b9150612d7682612d35565b602082019050919050565b60006020820190508181036000830152612d9a81612d5e565b9050919050565b7f4e487b7100000000000000000000000000000000000000000000000000000000600052603260045260246000fd5b7f4e487b7100000000000000000000000000000000000000000000000000000000600052601160045260246000fd5b6000612e0a8261248e565b9150612e158361248e565b9250828201905080821115612e2d57612e2c612dd0565b5b92915050565b7f4f6e6c79206f776e6572206f722061646d696e2063616e2063616c6c2074686960008201527f732066756e6374696f6e00000000000000000000000000000000000000000000602082015250565b6000612e8f602a83612c26565b9150612e9a82612e33565b604082019050919050565b60006020820190508181036000830152612ebe81612e82565b9050919050565b7f526563697069656e74732061727261792063616e6e6f7420626520656d707479600082015250565b6000612efb602083612c26565b9150612f0682612ec5565b602082019050919050565b60006020820190508181036000830152612f2a81612eee565b9050919050565b7f417272617973206c656e677468206d69736d6174636800000000000000000000600082015250565b6000612f67601683612c26565b9150612f7282612f31565b602082019050919050565b60006020820190508181036000830152612f9681612f5a565b9050919050565b7f546f6f206d616e7920726563697069656e747320286d61782031303029000000600082015250565b6000612fd3601d83612c26565b9150612fde82612f9d565b602082019050919050565b6000602082019050818103600083015261300281612fc6565b9050919050565b7f416d6f756e74206d7573742062652067726561746572207468616e2030000000600082015250565b600061303f601d83612c26565b915061304a82613009565b602082019050919050565b6000602082019050818103600083015261306e81613032565b9050919050565b7f526563697069656e742063616e6e6f74206265207a65726f2061646472657373600082015250565b60006130ab602083612c26565b91506130b682613075565b602082019050919050565b600060208201905081810360008301526130da8161309e565b9050919050565b7f496e73756666696369656e742066756e647320696e20636f6e74726163740000600082015250565b6000613117601e83612c26565b9150613122826130e1565b602082019050919050565b600060208201905081810360008301526131468161310a565b9050919050565b60006131588261248e565b91506131638361248e565b925082820390508181111561317b5761317a612dd0565b5b92915050565b60006080820190506131966000830187612498565b6131a36020830186612498565b6131b06040830185612498565b6131bd6060830184612498565b95945050505050565b7f41646d696e20616464726573732063616e6e6f74206265207a65726f00000000600082015250565b60006131fc601c83612c26565b9150613207826131c6565b602082019050919050565b6000602082019050818103600083015261322b816131ef565b9050919050565b7f4164647265737320697320616c726561647920616e2061646d696e0000000000600082015250565b6000613268601b83612c26565b915061327382613232565b602082019050919050565b600060208201905081810360008301526132978161325b565b9050919050565b6000815190506132ad8161269f565b92915050565b6000602082840312156132c9576132c86124c2565b5b60006132d78482850161329e565b91505092915050565b7f496e76616c696420646f6e6174696f6e20494400000000000000000000000000600082015250565b6000613316601383612c26565b9150613321826132e0565b602082019050919050565b6000602082019050818103600083015261334581613309565b9050919050565b7f446f6e6174696f6e20616d6f756e74206d75737420626520677265617465722060008201527f7468616e20300000000000000000000000000000000000000000000000000000602082015250565b60006133a8602683612c26565b91506133b38261334c565b604082019050919050565b600060208201905081810360008301526133d78161339b565b9050919050565b7f4e6f20746f6b656e732072656365697665640000000000000000000000000000600082015250565b6000613414601283612c26565b915061341f826133de565b602082019050919050565b6000602082019050818103600083015261344381613407565b9050919050565b7f4e6577206f776e65722063616e6e6f74206265207a65726f2061646472657373600082015250565b6000613480602083612c26565b915061348b8261344a565b602082019050919050565b600060208201905081810360008301526134af81613473565b9050919050565b7f4e6577206f776e65722063616e6e6f742062652063757272656e74206f776e6560008201527f7200000000000000000000000000000000000000000000000000000000000000602082015250565b6000613512602183612c26565b915061351d826134b6565b604082019050919050565b6000602082019050818103600083015261354181613505565b9050919050565b600060408201905061355d60008301856128f4565b61356a6020830184612498565b9392505050565b60006080820190506135866000830187612498565b6135936020830186612498565b6135a0604083018561255d565b6135ad6060830184612498565b95945050505050565b60006060820190506135cb60008301866128f4565b6135d860208301856128f4565b6135e56040830184612498565b949350505050565b600060408201905061360260008301856128f4565b61360f6020830184612675565b939250505056fea2646970667358221220991a98f13413eb20800084b0a0a4db40add4c784ddbd5ba23109c9cd10710ca264736f6c634300081c0033",
  "linkReferences": {},
  "deployedLinkReferences": {}
}