{
  "_format": "hh-sol-artifact-1",
  "contractName": "MockERC20",
  "sourceName": "contracts/MockERC20.sol",
  "abi": [
    {
      "inputs": [
        {
          "internalType": "string",
          "name": "name",
          "type": "string"
        },
        {
          "internalType": "string",
          "name": "symbol",
          "type": "string"
        },
        {
          "internalType": "uint256",
          "name": "initialSupply",
          "type": "uint256"
        }
      ],
      "stateMutability": "nonpayable",
      "type": "constructor"
    },
    {
      "inputs": [
        {
          "internalType": "address",
          "name": "spender",
          "type": "address"
        },
        {
          "internalType": "uint256",
          "name": "allowance",
          "type": "uint256"
        },
        {
          "internalType": "uint256",
          "name": "needed",
          "type": "uint256"
        }
      ],
      "name": "ERC20InsufficientAllowance",
      "type": "error"
    },
    {
      "inputs": [
        {
          "internalType": "address",
          "name": "sender",
          "type": "address"
        },
        {
          "internalType": "uint256",
          "name": "balance",
          "type": "uint256"
        },
        {
          "internalType": "uint256",
          "name": "needed",
          "type": "uint256"
        }
      ],
      "name": "ERC20InsufficientBalance",
      "type": "error"
    },
    {
      "inputs": [
        {
          "internalType": "address",
          "name": "approver",
          "type": "address"
        }
      ],
      "name": "ERC20InvalidApprover",
      "type": "error"
    },
    {
      "inputs": [
        {
          "internalType": "address",
          "name": "receiver",
          "type": "address"
        }
      ],
      "name": "ERC20InvalidReceiver",
      "type": "error"
    },
    {
      "inputs": [
        {
          "internalType": "address",
          "name": "sender",
          "type": "address"
        }
      ],
      "name": "ERC20InvalidSender",
      "type": "error"
    },
    {
      "inputs": [
        {
          "internalType": "address",
          "name": "spender",
          "type": "address"
        }
      ],
      "name": "ERC20InvalidSpender",
      "type": "error"
    },
    {
      "inputs": [
        {
          "internalType": "address",
          "name": "owner",
          "type": "address"
        }
      ],
      "name": "OwnableInvalidOwner",
      "type": "error"
    },
    {
      "inputs": [
        {
          "internalType": "address",
          "name": "account",
          "type": "address"
        }
      ],
      "name": "OwnableUnauthorizedAccount",
      "type": "error"
    },
    {
      "anonymous": false,
      "inputs": [
        {
          "indexed": true,
          "internalType": "address",
          "name": "owner",
          "type": "address"
        },
        {
          "indexed": true,
          "internalType": "address",
          "name": "spender",
          "type": "address"
        },
        {
          "indexed": false,
          "internalType": "uint256",
          "name": "value",
          "type": "uint256"
        }
      ],
      "name": "Approval",
      "type": "event"
    },
    {
      "anonymous": false,
      "inputs": [
        {
          "indexed": true,
          "internalType": "address",
          "name": "previousOwner",
          "type": "address"
        },
        {
          "indexed": true,
          "internalType": "address",
          "name": "newOwner",
          "type": "address"
        }
      ],
      "name": "OwnershipTransferred",
      "type": "event"
    },
    {
      "anonymous": false,
      "inputs": [
        {
          "indexed": true,
          "internalType": "address",
          "name": "from",
          "type": "address"
        },
        {
          "indexed": true,
          "internalType": "address",
          "name": "to",
          "type": "address"
        },
        {
          "indexed": false,
          "internalType": "uint256",
          "name": "value",
          "type": "uint256"
        }
      ],
      "name": "Transfer",
      "type": "event"
    },
    {
      "inputs": [
        {
          "internalType": "address",
          "name": "owner",
          "type": "address"
        },
        {
          "internalType": "address",
          "name": "spender",
          "type": "address"
        }
      ],
      "name": "allowance",
      "outputs": [
        {
          "internalType": "uint256",
          "name": "",
          "type": "uint256"
        }
      ],
      "stateMutability": "view",
      "type": "function"
    },
    {
      "inputs": [
        {
          "internalType": "address",
          "name": "spender",
          "type": "address"
        },
        {
          "internalType": "uint256",
          "name": "value",
          "type": "uint256"
        }
      ],
      "name": "approve",
      "outputs": [
        {
          "internalType": "bool",
          "name": "",
          "type": "bool"
        }
      ],
      "stateMutability": "nonpayable",
      "type": "function"
    },
    {
      "inputs": [
        {
          "internalType": "address",
          "name": "account",
          "type": "address"
        }
      ],
      "name": "balanceOf",
      "outputs": [
        {
          "internalType": "uint256",
          "name": "",
          "type": "uint256"
        }
      ],
      "stateMutability": "view",
      "type": "function"
    },
    {
      "inputs": [],
      "name": "decimals",
      "outputs": [
        {
          "internalType": "uint8",
          "name": "",
          "type": "uint8"
        }
      ],
      "stateMutability": "view",
      "type": "function"
    },
    {
      "inputs": [
        {
          "internalType": "uint256",
          "name": "amount",
          "type": "uint256"
        }
      ],
      "name": "faucet",
      "outputs": [],
      "stateMutability": "nonpayable",
      "type": "function"
    },
    {
      "inputs": [
        {
          "internalType": "address",
          "name": "to",
          "type": "address"
        },
        {
          "internalType": "uint256",
          "name": "amount",
          "type": "uint256"
        }
      ],
      "name": "mint",
      "outputs": [],
      "stateMutability": "nonpayable",
      "type": "function"
    },
    {
      "inputs": [
        {
          "internalType": "uint256",
          "name": "amount",
          "type": "uint256"
        }
      ],
      "name": "mintToSelf",
      "outputs": [],
      "stateMutability": "nonpayable",
      "type": "function"
    },
    {
      "inputs": [],
      "name": "name",
      "outputs": [
        {
          "internalType": "string",
          "name": "",
          "type": "string"
        }
      ],
      "stateMutability": "view",
      "type": "function"
    },
    {
      "inputs": [],
      "name": "owner",
      "outputs": [
        {
          "internalType": "address",
          "name": "",
          "type": "address"
        }
      ],
      "stateMutability": "view",
      "type": "function"
    },
    {
      "inputs": [],
      "name": "renounceOwnership",
      "outputs": [],
      "stateMutability": "nonpayable",
      "type": "function"
    },
    {
      "inputs": [],
      "name": "symbol",
      "outputs": [
        {
          "internalType": "string",
          "name": "",
          "type": "string"
        }
      ],
      "stateMutability": "view",
      "type": "function"
    },
    {
      "inputs": [],
      "name": "totalSupply",
      "outputs": [
        {
          "internalType": "uint256",
          "name": "",
          "type": "uint256"
        }
      ],
      "stateMutability": "view",
      "type": "function"
    },
    {
      "inputs": [
        {
          "internalType": "address",
          "name": "to",
          "type": "address"
        },
        {
          "internalType": "uint256",
          "name": "value",
          "type": "uint256"
        }
      ],
      "name": "transfer",
      "outputs": [
        {
          "internalType": "bool",
          "name": "",
          "type": "bool"
        }
      ],
      "stateMutability": "nonpayable",
      "type": "function"
    },
    {
      "inputs": [
        {
          "internalType": "address",
          "name": "from",
          "type": "address"
        },
        {
          "internalType": "address",
          "name": "to",
          "type": "address"
        },
        {
          "internalType": "uint256",
          "name": "value",
          "type": "uint256"
        }
      ],
      "name": "transferFrom",
      "outputs": [
        {
          "internalType": "bool",
          "name": "",
          "type": "bool"
        }
      ],
      "stateMutability": "nonpayable",
      "type": "function"
    },
    {
      "inputs": [
        {
          "internalType": "address",
          "name": "newOwner",
          "type": "address"
        }
      ],
      "name": "transferOwnership",
      "outputs": [],
      "stateMutability": "nonpayable",
      "type": "function"
    }
  ],
  "bytecode": "0x608060405234801561001057600080fd5b50604051611cf2380380611cf28339818101604052810190610032919061060f565b338383816003908161004491906108b1565b50806004908161005491906108b1565b505050600073ffffffffffffffffffffffffffffffffffffffff168173ffffffffffffffffffffffffffffffffffffffff16036100c95760006040517f1e4fbdf70000000000000000000000000000000000000000000000000000000081526004016100c091906109c4565b60405180910390fd5b6100d8816100f160201b60201c565b506100e933826101b760201b60201c565b505050610aa3565b6000600560009054906101000a900473ffffffffffffffffffffffffffffffffffffffff16905081600560006101000a81548173ffffffffffffffffffffffffffffffffffffffff021916908373ffffffffffffffffffffffffffffffffffffffff1602179055508173ffffffffffffffffffffffffffffffffffffffff168173ffffffffffffffffffffffffffffffffffffffff167f8be0079c531659141344cd1fd0a4f28419497f9722a3daafe3b4186f6b6457e060405160405180910390a35050565b600073ffffffffffffffffffffffffffffffffffffffff168273ffffffffffffffffffffffffffffffffffffffff16036102295760006040517fec442f0500000000000000000000000000000000000000000000000000000000815260040161022091906109c4565b60405180910390fd5b61023b6000838361023f60201b60201c565b5050565b600073ffffffffffffffffffffffffffffffffffffffff168373ffffffffffffffffffffffffffffffffffffffff16036102915780600260008282546102859190610a0e565b92505081905550610364565b60008060008573ffffffffffffffffffffffffffffffffffffffff1673ffffffffffffffffffffffffffffffffffffffff1681526020019081526020016000205490508181101561031d578381836040517fe450d38c00000000000000000000000000000000000000000000000000000000815260040161031493929190610a51565b60405180910390fd5b8181036000808673ffffffffffffffffffffffffffffffffffffffff1673ffffffffffffffffffffffffffffffffffffffff16815260200190815260200160002081905550505b600073ffffffffffffffffffffffffffffffffffffffff168273ffffffffffffffffffffffffffffffffffffffff16036103ad57806002600082825403925050819055506103fa565b806000808473ffffffffffffffffffffffffffffffffffffffff1673ffffffffffffffffffffffffffffffffffffffff168152602001908152602001600020600082825401925050819055505b8173ffffffffffffffffffffffffffffffffffffffff168373ffffffffffffffffffffffffffffffffffffffff167fddf252ad1be2c89b69c2b068fc378daa952ba7f163c4a11628f55a4df523b3ef836040516104579190610a88565b60405180910390a3505050565b6000604051905090565b600080fd5b600080fd5b600080fd5b600080fd5b6000601f19601f8301169050919050565b7f4e487b7100000000000000000000000000000000000000000000000000000000600052604160045260246000fd5b6104cb82610482565b810181811067ffffffffffffffff821117156104ea576104e9610493565b5b80604052505050565b60006104fd610464565b905061050982826104c2565b919050565b600067ffffffffffffffff82111561052957610528610493565b5b61053282610482565b9050602081019050919050565b60005b8381101561055d578082015181840152602081019050610542565b60008484015250505050565b600061057c6105778461050e565b6104f3565b9050828152602081018484840111156105985761059761047d565b5b6105a384828561053f565b509392505050565b600082601f8301126105c0576105bf610478565b5b81516105d0848260208601610569565b91505092915050565b6000819050919050565b6105ec816105d9565b81146105f757600080fd5b50565b600081519050610609816105e3565b92915050565b6000806000606084860312156106285761062761046e565b5b600084015167ffffffffffffffff81111561064657610645610473565b5b610652868287016105ab565b935050602084015167ffffffffffffffff81111561067357610672610473565b5b61067f868287016105ab565b9250506040610690868287016105fa565b9150509250925092565b600081519050919050565b7f4e487b7100000000000000000000000000000000000000000000000000000000600052602260045260246000fd5b600060028204905060018216806106ec57607f821691505b6020821081036106ff576106fe6106a5565b5b50919050565b60008190508160005260206000209050919050565b60006020601f8301049050919050565b600082821b905092915050565b6000600883026107677fffffffffffffffffffffffffffffffffffffffffffffffffffffffffffffffff8261072a565b610771868361072a565b95508019841693508086168417925050509392505050565b6000819050919050565b60006107ae6107a96107a4846105d9565b610789565b6105d9565b9050919050565b6000819050919050565b6107c883610793565b6107dc6107d4826107b5565b848454610737565b825550505050565b600090565b6107f16107e4565b6107fc8184846107bf565b505050565b5b81811015610820576108156000826107e9565b600181019050610802565b5050565b601f8211156108655761083681610705565b61083f8461071a565b8101602085101561084e578190505b61086261085a8561071a565b830182610801565b50505b505050565b600082821c905092915050565b60006108886000198460080261086a565b1980831691505092915050565b60006108a18383610877565b9150826002028217905092915050565b6108ba8261069a565b67ffffffffffffffff8111156108d3576108d2610493565b5b6108dd82546106d4565b6108e8828285610824565b600060209050601f83116001811461091b5760008415610909578287015190505b6109138582610895565b86555061097b565b601f19841661092986610705565b60005b828110156109515784890151825560018201915060208501945060208101905061092c565b8683101561096e578489015161096a601f891682610877565b8355505b6001600288020188555050505b505050505050565b600073ffffffffffffffffffffffffffffffffffffffff82169050919050565b60006109ae82610983565b9050919050565b6109be816109a3565b82525050565b60006020820190506109d960008301846109b5565b92915050565b7f4e487b7100000000000000000000000000000000000000000000000000000000600052601160045260246000fd5b6000610a19826105d9565b9150610a24836105d9565b9250828201905080821115610a3c57610a3b6109df565b5b92915050565b610a4b816105d9565b82525050565b6000606082019050610a6660008301866109b5565b610a736020830185610a42565b610a806040830184610a42565b949350505050565b6000602082019050610a9d6000830184610a42565b92915050565b61124080610ab26000396000f3fe608060405234801561001057600080fd5b50600436106100f55760003560e01c806370a0823111610097578063a9059cbb11610066578063a9059cbb14610262578063bb6d5e3b14610292578063dd62ed3e146102ae578063f2fde38b146102de576100f5565b806370a08231146101ec578063715018a61461021c5780638da5cb5b1461022657806395d89b4114610244576100f5565b806323b872dd116100d357806323b872dd14610166578063313ce5671461019657806340c10f19146101b457806357915897146101d0576100f5565b806306fdde03146100fa578063095ea7b31461011857806318160ddd14610148575b600080fd5b6101026102fa565b60405161010f9190610e67565b60405180910390f35b610132600480360381019061012d9190610f22565b61038c565b60405161013f9190610f7d565b60405180910390f35b6101506103af565b60405161015d9190610fa7565b60405180910390f35b610180600480360381019061017b9190610fc2565b6103b9565b60405161018d9190610f7d565b60405180910390f35b61019e6103e8565b6040516101ab9190611031565b60405180910390f35b6101ce60048036038101906101c99190610f22565b6103f1565b005b6101ea60048036038101906101e5919061104c565b610407565b005b61020660048036038101906102019190611079565b610414565b6040516102139190610fa7565b60405180910390f35b61022461045c565b005b61022e610470565b60405161023b91906110b5565b60405180910390f35b61024c61049a565b6040516102599190610e67565b60405180910390f35b61027c60048036038101906102779190610f22565b61052c565b6040516102899190610f7d565b60405180910390f35b6102ac60048036038101906102a7919061104c565b61054f565b005b6102c860048036038101906102c391906110d0565b61055c565b6040516102d59190610fa7565b60405180910390f35b6102f860048036038101906102f39190611079565b6105e3565b005b6060600380546103099061113f565b80601f01602080910402602001604051908101604052809291908181526020018280546103359061113f565b80156103825780601f1061035757610100808354040283529160200191610382565b820191906000526020600020905b81548152906001019060200180831161036557829003601f168201915b5050505050905090565b600080610397610669565b90506103a4818585610671565b600191505092915050565b6000600254905090565b6000806103c4610669565b90506103d1858285610683565b6103dc858585610718565b60019150509392505050565b60006012905090565b6103f961080c565b6104038282610893565b5050565b6104113382610893565b50565b60008060008373ffffffffffffffffffffffffffffffffffffffff1673ffffffffffffffffffffffffffffffffffffffff168152602001908152602001600020549050919050565b61046461080c565b61046e6000610915565b565b6000600560009054906101000a900473ffffffffffffffffffffffffffffffffffffffff16905090565b6060600480546104a99061113f565b80601f01602080910402602001604051908101604052809291908181526020018280546104d59061113f565b80156105225780601f106104f757610100808354040283529160200191610522565b820191906000526020600020905b81548152906001019060200180831161050557829003601f168201915b5050505050905090565b600080610537610669565b9050610544818585610718565b600191505092915050565b6105593382610893565b50565b6000600160008473ffffffffffffffffffffffffffffffffffffffff1673ffffffffffffffffffffffffffffffffffffffff16815260200190815260200160002060008373ffffffffffffffffffffffffffffffffffffffff1673ffffffffffffffffffffffffffffffffffffffff16815260200190815260200160002054905092915050565b6105eb61080c565b600073ffffffffffffffffffffffffffffffffffffffff168173ffffffffffffffffffffffffffffffffffffffff160361065d5760006040517f1e4fbdf700000000000000000000000000000000000000000000000000000000815260040161065491906110b5565b60405180910390fd5b61066681610915565b50565b600033905090565b61067e83838360016109db565b505050565b600061068f848461055c565b90507fffffffffffffffffffffffffffffffffffffffffffffffffffffffffffffffff8110156107125781811015610702578281836040517ffb8f41b20000000000000000000000000000000000000000000000000000000081526004016106f993929190611170565b60405180910390fd5b610711848484840360006109db565b5b50505050565b600073ffffffffffffffffffffffffffffffffffffffff168373ffffffffffffffffffffffffffffffffffffffff160361078a5760006040517f96c6fd1e00000000000000000000000000000000000000000000000000000000815260040161078191906110b5565b60405180910390fd5b600073ffffffffffffffffffffffffffffffffffffffff168273ffffffffffffffffffffffffffffffffffffffff16036107fc5760006040517fec442f050000000000000000000000000000000000000000000000000000000081526004016107f391906110b5565b60405180910390fd5b610807838383610bb2565b505050565b610814610669565b73ffffffffffffffffffffffffffffffffffffffff16610832610470565b73ffffffffffffffffffffffffffffffffffffffff161461089157610855610669565b6040517f118cdaa700000000000000000000000000000000000000000000000000000000815260040161088891906110b5565b60405180910390fd5b565b600073ffffffffffffffffffffffffffffffffffffffff168273ffffffffffffffffffffffffffffffffffffffff16036109055760006040517fec442f050000000000000000000000000000000000000000000000000000000081526004016108fc91906110b5565b60405180910390fd5b61091160008383610bb2565b5050565b6000600560009054906101000a900473ffffffffffffffffffffffffffffffffffffffff16905081600560006101000a81548173ffffffffffffffffffffffffffffffffffffffff021916908373ffffffffffffffffffffffffffffffffffffffff1602179055508173ffffffffffffffffffffffffffffffffffffffff168173ffffffffffffffffffffffffffffffffffffffff167f8be0079c531659141344cd1fd0a4f28419497f9722a3daafe3b4186f6b6457e060405160405180910390a35050565b600073ffffffffffffffffffffffffffffffffffffffff168473ffffffffffffffffffffffffffffffffffffffff1603610a4d5760006040517fe602df05000000000000000000000000000000000000000000000000000000008152600401610a4491906110b5565b60405180910390fd5b600073ffffffffffffffffffffffffffffffffffffffff168373ffffffffffffffffffffffffffffffffffffffff1603610abf5760006040517f94280d62000000000000000000000000000000000000000000000000000000008152600401610ab691906110b5565b60405180910390fd5b81600160008673ffffffffffffffffffffffffffffffffffffffff1673ffffffffffffffffffffffffffffffffffffffff16815260200190815260200160002060008573ffffffffffffffffffffffffffffffffffffffff1673ffffffffffffffffffffffffffffffffffffffff168152602001908152602001600020819055508015610bac578273ffffffffffffffffffffffffffffffffffffffff168473ffffffffffffffffffffffffffffffffffffffff167f8c5be1e5ebec7d5bd14f71427d1e84f3dd0314c0f7b2291e5b200ac8c7c3b92584604051610ba39190610fa7565b60405180910390a35b50505050565b600073ffffffffffffffffffffffffffffffffffffffff168373ffffffffffffffffffffffffffffffffffffffff1603610c04578060026000828254610bf891906111d6565b92505081905550610cd7565b60008060008573ffffffffffffffffffffffffffffffffffffffff1673ffffffffffffffffffffffffffffffffffffffff16815260200190815260200160002054905081811015610c90578381836040517fe450d38c000000000000000000000000000000000000000000000000000000008152600401610c8793929190611170565b60405180910390fd5b8181036000808673ffffffffffffffffffffffffffffffffffffffff1673ffffffffffffffffffffffffffffffffffffffff16815260200190815260200160002081905550505b600073ffffffffffffffffffffffffffffffffffffffff168273ffffffffffffffffffffffffffffffffffffffff1603610d205780600260008282540392505081905550610d6d565b806000808473ffffffffffffffffffffffffffffffffffffffff1673ffffffffffffffffffffffffffffffffffffffff168152602001908152602001600020600082825401925050819055505b8173ffffffffffffffffffffffffffffffffffffffff168373ffffffffffffffffffffffffffffffffffffffff167fddf252ad1be2c89b69c2b068fc378daa952ba7f163c4a11628f55a4df523b3ef83604051610dca9190610fa7565b60405180910390a3505050565b600081519050919050565b600082825260208201905092915050565b60005b83811015610e11578082015181840152602081019050610df6565b60008484015250505050565b6000601f19601f8301169050919050565b6000610e3982610dd7565b610e438185610de2565b9350610e53818560208601610df3565b610e5c81610e1d565b840191505092915050565b60006020820190508181036000830152610e818184610e2e565b905092915050565b600080fd5b600073ffffffffffffffffffffffffffffffffffffffff82169050919050565b6000610eb982610e8e565b9050919050565b610ec981610eae565b8114610ed457600080fd5b50565b600081359050610ee681610ec0565b92915050565b6000819050919050565b610eff81610eec565b8114610f0a57600080fd5b50565b600081359050610f1c81610ef6565b92915050565b60008060408385031215610f3957610f38610e89565b5b6000610f4785828601610ed7565b9250506020610f5885828601610f0d565b9150509250929050565b60008115159050919050565b610f7781610f62565b82525050565b6000602082019050610f926000830184610f6e565b92915050565b610fa181610eec565b82525050565b6000602082019050610fbc6000830184610f98565b92915050565b600080600060608486031215610fdb57610fda610e89565b5b6000610fe986828701610ed7565b9350506020610ffa86828701610ed7565b925050604061100b86828701610f0d565b9150509250925092565b600060ff82169050919050565b61102b81611015565b82525050565b60006020820190506110466000830184611022565b92915050565b60006020828403121561106257611061610e89565b5b600061107084828501610f0d565b91505092915050565b60006020828403121561108f5761108e610e89565b5b600061109d84828501610ed7565b91505092915050565b6110af81610eae565b82525050565b60006020820190506110ca60008301846110a6565b92915050565b600080604083850312156110e7576110e6610e89565b5b60006110f585828601610ed7565b925050602061110685828601610ed7565b9150509250929050565b7f4e487b7100000000000000000000000000000000000000000000000000000000600052602260045260246000fd5b6000600282049050600182168061115757607f821691505b60208210810361116a57611169611110565b5b50919050565b600060608201905061118560008301866110a6565b6111926020830185610f98565b61119f6040830184610f98565b949350505050565b7f4e487b7100000000000000000000000000000000000000000000000000000000600052601160045260246000fd5b60006111e182610eec565b91506111ec83610eec565b9250828201905080821115611204576112036111a7565b5b9291505056fea2646970667358221220449d4a221b7154e07864309395bab6537e074f383bad2e64b973fe7d4427b5d364736f6c634300081c0033",
  "linkReferences": {},
  "deployedLinkReferences": {}
}