{"contracts/PoolManager.sol":{"PoolManager":{"abi":[{"inputs":[{"internalType":"address","name":"_token","type":"address"}],"stateMutability":"nonpayable","type":"constructor"},{"inputs":[],"name":"AccessControlBadConfirmation","type":"error"},{"inputs":[{"internalType":"address","name":"account","type":"address"},{"internalType":"bytes32","name":"neededRole","type":"bytes32"}],"name":"AccessControlUnauthorizedAccount","type":"error"},{"inputs":[],"name":"ReentrancyGuardReentrantCall","type":"error"},{"inputs":[{"internalType":"address","name":"token","type":"address"}],"name":"SafeERC20FailedOperation","type":"error"},{"anonymous":false,"inputs":[{"indexed":true,"internalType":"address","name":"admin","type":"address"}],"name":"AdminAdded","type":"event"},{"anonymous":false,"inputs":[{"indexed":true,"internalType":"address","name":"admin","type":"address"}],"name":"AdminRemoved","type":"event"},{"anonymous":false,"inputs":[{"indexed":true,"internalType":"address","name":"donor","type":"address"},{"indexed":false,"internalType":"uint256","name":"amount","type":"uint256"},{"indexed":false,"internalType":"uint256","name":"timestamp","type":"uint256"},{"indexed":false,"internalType":"bool","name":"isDirect","type":"bool"},{"indexed":false,"internalType":"uint256","name":"donationId","type":"uint256"}],"name":"DonationReceived","type":"event"},{"anonymous":false,"inputs":[{"indexed":true,"internalType":"address","name":"distributor","type":"address"},{"indexed":false,"internalType":"uint256","name":"totalAmount","type":"uint256"},{"indexed":false,"internalType":"uint256","name":"recipientCount","type":"uint256"},{"indexed":false,"internalType":"uint256","name":"timestamp","type":"uint256"},{"indexed":false,"internalType":"uint256","name":"distributionId","type":"uint256"}],"name":"FundsDistributed","type":"event"},{"anonymous":false,"inputs":[{"indexed":true,"internalType":"address","name":"previousOwner","type":"address"},{"indexed":true,"internalType":"address","name":"newOwner","type":"address"}],"name":"OwnershipTransferred","type":"event"},{"anonymous":false,"inputs":[{"indexed":true,"internalType":"bytes32","name":"role","type":"bytes32"},{"indexed":true,"internalType":"bytes32","name":"previousAdminRole","type":"bytes32"},{"indexed":true,"internalType":"bytes32","name":"newAdminRole","type":"bytes32"}],"name":"RoleAdminChanged","type":"event"},{"anonymous":false,"inputs":[{"indexed":true,"internalType":"bytes32","name":"role","type":"bytes32"},{"indexed":true,"internalType":"address","name":"account","type":"address"},{"indexed":true,"internalType":"address","name":"sender","type":"address"}],"name":"RoleGranted","type":"event"},{"anonymous":false,"inputs":[{"indexed":true,"internalType":"bytes32","name":"role","type":"bytes32"},{"indexed":true,"internalType":"address","name":"account","type":"address"},{"indexed":true,"internalType":"address","name":"sender","type":"address"}],"name":"RoleRevoked","type":"event"},{"inputs":[],"name":"ADMIN_ROLE","outputs":[{"internalType":"bytes32","name":"","type":"bytes32"}],"stateMutability":"view","type":"function"},{"inputs":[],"name":"DEFAULT_ADMIN_ROLE","outputs":[{"internalType":"bytes32","name":"","type":"bytes32"}],"stateMutability":"view","type":"function"},{"inputs":[{"internalType":"address","name":"admin","type":"address"}],"name":"addAdmin","outputs":[],"stateMutability":"nonpayable","type":"function"},{"inputs":[],"name":"contractOwner","outputs":[{"internalType":"address","name":"","type":"address"}],"stateMutability":"view","type":"function"},{"inputs":[],"name":"currentBalance","outputs":[{"internalType":"uint256","name":"","type":"uint256"}],"stateMutability":"view","type":"function"},{"inputs":[{"internalType":"address[]","name":"recipients","type":"address[]"},{"internalType":"uint256[]","name":"amounts","type":"uint256[]"}],"name":"distributeFunds","outputs":[],"stateMutability":"nonpayable","type":"function"},{"inputs":[{"internalType":"uint256","name":"","type":"uint256"}],"name":"distributions","outputs":[{"internalType":"uint256","name":"timestamp","type":"uint256"},{"internalType":"address","name":"distributor","type":"address"},{"internalType":"uint256","name":"totalAmount","type":"uint256"}],"stateMutability":"view","type":"function"},{"inputs":[{"internalType":"uint256","name":"amount","type":"uint256"}],"name":"donate","outputs":[],"stateMutability":"nonpayable","type":"function"},{"inputs":[{"internalType":"address","name":"","type":"address"},{"internalType":"uint256","name":"","type":"uint256"}],"name":"donationIdsByAddress","outputs":[{"internalType":"uint256","name":"","type":"uint256"}],"stateMutability":"view","type":"function"},{"inputs":[{"internalType":"uint256","name":"","type":"uint256"}],"name":"donations","outputs":[{"internalType":"address","name":"donor","type":"address"},{"internalType":"uint256","name":"amount","type":"uint256"},{"internalType":"uint256","name":"timestamp","type":"uint256"},{"internalType":"bool","name":"isDirect","type":"bool"}],"stateMutability":"view","type":"function"},{"inputs":[],"name":"getContractStats","outputs":[{"internalType":"uint256","name":"_totalDonated","type":"uint256"},{"internalType":"uint256","name":"_totalDistributed","type":"uint256"},{"internalType":"uint256","name":"_currentBalance","type":"uint256"},{"internalType":"uint256","name":"_totalDonations","type":"uint256"},{"internalType":"uint256","name":"_totalDistributions","type":"uint256"}],"stateMutability":"view","type":"function"},{"inputs":[{"internalType":"uint256","name":"distributionId","type":"uint256"}],"name":"getDistribution","outputs":[{"internalType":"address[]","name":"recipients","type":"address[]"},{"internalType":"uint256[]","name":"amounts","type":"uint256[]"},{"internalType":"uint256","name":"timestamp","type":"uint256"},{"internalType":"address","name":"distributor","type":"address"},{"internalType":"uint256","name":"totalAmount","type":"uint256"}],"stateMutability":"view","type":"function"},{"inputs":[{"internalType":"uint256","name":"donationId","type":"uint256"}],"name":"getDonation","outputs":[{"internalType":"address","name":"donor","type":"address"},{"internalType":"uint256","name":"amount","type":"uint256"},{"internalType":"uint256","name":"timestamp","type":"uint256"},{"internalType":"bool","name":"isDirect","type":"bool"}],"stateMutability":"view","type":"function"},{"inputs":[{"internalType":"address","name":"donor","type":"address"}],"name":"getDonationIdsByAddress","outputs":[{"internalType":"uint256[]","name":"","type":"uint256[]"}],"stateMutability":"view","type":"function"},{"inputs":[{"internalType":"bytes32","name":"role","type":"bytes32"}],"name":"getRoleAdmin","outputs":[{"internalType":"bytes32","name":"","type":"bytes32"}],"stateMutability":"view","type":"function"},{"inputs":[],"name":"getTotalDistributions","outputs":[{"internalType":"uint256","name":"","type":"uint256"}],"stateMutability":"view","type":"function"},{"inputs":[],"name":"getTotalDonations","outputs":[{"internalType":"uint256","name":"","type":"uint256"}],"stateMutability":"view","type":"function"},{"inputs":[{"internalType":"bytes32","name":"role","type":"bytes32"},{"internalType":"address","name":"account","type":"address"}],"name":"grantRole","outputs":[],"stateMutability":"nonpayable","type":"function"},{"inputs":[],"name":"handleDirectTransfer","outputs":[],"stateMutability":"nonpayable","type":"function"},{"inputs":[{"internalType":"bytes32","name":"role","type":"bytes32"},{"internalType":"address","name":"account","type":"address"}],"name":"hasRole","outputs":[{"internalType":"bool","name":"","type":"bool"}],"stateMutability":"view","type":"function"},{"inputs":[{"internalType":"address","name":"account","type":"address"}],"name":"isAdmin","outputs":[{"internalType":"bool","name":"","type":"bool"}],"stateMutability":"view","type":"function"},{"inputs":[{"internalType":"address","name":"account","type":"address"}],"name":"isOwner","outputs":[{"internalType":"bool","name":"","type":"bool"}],"stateMutability":"view","type":"function"},{"inputs":[],"name":"owner","outputs":[{"internalType":"address","name":"","type":"address"}],"stateMutability":"view","type":"function"},{"inputs":[{"internalType":"address","name":"admin","type":"address"}],"name":"removeAdmin","outputs":[],"stateMutability":"nonpayable","type":"function"},{"inputs":[{"internalType":"bytes32","name":"role","type":"bytes32"},{"internalType":"address","name":"callerConfirmation","type":"address"}],"name":"renounceRole","outputs":[],"stateMutability":"nonpayable","type":"function"},{"inputs":[{"internalType":"bytes32","name":"role","type":"bytes32"},{"internalType":"address","name":"account","type":"address"}],"name":"revokeRole","outputs":[],"stateMutability":"nonpayable","type":"function"},{"inputs":[{"internalType":"bytes4","name":"interfaceId","type":"bytes4"}],"name":"supportsInterface","outputs":[{"internalType":"bool","name":"","type":"bool"}],"stateMutability":"view","type":"function"},{"inputs":[],"name":"syncBalance","outputs":[],"stateMutability":"nonpayable","type":"function"},{"inputs":[],"name":"token","outputs":[{"internalType":"contract IERC20","name":"","type":"address"}],"stateMutability":"view","type":"function"},{"inputs":[],"name":"totalDistributed","outputs":[{"internalType":"uint256","name":"","type":"uint256"}],"stateMutability":"view","type":"function"},{"inputs":[],"name":"totalDonated","outputs":[{"internalType":"uint256","name":"","type":"uint256"}],"stateMutability":"view","type":"function"},{"inputs":[{"internalType":"address","name":"","type":"address"}],"name":"totalDonatedByAddress","outputs":[{"internalType":"uint256","name":"","type":"uint256"}],"stateMutability":"view","type":"function"},{"inputs":[{"internalType":"address","name":"newOwner","type":"address"}],"name":"transferOwnership","outputs":[],"stateMutability":"nonpayable","type":"function"}],"evm":{"bytecode":{"linkReferences":{},"object":"60a060405234801561001057600080fd5b50604051613a46380380613a468339818101604052810190610032919061030b565b6001600081905550600073ffffffffffffffffffffffffffffffffffffffff168173ffffffffffffffffffffffffffffffffffffffff16036100a9576040517f08c379a00000000000000000000000000000000000000000000000000000000081526004016100a090610395565b60405180910390fd5b8073ffffffffffffffffffffffffffffffffffffffff1660808173ffffffffffffffffffffffffffffffffffffffff168152505033600260006101000a81548173ffffffffffffffffffffffffffffffffffffffff021916908373ffffffffffffffffffffffffffffffffffffffff1602179055506101316000801b3361013860201b60201c565b50506103b5565b600061014a838361023560201b60201c565b61022a57600180600085815260200190815260200160002060000160008473ffffffffffffffffffffffffffffffffffffffff1673ffffffffffffffffffffffffffffffffffffffff16815260200190815260200160002060006101000a81548160ff0219169083151502179055506101c76102a060201b60201c565b73ffffffffffffffffffffffffffffffffffffffff168273ffffffffffffffffffffffffffffffffffffffff16847f2f8788117e7eff1d82e926ec794901d17c78024a50270940304540a733656f0d60405160405180910390a46001905061022f565b600090505b92915050565b60006001600084815260200190815260200160002060000160008373ffffffffffffffffffffffffffffffffffffffff1673ffffffffffffffffffffffffffffffffffffffff16815260200190815260200160002060009054906101000a900460ff16905092915050565b600033905090565b600080fd5b600073ffffffffffffffffffffffffffffffffffffffff82169050919050565b60006102d8826102ad565b9050919050565b6102e8816102cd565b81146102f357600080fd5b50565b600081519050610305816102df565b92915050565b600060208284031215610321576103206102a8565b5b600061032f848285016102f6565b91505092915050565b600082825260208201905092915050565b7f546f6b656e20616464726573732063616e6e6f74206265207a65726f00000000600082015250565b600061037f601c83610338565b915061038a82610349565b602082019050919050565b600060208201905081810360008301526103ae81610372565b9050919050565b60805161364c6103fa60003960008181610f0201528181611318015281816116dd0152818161177f015281816117c801528181611b270152611b99015261364c6000f3fe608060405234801561001057600080fd5b50600436106101fa5760003560e01c806375b238fc1161011a578063d547741f116100ad578063f14faf6f1161007c578063f14faf6f146105fa578063f2fde38b14610616578063f8626af814610632578063fc0c546a14610665578063fd9c652b14610683576101fa565b8063d547741f1461056b578063dfe6b5d614610587578063ef07a81f146105a9578063efca2eed146105dc576101fa565b8063a217fddf116100e9578063a217fddf146104e1578063c68ac852146104ff578063ce606ee01461052f578063ce845d1d1461054d576101fa565b806375b238fc14610457578063777c658f146104755780638da5cb5b1461049357806391d14854146104b1576101fa565b80632f54bf6e116101925780635e6d4a64116101615780635e6d4a64146103f75780636bd59ec0146104155780637048027514610431578063732d432c1461044d576101fa565b80632f54bf6e1461034557806336568abe146103755780633b345a87146103915780634487d3df146103c5576101fa565b8063248a9ca3116101ce578063248a9ca31461029957806324d7806c146102c95780632cda0460146102f95780632f2ff15d14610329576101fa565b8062b37044146101ff57806301ffc9a71461021d578063034411d71461024d5780631785f53c1461027d575b600080fd5b61020761068d565b60405161021491906124a7565b60405180910390f35b61023760048036038101906102329190612524565b610693565b604051610244919061256c565b60405180910390f35b610267600480360381019061026291906125e5565b61070d565b60405161027491906124a7565b60405180910390f35b610297600480360381019061029291906125e5565b610725565b005b6102b360048036038101906102ae9190612648565b61084b565b6040516102c09190612684565b60405180910390f35b6102e360048036038101906102de91906125e5565b61086b565b6040516102f0919061256c565b60405180910390f35b610313600480360381019061030e91906126cb565b61089e565b60405161032091906124a7565b60405180910390f35b610343600480360381019061033e919061270b565b6108cf565b005b61035f600480360381019061035a91906125e5565b6108f1565b60405161036c919061256c565b60405180910390f35b61038f600480360381019061038a919061270b565b610907565b005b6103ab60048036038101906103a6919061274b565b610982565b6040516103bc959493929190612903565b60405180910390f35b6103df60048036038101906103da919061274b565b610b1c565b6040516103ee93929190612964565b60405180910390f35b6103ff610b76565b60405161040c91906124a7565b60405180910390f35b61042f600480360381019061042a9190612a56565b610bd8565b005b61044b600480360381019061044691906125e5565b61117e565b005b610455611314565b005b61045f6113e0565b60405161046c9190612684565b60405180910390f35b61047d611404565b60405161048a91906124a7565b60405180910390f35b61049b61140e565b6040516104a89190612ad7565b60405180910390f35b6104cb60048036038101906104c6919061270b565b611438565b6040516104d8919061256c565b60405180910390f35b6104e96114a3565b6040516104f69190612684565b60405180910390f35b610519600480360381019061051491906125e5565b6114aa565b6040516105269190612af2565b60405180910390f35b610537611541565b6040516105449190612ad7565b60405180910390f35b610555611567565b60405161056291906124a7565b60405180910390f35b6105856004803603810190610580919061270b565b61156d565b005b61058f61158f565b6040516105a0959493929190612b14565b60405180910390f35b6105c360048036038101906105be919061274b565b6115c4565b6040516105d39493929190612b67565b60405180910390f35b6105e4611688565b6040516105f191906124a7565b60405180910390f35b610614600480360381019061060f919061274b565b61168e565b005b610630600480360381019061062b91906125e5565b6118cf565b005b61064c6004803603810190610647919061274b565b611ab8565b60405161065c9493929190612b67565b60405180910390f35b61066d611b25565b60405161067a9190612c0b565b60405180910390f35b61068b611b49565b005b60075481565b60007f7965db0b000000000000000000000000000000000000000000000000000000007bffffffffffffffffffffffffffffffffffffffffffffffffffffffff1916827bffffffffffffffffffffffffffffffffffffffffffffffffffffffff19161480610706575061070582611c78565b5b9050919050565b60056020528060005260406000206000915090505481565b6107326000801b33611438565b610771576040517f08c379a000000000000000000000000000000000000000000000000000000000815260040161076890612ca9565b60405180910390fd5b61079b7fa49807205ce4d355092ef5a8a18f56e8913cf4a201fbe287825b095693c2177582611438565b6107da576040517f08c379a00000000000000000000000000000000000000000000000000000000081526004016107d190612d15565b60405180910390fd5b6108047fa49807205ce4d355092ef5a8a18f56e8913cf4a201fbe287825b095693c2177582611ce2565b508073ffffffffffffffffffffffffffffffffffffffff167fa3b62bc36326052d97ea62d63c3d60308ed4c3ea8ac079dd8499f1e9c4f80c0f60405160405180910390a250565b600060016000838152602001908152602001600020600101549050919050565b60006108977fa49807205ce4d355092ef5a8a18f56e8913cf4a201fbe287825b095693c2177583611438565b9050919050565b600660205281600052604060002081815481106108ba57600080fd5b90600052602060002001600091509150505481565b6108d88261084b565b6108e181611dd5565b6108eb8383611de9565b50505050565b60006109006000801b83611438565b9050919050565b61090f611eda565b73ffffffffffffffffffffffffffffffffffffffff168173ffffffffffffffffffffffffffffffffffffffff1614610973576040517f6697b23200000000000000000000000000000000000000000000000000000000815260040160405180910390fd5b61097d8282611ce2565b505050565b606080600080600060048054905086106109d1576040517f08c379a00000000000000000000000000000000000000000000000000000000081526004016109c890612d81565b60405180910390fd5b6000600487815481106109e7576109e6612da1565b5b90600052602060002090600502019050806000018160010182600201548360030160009054906101000a900473ffffffffffffffffffffffffffffffffffffffff16846004015484805480602002602001604051908101604052809291908181526020018280548015610aaf57602002820191906000526020600020905b8160009054906101000a900473ffffffffffffffffffffffffffffffffffffffff1673ffffffffffffffffffffffffffffffffffffffff1681526020019060010190808311610a65575b5050505050945083805480602002602001604051908101604052809291908181526020018280548015610b0157602002820191906000526020600020905b815481526020019060010190808311610aed575b50505050509350955095509550955095505091939590929450565b60048181548110610b2c57600080fd5b90600052602060002090600502016000915090508060020154908060030160009054906101000a900473ffffffffffffffffffffffffffffffffffffffff16908060040154905083565b6000806000905060005b600480549050811015610bd05760048181548110610ba157610ba0612da1565b5b90600052602060002090600502016000018054905082610bc19190612dff565b91508080600101915050610b80565b508091505090565b610be56000801b33611438565b80610c165750610c157fa49807205ce4d355092ef5a8a18f56e8913cf4a201fbe287825b095693c2177533611438565b5b610c55576040517f08c379a0000000000000000000000000000000000000000000000000000000008152600401610c4c90612ea5565b60405180910390fd5b610c5d611ee2565b60008484905011610ca3576040517f08c379a0000000000000000000000000000000000000000000000000000000008152600401610c9a90612f11565b60405180910390fd5b818190508484905014610ceb576040517f08c379a0000000000000000000000000000000000000000000000000000000008152600401610ce290612f7d565b60405180910390fd5b6064848490501115610d32576040517f08c379a0000000000000000000000000000000000000000000000000000000008152600401610d2990612fe9565b60405180910390fd5b6000805b83839050811015610e67576000848483818110610d5657610d55612da1565b5b9050602002013511610d9d576040517f08c379a0000000000000000000000000000000000000000000000000000000008152600401610d9490613055565b60405180910390fd5b600073ffffffffffffffffffffffffffffffffffffffff16868683818110610dc857610dc7612da1565b5b9050602002016020810190610ddd91906125e5565b73ffffffffffffffffffffffffffffffffffffffff1603610e33576040517f08c379a0000000000000000000000000000000000000000000000000000000008152600401610e2a906130c1565b60405180910390fd5b838382818110610e4657610e45612da1565b5b9050602002013582610e589190612dff565b91508080600101915050610d36565b50600954811115610ead576040517f08c379a0000000000000000000000000000000000000000000000000000000008152600401610ea49061312d565b60405180910390fd5b60005b85859050811015610f5357610f46868683818110610ed157610ed0612da1565b5b9050602002016020810190610ee691906125e5565b858584818110610ef957610ef8612da1565b5b905060200201357f000000000000000000000000000000000000000000000000000000000000000073ffffffffffffffffffffffffffffffffffffffff16611f289092919063ffffffff16565b8080600101915050610eb0565b508060086000828254610f669190612dff565b925050819055508060096000828254610f7f919061314d565b9250508190555060046040518060a00160405280878780806020026020016040519081016040528093929190818152602001838360200280828437600081840152601f19601f820116905080830192505050505050508152602001858580806020026020016040519081016040528093929190818152602001838360200280828437600081840152601f19601f8201169050808301925050505050505081526020014281526020013373ffffffffffffffffffffffffffffffffffffffff168152602001838152509080600181540180825580915050600190039060005260206000209060050201600090919091909150600082015181600001908051906020019061108c92919061239a565b5060208201518160010190805190602001906110a9929190612424565b506040820151816002015560608201518160030160006101000a81548173ffffffffffffffffffffffffffffffffffffffff021916908373ffffffffffffffffffffffffffffffffffffffff1602179055506080820151816004015550503373ffffffffffffffffffffffffffffffffffffffff167f2bd565fffd3136f51e857a386c0502ff823d41b58259913079b1754154dbd34c8287879050426001600480549050611157919061314d565b6040516111679493929190613181565b60405180910390a250611178611fa7565b50505050565b61118b6000801b33611438565b6111ca576040517f08c379a00000000000000000000000000000000000000000000000000000000081526004016111c190612ca9565b60405180910390fd5b600073ffffffffffffffffffffffffffffffffffffffff168173ffffffffffffffffffffffffffffffffffffffff1603611239576040517f08c379a000000000000000000000000000000000000000000000000000000000815260040161123090613212565b60405180910390fd5b6112637fa49807205ce4d355092ef5a8a18f56e8913cf4a201fbe287825b095693c2177582611438565b156112a3576040517f08c379a000000000000000000000000000000000000000000000000000000000815260040161129a9061327e565b60405180910390fd5b6112cd7fa49807205ce4d355092ef5a8a18f56e8913cf4a201fbe287825b095693c2177582611de9565b508073ffffffffffffffffffffffffffffffffffffffff167f44d6d25963f097ad14f29f06854a01f575648a1ef82f30e562ccd3889717e33960405160405180910390a250565b60007f000000000000000000000000000000000000000000000000000000000000000073ffffffffffffffffffffffffffffffffffffffff166370a08231306040518263ffffffff1660e01b815260040161136f9190612ad7565b602060405180830381865afa15801561138c573d6000803e3d6000fd5b505050506040513d601f19601f820116820180604052508101906113b091906132b3565b90506009548111156113dd576000600954826113cc919061314d565b90506113db6000826001611fb1565b505b50565b7fa49807205ce4d355092ef5a8a18f56e8913cf4a201fbe287825b095693c2177581565b6000600754905090565b6000600260009054906101000a900473ffffffffffffffffffffffffffffffffffffffff16905090565b60006001600084815260200190815260200160002060000160008373ffffffffffffffffffffffffffffffffffffffff1673ffffffffffffffffffffffffffffffffffffffff16815260200190815260200160002060009054906101000a900460ff16905092915050565b6000801b81565b6060600660008373ffffffffffffffffffffffffffffffffffffffff1673ffffffffffffffffffffffffffffffffffffffff16815260200190815260200160002080548060200260200160405190810160405280929190818152602001828054801561153557602002820191906000526020600020905b815481526020019060010190808311611521575b50505050509050919050565b600260009054906101000a900473ffffffffffffffffffffffffffffffffffffffff1681565b60095481565b6115768261084b565b61157f81611dd5565b6115898383611ce2565b50505050565b6000806000806000806115a0610b76565b90506007546008546009546003805490508495509550955095509550509091929394565b6000806000806003805490508510611611576040517f08c379a00000000000000000000000000000000000000000000000000000000081526004016116089061332c565b60405180910390fd5b60006003868154811061162757611626612da1565b5b906000526020600020906004020190508060000160009054906101000a900473ffffffffffffffffffffffffffffffffffffffff16816001015482600201548360030160009054906101000a900460ff169450945094509450509193509193565b60085481565b611696611ee2565b600081116116d9576040517f08c379a00000000000000000000000000000000000000000000000000000000081526004016116d0906133be565b60405180910390fd5b60007f000000000000000000000000000000000000000000000000000000000000000073ffffffffffffffffffffffffffffffffffffffff166370a08231306040518263ffffffff1660e01b81526004016117349190612ad7565b602060405180830381865afa158015611751573d6000803e3d6000fd5b505050506040513d601f19601f8201168201806040525081019061177591906132b3565b90506117c43330847f000000000000000000000000000000000000000000000000000000000000000073ffffffffffffffffffffffffffffffffffffffff16612225909392919063ffffffff16565b60007f000000000000000000000000000000000000000000000000000000000000000073ffffffffffffffffffffffffffffffffffffffff166370a08231306040518263ffffffff1660e01b815260040161181f9190612ad7565b602060405180830381865afa15801561183c573d6000803e3d6000fd5b505050506040513d601f19601f8201168201806040525081019061186091906132b3565b905060008282611870919061314d565b9050600081116118b5576040517f08c379a00000000000000000000000000000000000000000000000000000000081526004016118ac9061342a565b60405180910390fd5b6118c133826000611fb1565b5050506118cc611fa7565b50565b6118dc6000801b33611438565b61191b576040517f08c379a000000000000000000000000000000000000000000000000000000000815260040161191290612ca9565b60405180910390fd5b600073ffffffffffffffffffffffffffffffffffffffff168173ffffffffffffffffffffffffffffffffffffffff160361198a576040517f08c379a000000000000000000000000000000000000000000000000000000000815260040161198190613496565b60405180910390fd5b3373ffffffffffffffffffffffffffffffffffffffff168173ffffffffffffffffffffffffffffffffffffffff16036119f8576040517f08c379a00000000000000000000000000000000000000000000000000000000081526004016119ef90613528565b60405180910390fd5b6000339050611a0a6000801b82611ce2565b50611a186000801b83611de9565b5081600260006101000a81548173ffffffffffffffffffffffffffffffffffffffff021916908373ffffffffffffffffffffffffffffffffffffffff1602179055508173ffffffffffffffffffffffffffffffffffffffff168173ffffffffffffffffffffffffffffffffffffffff167f8be0079c531659141344cd1fd0a4f28419497f9722a3daafe3b4186f6b6457e060405160405180910390a35050565b60038181548110611ac857600080fd5b90600052602060002090600402016000915090508060000160009054906101000a900473ffffffffffffffffffffffffffffffffffffffff16908060010154908060020154908060030160009054906101000a900460ff16905084565b7f000000000000000000000000000000000000000000000000000000000000000081565b611b566000801b33611438565b611b95576040517f08c379a0000000000000000000000000000000000000000000000000000000008152600401611b8c90612ca9565b60405180910390fd5b60007f000000000000000000000000000000000000000000000000000000000000000073ffffffffffffffffffffffffffffffffffffffff166370a08231306040518263ffffffff1660e01b8152600401611bf09190612ad7565b602060405180830381865afa158015611c0d573d6000803e3d6000fd5b505050506040513d601f19601f82011682018060405250810190611c3191906132b3565b9050600954811115611c6257600060095482611c4d919061314d565b9050611c5c6000826001611fb1565b50611c75565b600954811015611c7457806009819055505b5b50565b60007f01ffc9a7000000000000000000000000000000000000000000000000000000007bffffffffffffffffffffffffffffffffffffffffffffffffffffffff1916827bffffffffffffffffffffffffffffffffffffffffffffffffffffffff1916149050919050565b6000611cee8383611438565b15611dca5760006001600085815260200190815260200160002060000160008473ffffffffffffffffffffffffffffffffffffffff1673ffffffffffffffffffffffffffffffffffffffff16815260200190815260200160002060006101000a81548160ff021916908315150217905550611d67611eda565b73ffffffffffffffffffffffffffffffffffffffff168273ffffffffffffffffffffffffffffffffffffffff16847ff6391f5c32d9c69d2a47ea670b442974b53935d1edc7fd64eb21e047a839171b60405160405180910390a460019050611dcf565b600090505b92915050565b611de681611de1611eda565b6122a7565b50565b6000611df58383611438565b611ecf57600180600085815260200190815260200160002060000160008473ffffffffffffffffffffffffffffffffffffffff1673ffffffffffffffffffffffffffffffffffffffff16815260200190815260200160002060006101000a81548160ff021916908315150217905550611e6c611eda565b73ffffffffffffffffffffffffffffffffffffffff168273ffffffffffffffffffffffffffffffffffffffff16847f2f8788117e7eff1d82e926ec794901d17c78024a50270940304540a733656f0d60405160405180910390a460019050611ed4565b600090505b92915050565b600033905090565b600260005403611f1e576040517f3ee5aeb500000000000000000000000000000000000000000000000000000000815260040160405180910390fd5b6002600081905550565b611fa2838473ffffffffffffffffffffffffffffffffffffffff1663a9059cbb8585604051602401611f5b929190613548565b604051602081830303815290604052915060e01b6020820180517bffffffffffffffffffffffffffffffffffffffffffffffffffffffff83818316178352505050506122f8565b505050565b6001600081905550565b600360405180608001604052808573ffffffffffffffffffffffffffffffffffffffff168152602001848152602001428152602001831515815250908060018154018082558091505060019003906000526020600020906004020160009091909190915060008201518160000160006101000a81548173ffffffffffffffffffffffffffffffffffffffff021916908373ffffffffffffffffffffffffffffffffffffffff160217905550602082015181600101556040820151816002015560608201518160030160006101000a81548160ff0219169083151502179055505050600060016003805490506120a6919061314d565b9050600073ffffffffffffffffffffffffffffffffffffffff168473ffffffffffffffffffffffffffffffffffffffff16146121995782600560008673ffffffffffffffffffffffffffffffffffffffff1673ffffffffffffffffffffffffffffffffffffffff168152602001908152602001600020600082825461212b9190612dff565b92505081905550600660008573ffffffffffffffffffffffffffffffffffffffff1673ffffffffffffffffffffffffffffffffffffffff1681526020019081526020016000208190806001815401808255809150506001900390600052602060002001600090919091909150555b82600760008282546121ab9190612dff565b9250508190555082600960008282546121c49190612dff565b925050819055508373ffffffffffffffffffffffffffffffffffffffff167f8b710bf75d0c255d5b9c32ad5905dbd0a9457b807f4d70722143743e08dcb916844285856040516122179493929190613571565b60405180910390a250505050565b6122a1848573ffffffffffffffffffffffffffffffffffffffff166323b872dd86868660405160240161225a939291906135b6565b604051602081830303815290604052915060e01b6020820180517bffffffffffffffffffffffffffffffffffffffffffffffffffffffff83818316178352505050506122f8565b50505050565b6122b18282611438565b6122f45780826040517fe2517d3f0000000000000000000000000000000000000000000000000000000081526004016122eb9291906135ed565b60405180910390fd5b5050565b600080602060008451602086016000885af18061231b576040513d6000823e3d81fd5b3d925060005191505060008214612336576001811415612352565b60008473ffffffffffffffffffffffffffffffffffffffff163b145b1561239457836040517f5274afe700000000000000000000000000000000000000000000000000000000815260040161238b9190612ad7565b60405180910390fd5b50505050565b828054828255906000526020600020908101928215612413579160200282015b828111156124125782518260006101000a81548173ffffffffffffffffffffffffffffffffffffffff021916908373ffffffffffffffffffffffffffffffffffffffff160217905550916020019190600101906123ba565b5b5090506124209190612471565b5090565b828054828255906000526020600020908101928215612460579160200282015b8281111561245f578251825591602001919060010190612444565b5b50905061246d9190612471565b5090565b5b8082111561248a576000816000905550600101612472565b5090565b6000819050919050565b6124a18161248e565b82525050565b60006020820190506124bc6000830184612498565b92915050565b600080fd5b600080fd5b60007fffffffff0000000000000000000000000000000000000000000000000000000082169050919050565b612501816124cc565b811461250c57600080fd5b50565b60008135905061251e816124f8565b92915050565b60006020828403121561253a576125396124c2565b5b60006125488482850161250f565b91505092915050565b60008115159050919050565b61256681612551565b82525050565b6000602082019050612581600083018461255d565b92915050565b600073ffffffffffffffffffffffffffffffffffffffff82169050919050565b60006125b282612587565b9050919050565b6125c2816125a7565b81146125cd57600080fd5b50565b6000813590506125df816125b9565b92915050565b6000602082840312156125fb576125fa6124c2565b5b6000612609848285016125d0565b91505092915050565b6000819050919050565b61262581612612565b811461263057600080fd5b50565b6000813590506126428161261c565b92915050565b60006020828403121561265e5761265d6124c2565b5b600061266c84828501612633565b91505092915050565b61267e81612612565b82525050565b60006020820190506126996000830184612675565b92915050565b6126a88161248e565b81146126b357600080fd5b50565b6000813590506126c58161269f565b92915050565b600080604083850312156126e2576126e16124c2565b5b60006126f0858286016125d0565b9250506020612701858286016126b6565b9150509250929050565b60008060408385031215612722576127216124c2565b5b600061273085828601612633565b9250506020612741858286016125d0565b9150509250929050565b600060208284031215612761576127606124c2565b5b600061276f848285016126b6565b91505092915050565b600081519050919050565b600082825260208201905092915050565b6000819050602082019050919050565b6127ad816125a7565b82525050565b60006127bf83836127a4565b60208301905092915050565b6000602082019050919050565b60006127e382612778565b6127ed8185612783565b93506127f883612794565b8060005b8381101561282957815161281088826127b3565b975061281b836127cb565b9250506001810190506127fc565b5085935050505092915050565b600081519050919050565b600082825260208201905092915050565b6000819050602082019050919050565b61286b8161248e565b82525050565b600061287d8383612862565b60208301905092915050565b6000602082019050919050565b60006128a182612836565b6128ab8185612841565b93506128b683612852565b8060005b838110156128e75781516128ce8882612871565b97506128d983612889565b9250506001810190506128ba565b5085935050505092915050565b6128fd816125a7565b82525050565b600060a082019050818103600083015261291d81886127d8565b905081810360208301526129318187612896565b90506129406040830186612498565b61294d60608301856128f4565b61295a6080830184612498565b9695505050505050565b60006060820190506129796000830186612498565b61298660208301856128f4565b6129936040830184612498565b949350505050565b600080fd5b600080fd5b600080fd5b60008083601f8401126129c0576129bf61299b565b5b8235905067ffffffffffffffff8111156129dd576129dc6129a0565b5b6020830191508360208202830111156129f9576129f86129a5565b5b9250929050565b60008083601f840112612a1657612a1561299b565b5b8235905067ffffffffffffffff811115612a3357612a326129a0565b5b602083019150836020820283011115612a4f57612a4e6129a5565b5b9250929050565b60008060008060408587031215612a7057612a6f6124c2565b5b600085013567ffffffffffffffff811115612a8e57612a8d6124c7565b5b612a9a878288016129aa565b9450945050602085013567ffffffffffffffff811115612abd57612abc6124c7565b5b612ac987828801612a00565b925092505092959194509250565b6000602082019050612aec60008301846128f4565b92915050565b60006020820190508181036000830152612b0c8184612896565b905092915050565b600060a082019050612b296000830188612498565b612b366020830187612498565b612b436040830186612498565b612b506060830185612498565b612b5d6080830184612498565b9695505050505050565b6000608082019050612b7c60008301876128f4565b612b896020830186612498565b612b966040830185612498565b612ba3606083018461255d565b95945050505050565b6000819050919050565b6000612bd1612bcc612bc784612587565b612bac565b612587565b9050919050565b6000612be382612bb6565b9050919050565b6000612bf582612bd8565b9050919050565b612c0581612bea565b82525050565b6000602082019050612c206000830184612bfc565b92915050565b600082825260208201905092915050565b7f4f6e6c79206f776e65722063616e2063616c6c20746869732066756e6374696f60008201527f6e00000000000000000000000000000000000000000000000000000000000000602082015250565b6000612c93602183612c26565b9150612c9e82612c37565b604082019050919050565b60006020820190508181036000830152612cc281612c86565b9050919050565b7f41646472657373206973206e6f7420616e2061646d696e000000000000000000600082015250565b6000612cff601783612c26565b9150612d0a82612cc9565b602082019050919050565b60006020820190508181036000830152612d2e81612cf2565b9050919050565b7f496e76616c696420646973747269627574696f6e204944000000000000000000600082015250565b6000612d6b601783612c26565b9150612d7682612d35565b602082019050919050565b60006020820190508181036000830152612d9a81612d5e565b9050919050565b7f4e487b7100000000000000000000000000000000000000000000000000000000600052603260045260246000fd5b7f4e487b7100000000000000000000000000000000000000000000000000000000600052601160045260246000fd5b6000612e0a8261248e565b9150612e158361248e565b9250828201905080821115612e2d57612e2c612dd0565b5b92915050565b7f4f6e6c79206f776e6572206f722061646d696e2063616e2063616c6c2074686960008201527f732066756e6374696f6e00000000000000000000000000000000000000000000602082015250565b6000612e8f602a83612c26565b9150612e9a82612e33565b604082019050919050565b60006020820190508181036000830152612ebe81612e82565b9050919050565b7f526563697069656e74732061727261792063616e6e6f7420626520656d707479600082015250565b6000612efb602083612c26565b9150612f0682612ec5565b602082019050919050565b60006020820190508181036000830152612f2a81612eee565b9050919050565b7f417272617973206c656e677468206d69736d6174636800000000000000000000600082015250565b6000612f67601683612c26565b9150612f7282612f31565b602082019050919050565b60006020820190508181036000830152612f9681612f5a565b9050919050565b7f546f6f206d616e7920726563697069656e747320286d61782031303029000000600082015250565b6000612fd3601d83612c26565b9150612fde82612f9d565b602082019050919050565b6000602082019050818103600083015261300281612fc6565b9050919050565b7f416d6f756e74206d7573742062652067726561746572207468616e2030000000600082015250565b600061303f601d83612c26565b915061304a82613009565b602082019050919050565b6000602082019050818103600083015261306e81613032565b9050919050565b7f526563697069656e742063616e6e6f74206265207a65726f2061646472657373600082015250565b60006130ab602083612c26565b91506130b682613075565b602082019050919050565b600060208201905081810360008301526130da8161309e565b9050919050565b7f496e73756666696369656e742066756e647320696e20636f6e74726163740000600082015250565b6000613117601e83612c26565b9150613122826130e1565b602082019050919050565b600060208201905081810360008301526131468161310a565b9050919050565b60006131588261248e565b91506131638361248e565b925082820390508181111561317b5761317a612dd0565b5b92915050565b60006080820190506131966000830187612498565b6131a36020830186612498565b6131b06040830185612498565b6131bd6060830184612498565b95945050505050565b7f41646d696e20616464726573732063616e6e6f74206265207a65726f00000000600082015250565b60006131fc601c83612c26565b9150613207826131c6565b602082019050919050565b6000602082019050818103600083015261322b816131ef565b9050919050565b7f4164647265737320697320616c726561647920616e2061646d696e0000000000600082015250565b6000613268601b83612c26565b915061327382613232565b602082019050919050565b600060208201905081810360008301526132978161325b565b9050919050565b6000815190506132ad8161269f565b92915050565b6000602082840312156132c9576132c86124c2565b5b60006132d78482850161329e565b91505092915050565b7f496e76616c696420646f6e6174696f6e20494400000000000000000000000000600082015250565b6000613316601383612c26565b9150613321826132e0565b602082019050919050565b6000602082019050818103600083015261334581613309565b9050919050565b7f446f6e6174696f6e20616d6f756e74206d75737420626520677265617465722060008201527f7468616e20300000000000000000000000000000000000000000000000000000602082015250565b60006133a8602683612c26565b91506133b38261334c565b604082019050919050565b600060208201905081810360008301526133d78161339b565b9050919050565b7f4e6f20746f6b656e732072656365697665640000000000000000000000000000600082015250565b6000613414601283612c26565b915061341f826133de565b602082019050919050565b6000602082019050818103600083015261344381613407565b9050919050565b7f4e6577206f776e65722063616e6e6f74206265207a65726f2061646472657373600082015250565b6000613480602083612c26565b915061348b8261344a565b602082019050919050565b600060208201905081810360008301526134af81613473565b9050919050565b7f4e6577206f776e65722063616e6e6f742062652063757272656e74206f776e6560008201527f7200000000000000000000000000000000000000000000000000000000000000602082015250565b6000613512602183612c26565b915061351d826134b6565b604082019050919050565b6000602082019050818103600083015261354181613505565b9050919050565b600060408201905061355d60008301856128f4565b61356a6020830184612498565b9392505050565b60006080820190506135866000830187612498565b6135936020830186612498565b6135a0604083018561255d565b6135ad6060830184612498565b95945050505050565b60006060820190506135cb60008301866128f4565b6135d860208301856128f4565b6135e56040830184612498565b949350505050565b600060408201905061360260008301856128f4565b61360f6020830184612675565b939250505056fea2646970667358221220991a98f13413eb20800084b0a0a4db40add4c784ddbd5ba23109c9cd10710ca264736f6c634300081c0033","opcodes":"PUSH1 0xA0 PUSH1 0x40 MSTORE CALLVALUE DUP1 ISZERO PUSH2 0x10 JUMPI PUSH1 0x0 DUP1 REVERT JUMPDEST POP PUSH1 0x40 MLOAD PUSH2 0x3A46 CODESIZE SUB DUP1 PUSH2 0x3A46 DUP4 CODECOPY DUP2 DUP2 ADD PUSH1 0x40 MSTORE DUP2 ADD SWAP1 PUSH2 0x32 SWAP2 SWAP1 PUSH2 0x30B JUMP JUMPDEST PUSH1 0x1 PUSH1 0x0 DUP2 SWAP1 SSTORE POP PUSH1 0x0 PUSH20 0xFFFFFFFFFFFFFFFFFFFFFFFFFFFFFFFFFFFFFFFF AND DUP2 PUSH20 0xFFFFFFFFFFFFFFFFFFFFFFFFFFFFFFFFFFFFFFFF AND SUB PUSH2 0xA9 JUMPI PUSH1 0x40 MLOAD PUSH32 0x8C379A000000000000000000000000000000000000000000000000000000000 DUP2 MSTORE PUSH1 0x4 ADD PUSH2 0xA0 SWAP1 PUSH2 0x395 JUMP JUMPDEST PUSH1 0x40 MLOAD DUP1 SWAP2 SUB SWAP1 REVERT JUMPDEST DUP1 PUSH20 0xFFFFFFFFFFFFFFFFFFFFFFFFFFFFFFFFFFFFFFFF AND PUSH1 0x80 DUP2 PUSH20 0xFFFFFFFFFFFFFFFFFFFFFFFFFFFFFFFFFFFFFFFF AND DUP2 MSTORE POP POP CALLER PUSH1 0x2 PUSH1 0x0 PUSH2 0x100 EXP DUP2 SLOAD DUP2 PUSH20 0xFFFFFFFFFFFFFFFFFFFFFFFFFFFFFFFFFFFFFFFF MUL NOT AND SWAP1 DUP4 PUSH20 0xFFFFFFFFFFFFFFFFFFFFFFFFFFFFFFFFFFFFFFFF AND MUL OR SWAP1 SSTORE POP PUSH2 0x131 PUSH1 0x0 DUP1 SHL CALLER PUSH2 0x138 PUSH1 0x20 SHL PUSH1 0x20 SHR JUMP JUMPDEST POP POP PUSH2 0x3B5 JUMP JUMPDEST PUSH1 0x0 PUSH2 0x14A DUP4 DUP4 PUSH2 0x235 PUSH1 0x20 SHL PUSH1 0x20 SHR JUMP JUMPDEST PUSH2 0x22A JUMPI PUSH1 0x1 DUP1 PUSH1 0x0 DUP6 DUP2 MSTORE PUSH1 0x20 ADD SWAP1 DUP2 MSTORE PUSH1 0x20 ADD PUSH1 0x0 KECCAK256 PUSH1 0x0 ADD PUSH1 0x0 DUP5 PUSH20 0xFFFFFFFFFFFFFFFFFFFFFFFFFFFFFFFFFFFFFFFF AND PUSH20 0xFFFFFFFFFFFFFFFFFFFFFFFFFFFFFFFFFFFFFFFF AND DUP2 MSTORE PUSH1 0x20 ADD SWAP1 DUP2 MSTORE PUSH1 0x20 ADD PUSH1 0x0 KECCAK256 PUSH1 0x0 PUSH2 0x100 EXP DUP2 SLOAD DUP2 PUSH1 0xFF MUL NOT AND SWAP1 DUP4 ISZERO ISZERO MUL OR SWAP1 SSTORE POP PUSH2 0x1C7 PUSH2 0x2A0 PUSH1 0x20 SHL PUSH1 0x20 SHR JUMP JUMPDEST PUSH20 0xFFFFFFFFFFFFFFFFFFFFFFFFFFFFFFFFFFFFFFFF AND DUP3 PUSH20 0xFFFFFFFFFFFFFFFFFFFFFFFFFFFFFFFFFFFFFFFF AND DUP5 PUSH32 0x2F8788117E7EFF1D82E926EC794901D17C78024A50270940304540A733656F0D PUSH1 0x40 MLOAD PUSH1 0x40 MLOAD DUP1 SWAP2 SUB SWAP1 LOG4 PUSH1 0x1 SWAP1 POP PUSH2 0x22F JUMP JUMPDEST PUSH1 0x0 SWAP1 POP JUMPDEST SWAP3 SWAP2 POP POP JUMP JUMPDEST PUSH1 0x0 PUSH1 0x1 PUSH1 0x0 DUP5 DUP2 MSTORE PUSH1 0x20 ADD SWAP1 DUP2 MSTORE PUSH1 0x20 ADD PUSH1 0x0 KECCAK256 PUSH1 0x0 ADD PUSH1 0x0 DUP4 PUSH20 0xFFFFFFFFFFFFFFFFFFFFFFFFFFFFFFFFFFFFFFFF AND PUSH20 0xFFFFFFFFFFFFFFFFFFFFFFFFFFFFFFFFFFFFFFFF AND DUP2 MSTORE PUSH1 0x20 ADD SWAP1 DUP2 MSTORE PUSH1 0x20 ADD PUSH1 0x0 KECCAK256 PUSH1 0x0 SWAP1 SLOAD SWAP1 PUSH2 0x100 EXP SWAP1 DIV PUSH1 0xFF AND SWAP1 POP SWAP3 SWAP2 POP POP JUMP JUMPDEST PUSH1 0x0 CALLER SWAP1 POP SWAP1 JUMP JUMPDEST PUSH1 0x0 DUP1 REVERT JUMPDEST PUSH1 0x0 PUSH20 0xFFFFFFFFFFFFFFFFFFFFFFFFFFFFFFFFFFFFFFFF DUP3 AND SWAP1 POP SWAP2 SWAP1 POP JUMP JUMPDEST PUSH1 0x0 PUSH2 0x2D8 DUP3 PUSH2 0x2AD JUMP JUMPDEST SWAP1 POP SWAP2 SWAP1 POP JUMP JUMPDEST PUSH2 0x2E8 DUP2 PUSH2 0x2CD JUMP JUMPDEST DUP2 EQ PUSH2 0x2F3 JUMPI PUSH1 0x0 DUP1 REVERT JUMPDEST POP JUMP JUMPDEST PUSH1 0x0 DUP2 MLOAD SWAP1 POP PUSH2 0x305 DUP2 PUSH2 0x2DF JUMP JUMPDEST SWAP3 SWAP2 POP POP JUMP JUMPDEST PUSH1 0x0 PUSH1 0x20 DUP3 DUP5 SUB SLT ISZERO PUSH2 0x321 JUMPI PUSH2 0x320 PUSH2 0x2A8 JUMP JUMPDEST JUMPDEST PUSH1 0x0 PUSH2 0x32F DUP5 DUP3 DUP6 ADD PUSH2 0x2F6 JUMP JUMPDEST SWAP2 POP POP SWAP3 SWAP2 POP POP JUMP JUMPDEST PUSH1 0x0 DUP3 DUP3 MSTORE PUSH1 0x20 DUP3 ADD SWAP1 POP SWAP3 SWAP2 POP POP JUMP JUMPDEST PUSH32 0x546F6B656E20616464726573732063616E6E6F74206265207A65726F00000000 PUSH1 0x0 DUP3 ADD MSTORE POP JUMP JUMPDEST PUSH1 0x0 PUSH2 0x37F PUSH1 0x1C DUP4 PUSH2 0x338 JUMP JUMPDEST SWAP2 POP PUSH2 0x38A DUP3 PUSH2 0x349 JUMP JUMPDEST PUSH1 0x20 DUP3 ADD SWAP1 POP SWAP2 SWAP1 POP JUMP JUMPDEST PUSH1 0x0 PUSH1 0x20 DUP3 ADD SWAP1 POP DUP2 DUP2 SUB PUSH1 0x0 DUP4 ADD MSTORE PUSH2 0x3AE DUP2 PUSH2 0x372 JUMP JUMPDEST SWAP1 POP SWAP2 SWAP1 POP JUMP JUMPDEST PUSH1 0x80 MLOAD PUSH2 0x364C PUSH2 0x3FA PUSH1 0x0 CODECOPY PUSH1 0x0 DUP2 DUP2 PUSH2 0xF02 ADD MSTORE DUP2 DUP2 PUSH2 0x1318 ADD MSTORE DUP2 DUP2 PUSH2 0x16DD ADD MSTORE DUP2 DUP2 PUSH2 0x177F ADD MSTORE DUP2 DUP2 PUSH2 0x17C8 ADD MSTORE DUP2 DUP2 PUSH2 0x1B27 ADD MSTORE PUSH2 0x1B99 ADD MSTORE PUSH2 0x364C PUSH1 0x0 RETURN INVALID PUSH1 0x80 PUSH1 0x40 MSTORE CALLVALUE DUP1 ISZERO PUSH2 0x10 JUMPI PUSH1 0x0 DUP1 REVERT JUMPDEST POP PUSH1 0x4 CALLDATASIZE LT PUSH2 0x1FA JUMPI PUSH1 0x0 CALLDATALOAD PUSH1 0xE0 SHR DUP1 PUSH4 0x75B238FC GT PUSH2 0x11A JUMPI DUP1 PUSH4 0xD547741F GT PUSH2 0xAD JUMPI DUP1 PUSH4 0xF14FAF6F GT PUSH2 0x7C JUMPI DUP1 PUSH4 0xF14FAF6F EQ PUSH2 0x5FA JUMPI DUP1 PUSH4 0xF2FDE38B EQ PUSH2 0x616 JUMPI DUP1 PUSH4 0xF8626AF8 EQ PUSH2 0x632 JUMPI DUP1 PUSH4 0xFC0C546A EQ PUSH2 0x665 JUMPI DUP1 PUSH4 0xFD9C652B EQ PUSH2 0x683 JUMPI PUSH2 0x1FA JUMP JUMPDEST DUP1 PUSH4 0xD547741F EQ PUSH2 0x56B JUMPI DUP1 PUSH4 0xDFE6B5D6 EQ PUSH2 0x587 JUMPI DUP1 PUSH4 0xEF07A81F EQ PUSH2 0x5A9 JUMPI DUP1 PUSH4 0xEFCA2EED EQ PUSH2 0x5DC JUMPI PUSH2 0x1FA JUMP JUMPDEST DUP1 PUSH4 0xA217FDDF GT PUSH2 0xE9 JUMPI DUP1 PUSH4 0xA217FDDF EQ PUSH2 0x4E1 JUMPI DUP1 PUSH4 0xC68AC852 EQ PUSH2 0x4FF JUMPI DUP1 PUSH4 0xCE606EE0 EQ PUSH2 0x52F JUMPI DUP1 PUSH4 0xCE845D1D EQ PUSH2 0x54D JUMPI PUSH2 0x1FA JUMP JUMPDEST DUP1 PUSH4 0x75B238FC EQ PUSH2 0x457 JUMPI DUP1 PUSH4 0x777C658F EQ PUSH2 0x475 JUMPI DUP1 PUSH4 0x8DA5CB5B EQ PUSH2 0x493 JUMPI DUP1 PUSH4 0x91D14854 EQ PUSH2 0x4B1 JUMPI PUSH2 0x1FA JUMP JUMPDEST DUP1 PUSH4 0x2F54BF6E GT PUSH2 0x192 JUMPI DUP1 PUSH4 0x5E6D4A64 GT PUSH2 0x161 JUMPI DUP1 PUSH4 0x5E6D4A64 EQ PUSH2 0x3F7 JUMPI DUP1 PUSH4 0x6BD59EC0 EQ PUSH2 0x415 JUMPI DUP1 PUSH4 0x70480275 EQ PUSH2 0x431 JUMPI DUP1 PUSH4 0x732D432C EQ PUSH2 0x44D JUMPI PUSH2 0x1FA JUMP JUMPDEST DUP1 PUSH4 0x2F54BF6E EQ PUSH2 0x345 JUMPI DUP1 PUSH4 0x36568ABE EQ PUSH2 0x375 JUMPI DUP1 PUSH4 0x3B345A87 EQ PUSH2 0x391 JUMPI DUP1 PUSH4 0x4487D3DF EQ PUSH2 0x3C5 JUMPI PUSH2 0x1FA JUMP JUMPDEST DUP1 PUSH4 0x248A9CA3 GT PUSH2 0x1CE JUMPI DUP1 PUSH4 0x248A9CA3 EQ PUSH2 0x299 JUMPI DUP1 PUSH4 0x24D7806C EQ PUSH2 0x2C9 JUMPI DUP1 PUSH4 0x2CDA0460 EQ PUSH2 0x2F9 JUMPI DUP1 PUSH4 0x2F2FF15D EQ PUSH2 0x329 JUMPI PUSH2 0x1FA JUMP JUMPDEST DUP1 PUSH3 0xB37044 EQ PUSH2 0x1FF JUMPI DUP1 PUSH4 0x1FFC9A7 EQ PUSH2 0x21D JUMPI DUP1 PUSH4 0x34411D7 EQ PUSH2 0x24D JUMPI DUP1 PUSH4 0x1785F53C EQ PUSH2 0x27D JUMPI JUMPDEST PUSH1 0x0 DUP1 REVERT JUMPDEST PUSH2 0x207 PUSH2 0x68D JUMP JUMPDEST PUSH1 0x40 MLOAD PUSH2 0x214 SWAP2 SWAP1 PUSH2 0x24A7 JUMP JUMPDEST PUSH1 0x40 MLOAD DUP1 SWAP2 SUB SWAP1 RETURN JUMPDEST PUSH2 0x237 PUSH1 0x4 DUP1 CALLDATASIZE SUB DUP2 ADD SWAP1 PUSH2 0x232 SWAP2 SWAP1 PUSH2 0x2524 JUMP JUMPDEST PUSH2 0x693 JUMP JUMPDEST PUSH1 0x40 MLOAD PUSH2 0x244 SWAP2 SWAP1 PUSH2 0x256C JUMP JUMPDEST PUSH1 0x40 MLOAD DUP1 SWAP2 SUB SWAP1 RETURN JUMPDEST PUSH2 0x267 PUSH1 0x4 DUP1 CALLDATASIZE SUB DUP2 ADD SWAP1 PUSH2 0x262 SWAP2 SWAP1 PUSH2 0x25E5 JUMP JUMPDEST PUSH2 0x70D JUMP JUMPDEST PUSH1 0x40 MLOAD PUSH2 0x274 SWAP2 SWAP1 PUSH2 0x24A7 JUMP JUMPDEST PUSH1 0x40 MLOAD DUP1 SWAP2 SUB SWAP1 RETURN JUMPDEST PUSH2 0x297 PUSH1 0x4 DUP1 CALLDATASIZE SUB DUP2 ADD SWAP1 PUSH2 0x292 SWAP2 SWAP1 PUSH2 0x25E5 JUMP JUMPDEST PUSH2 0x725 JUMP JUMPDEST STOP JUMPDEST PUSH2 0x2B3 PUSH1 0x4 DUP1 CALLDATASIZE SUB DUP2 ADD SWAP1 PUSH2 0x2AE SWAP2 SWAP1 PUSH2 0x2648 JUMP JUMPDEST PUSH2 0x84B JUMP JUMPDEST PUSH1 0x40 MLOAD PUSH2 0x2C0 SWAP2 SWAP1 PUSH2 0x2684 JUMP JUMPDEST PUSH1 0x40 MLOAD DUP1 SWAP2 SUB SWAP1 RETURN JUMPDEST PUSH2 0x2E3 PUSH1 0x4 DUP1 CALLDATASIZE SUB DUP2 ADD SWAP1 PUSH2 0x2DE SWAP2 SWAP1 PUSH2 0x25E5 JUMP JUMPDEST PUSH2 0x86B JUMP JUMPDEST PUSH1 0x40 MLOAD PUSH2 0x2F0 SWAP2 SWAP1 PUSH2 0x256C JUMP JUMPDEST PUSH1 0x40 MLOAD DUP1 SWAP2 SUB SWAP1 RETURN JUMPDEST PUSH2 0x313 PUSH1 0x4 DUP1 CALLDATASIZE SUB DUP2 ADD SWAP1 PUSH2 0x30E SWAP2 SWAP1 PUSH2 0x26CB JUMP JUMPDEST PUSH2 0x89E JUMP JUMPDEST PUSH1 0x40 MLOAD PUSH2 0x320 SWAP2 SWAP1 PUSH2 0x24A7 JUMP JUMPDEST PUSH1 0x40 MLOAD DUP1 SWAP2 SUB SWAP1 RETURN JUMPDEST PUSH2 0x343 PUSH1 0x4 DUP1 CALLDATASIZE SUB DUP2 ADD SWAP1 PUSH2 0x33E SWAP2 SWAP1 PUSH2 0x270B JUMP JUMPDEST PUSH2 0x8CF JUMP JUMPDEST STOP JUMPDEST PUSH2 0x35F PUSH1 0x4 DUP1 CALLDATASIZE SUB DUP2 ADD SWAP1 PUSH2 0x35A SWAP2 SWAP1 PUSH2 0x25E5 JUMP JUMPDEST PUSH2 0x8F1 JUMP JUMPDEST PUSH1 0x40 MLOAD PUSH2 0x36C SWAP2 SWAP1 PUSH2 0x256C JUMP JUMPDEST PUSH1 0x40 MLOAD DUP1 SWAP2 SUB SWAP1 RETURN JUMPDEST PUSH2 0x38F PUSH1 0x4 DUP1 CALLDATASIZE SUB DUP2 ADD SWAP1 PUSH2 0x38A SWAP2 SWAP1 PUSH2 0x270B JUMP JUMPDEST PUSH2 0x907 JUMP JUMPDEST STOP JUMPDEST PUSH2 0x3AB PUSH1 0x4 DUP1 CALLDATASIZE SUB DUP2 ADD SWAP1 PUSH2 0x3A6 SWAP2 SWAP1 PUSH2 0x274B JUMP JUMPDEST PUSH2 0x982 JUMP JUMPDEST PUSH1 0x40 MLOAD PUSH2 0x3BC SWAP6 SWAP5 SWAP4 SWAP3 SWAP2 SWAP1 PUSH2 0x2903 JUMP JUMPDEST PUSH1 0x40 MLOAD DUP1 SWAP2 SUB SWAP1 RETURN JUMPDEST PUSH2 0x3DF PUSH1 0x4 DUP1 CALLDATASIZE SUB DUP2 ADD SWAP1 PUSH2 0x3DA SWAP2 SWAP1 PUSH2 0x274B JUMP JUMPDEST PUSH2 0xB1C JUMP JUMPDEST PUSH1 0x40 MLOAD PUSH2 0x3EE SWAP4 SWAP3 SWAP2 SWAP1 PUSH2 0x2964 JUMP JUMPDEST PUSH1 0x40 MLOAD DUP1 SWAP2 SUB SWAP1 RETURN JUMPDEST PUSH2 0x3FF PUSH2 0xB76 JUMP JUMPDEST PUSH1 0x40 MLOAD PUSH2 0x40C SWAP2 SWAP1 PUSH2 0x24A7 JUMP JUMPDEST PUSH1 0x40 MLOAD DUP1 SWAP2 SUB SWAP1 RETURN JUMPDEST PUSH2 0x42F PUSH1 0x4 DUP1 CALLDATASIZE SUB DUP2 ADD SWAP1 PUSH2 0x42A SWAP2 SWAP1 PUSH2 0x2A56 JUMP JUMPDEST PUSH2 0xBD8 JUMP JUMPDEST STOP JUMPDEST PUSH2 0x44B PUSH1 0x4 DUP1 CALLDATASIZE SUB DUP2 ADD SWAP1 PUSH2 0x446 SWAP2 SWAP1 PUSH2 0x25E5 JUMP JUMPDEST PUSH2 0x117E JUMP JUMPDEST STOP JUMPDEST PUSH2 0x455 PUSH2 0x1314 JUMP JUMPDEST STOP JUMPDEST PUSH2 0x45F PUSH2 0x13E0 JUMP JUMPDEST PUSH1 0x40 MLOAD PUSH2 0x46C SWAP2 SWAP1 PUSH2 0x2684 JUMP JUMPDEST PUSH1 0x40 MLOAD DUP1 SWAP2 SUB SWAP1 RETURN JUMPDEST PUSH2 0x47D PUSH2 0x1404 JUMP JUMPDEST PUSH1 0x40 MLOAD PUSH2 0x48A SWAP2 SWAP1 PUSH2 0x24A7 JUMP JUMPDEST PUSH1 0x40 MLOAD DUP1 SWAP2 SUB SWAP1 RETURN JUMPDEST PUSH2 0x49B PUSH2 0x140E JUMP JUMPDEST PUSH1 0x40 MLOAD PUSH2 0x4A8 SWAP2 SWAP1 PUSH2 0x2AD7 JUMP JUMPDEST PUSH1 0x40 MLOAD DUP1 SWAP2 SUB SWAP1 RETURN JUMPDEST PUSH2 0x4CB PUSH1 0x4 DUP1 CALLDATASIZE SUB DUP2 ADD SWAP1 PUSH2 0x4C6 SWAP2 SWAP1 PUSH2 0x270B JUMP JUMPDEST PUSH2 0x1438 JUMP JUMPDEST PUSH1 0x40 MLOAD PUSH2 0x4D8 SWAP2 SWAP1 PUSH2 0x256C JUMP JUMPDEST PUSH1 0x40 MLOAD DUP1 SWAP2 SUB SWAP1 RETURN JUMPDEST PUSH2 0x4E9 PUSH2 0x14A3 JUMP JUMPDEST PUSH1 0x40 MLOAD PUSH2 0x4F6 SWAP2 SWAP1 PUSH2 0x2684 JUMP JUMPDEST PUSH1 0x40 MLOAD DUP1 SWAP2 SUB SWAP1 RETURN JUMPDEST PUSH2 0x519 PUSH1 0x4 DUP1 CALLDATASIZE SUB DUP2 ADD SWAP1 PUSH2 0x514 SWAP2 SWAP1 PUSH2 0x25E5 JUMP JUMPDEST PUSH2 0x14AA JUMP JUMPDEST PUSH1 0x40 MLOAD PUSH2 0x526 SWAP2 SWAP1 PUSH2 0x2AF2 JUMP JUMPDEST PUSH1 0x40 MLOAD DUP1 SWAP2 SUB SWAP1 RETURN JUMPDEST PUSH2 0x537 PUSH2 0x1541 JUMP JUMPDEST PUSH1 0x40 MLOAD PUSH2 0x544 SWAP2 SWAP1 PUSH2 0x2AD7 JUMP JUMPDEST PUSH1 0x40 MLOAD DUP1 SWAP2 SUB SWAP1 RETURN JUMPDEST PUSH2 0x555 PUSH2 0x1567 JUMP JUMPDEST PUSH1 0x40 MLOAD PUSH2 0x562 SWAP2 SWAP1 PUSH2 0x24A7 JUMP JUMPDEST PUSH1 0x40 MLOAD DUP1 SWAP2 SUB SWAP1 RETURN JUMPDEST PUSH2 0x585 PUSH1 0x4 DUP1 CALLDATASIZE SUB DUP2 ADD SWAP1 PUSH2 0x580 SWAP2 SWAP1 PUSH2 0x270B JUMP JUMPDEST PUSH2 0x156D JUMP JUMPDEST STOP JUMPDEST PUSH2 0x58F PUSH2 0x158F JUMP JUMPDEST PUSH1 0x40 MLOAD PUSH2 0x5A0 SWAP6 SWAP5 SWAP4 SWAP3 SWAP2 SWAP1 PUSH2 0x2B14 JUMP JUMPDEST PUSH1 0x40 MLOAD DUP1 SWAP2 SUB SWAP1 RETURN JUMPDEST PUSH2 0x5C3 PUSH1 0x4 DUP1 CALLDATASIZE SUB DUP2 ADD SWAP1 PUSH2 0x5BE SWAP2 SWAP1 PUSH2 0x274B JUMP JUMPDEST PUSH2 0x15C4 JUMP JUMPDEST PUSH1 0x40 MLOAD PUSH2 0x5D3 SWAP5 SWAP4 SWAP3 SWAP2 SWAP1 PUSH2 0x2B67 JUMP JUMPDEST PUSH1 0x40 MLOAD DUP1 SWAP2 SUB SWAP1 RETURN JUMPDEST PUSH2 0x5E4 PUSH2 0x1688 JUMP JUMPDEST PUSH1 0x40 MLOAD PUSH2 0x5F1 SWAP2 SWAP1 PUSH2 0x24A7 JUMP JUMPDEST PUSH1 0x40 MLOAD DUP1 SWAP2 SUB SWAP1 RETURN JUMPDEST PUSH2 0x614 PUSH1 0x4 DUP1 CALLDATASIZE SUB DUP2 ADD SWAP1 PUSH2 0x60F SWAP2 SWAP1 PUSH2 0x274B JUMP JUMPDEST PUSH2 0x168E JUMP JUMPDEST STOP JUMPDEST PUSH2 0x630 PUSH1 0x4 DUP1 CALLDATASIZE SUB DUP2 ADD SWAP1 PUSH2 0x62B SWAP2 SWAP1 PUSH2 0x25E5 JUMP JUMPDEST PUSH2 0x18CF JUMP JUMPDEST STOP JUMPDEST PUSH2 0x64C PUSH1 0x4 DUP1 CALLDATASIZE SUB DUP2 ADD SWAP1 PUSH2 0x647 SWAP2 SWAP1 PUSH2 0x274B JUMP JUMPDEST PUSH2 0x1AB8 JUMP JUMPDEST PUSH1 0x40 MLOAD PUSH2 0x65C SWAP5 SWAP4 SWAP3 SWAP2 SWAP1 PUSH2 0x2B67 JUMP JUMPDEST PUSH1 0x40 MLOAD DUP1 SWAP2 SUB SWAP1 RETURN JUMPDEST PUSH2 0x66D PUSH2 0x1B25 JUMP JUMPDEST PUSH1 0x40 MLOAD PUSH2 0x67A SWAP2 SWAP1 PUSH2 0x2C0B JUMP JUMPDEST PUSH1 0x40 MLOAD DUP1 SWAP2 SUB SWAP1 RETURN JUMPDEST PUSH2 0x68B PUSH2 0x1B49 JUMP JUMPDEST STOP JUMPDEST PUSH1 0x7 SLOAD DUP2 JUMP JUMPDEST PUSH1 0x0 PUSH32 0x7965DB0B00000000000000000000000000000000000000000000000000000000 PUSH28 0xFFFFFFFFFFFFFFFFFFFFFFFFFFFFFFFFFFFFFFFFFFFFFFFFFFFFFFFF NOT AND DUP3 PUSH28 0xFFFFFFFFFFFFFFFFFFFFFFFFFFFFFFFFFFFFFFFFFFFFFFFFFFFFFFFF NOT AND EQ DUP1 PUSH2 0x706 JUMPI POP PUSH2 0x705 DUP3 PUSH2 0x1C78 JUMP JUMPDEST JUMPDEST SWAP1 POP SWAP2 SWAP1 POP JUMP JUMPDEST PUSH1 0x5 PUSH1 0x20 MSTORE DUP1 PUSH1 0x0 MSTORE PUSH1 0x40 PUSH1 0x0 KECCAK256 PUSH1 0x0 SWAP2 POP SWAP1 POP SLOAD DUP2 JUMP JUMPDEST PUSH2 0x732 PUSH1 0x0 DUP1 SHL CALLER PUSH2 0x1438 JUMP JUMPDEST PUSH2 0x771 JUMPI PUSH1 0x40 MLOAD PUSH32 0x8C379A000000000000000000000000000000000000000000000000000000000 DUP2 MSTORE PUSH1 0x4 ADD PUSH2 0x768 SWAP1 PUSH2 0x2CA9 JUMP JUMPDEST PUSH1 0x40 MLOAD DUP1 SWAP2 SUB SWAP1 REVERT JUMPDEST PUSH2 0x79B PUSH32 0xA49807205CE4D355092EF5A8A18F56E8913CF4A201FBE287825B095693C21775 DUP3 PUSH2 0x1438 JUMP JUMPDEST PUSH2 0x7DA JUMPI PUSH1 0x40 MLOAD PUSH32 0x8C379A000000000000000000000000000000000000000000000000000000000 DUP2 MSTORE PUSH1 0x4 ADD PUSH2 0x7D1 SWAP1 PUSH2 0x2D15 JUMP JUMPDEST PUSH1 0x40 MLOAD DUP1 SWAP2 SUB SWAP1 REVERT JUMPDEST PUSH2 0x804 PUSH32 0xA49807205CE4D355092EF5A8A18F56E8913CF4A201FBE287825B095693C21775 DUP3 PUSH2 0x1CE2 JUMP JUMPDEST POP DUP1 PUSH20 0xFFFFFFFFFFFFFFFFFFFFFFFFFFFFFFFFFFFFFFFF AND PUSH32 0xA3B62BC36326052D97EA62D63C3D60308ED4C3EA8AC079DD8499F1E9C4F80C0F PUSH1 0x40 MLOAD PUSH1 0x40 MLOAD DUP1 SWAP2 SUB SWAP1 LOG2 POP JUMP JUMPDEST PUSH1 0x0 PUSH1 0x1 PUSH1 0x0 DUP4 DUP2 MSTORE PUSH1 0x20 ADD SWAP1 DUP2 MSTORE PUSH1 0x20 ADD PUSH1 0x0 KECCAK256 PUSH1 0x1 ADD SLOAD SWAP1 POP SWAP2 SWAP1 POP JUMP JUMPDEST PUSH1 0x0 PUSH2 0x897 PUSH32 0xA49807205CE4D355092EF5A8A18F56E8913CF4A201FBE287825B095693C21775 DUP4 PUSH2 0x1438 JUMP JUMPDEST SWAP1 POP SWAP2 SWAP1 POP JUMP JUMPDEST PUSH1 0x6 PUSH1 0x20 MSTORE DUP2 PUSH1 0x0 MSTORE PUSH1 0x40 PUSH1 0x0 KECCAK256 DUP2 DUP2 SLOAD DUP2 LT PUSH2 0x8BA JUMPI PUSH1 0x0 DUP1 REVERT JUMPDEST SWAP1 PUSH1 0x0 MSTORE PUSH1 0x20 PUSH1 0x0 KECCAK256 ADD PUSH1 0x0 SWAP2 POP SWAP2 POP POP SLOAD DUP2 JUMP JUMPDEST PUSH2 0x8D8 DUP3 PUSH2 0x84B JUMP JUMPDEST PUSH2 0x8E1 DUP2 PUSH2 0x1DD5 JUMP JUMPDEST PUSH2 0x8EB DUP4 DUP4 PUSH2 0x1DE9 JUMP JUMPDEST POP POP POP POP JUMP JUMPDEST PUSH1 0x0 PUSH2 0x900 PUSH1 0x0 DUP1 SHL DUP4 PUSH2 0x1438 JUMP JUMPDEST SWAP1 POP SWAP2 SWAP1 POP JUMP JUMPDEST PUSH2 0x90F PUSH2 0x1EDA JUMP JUMPDEST PUSH20 0xFFFFFFFFFFFFFFFFFFFFFFFFFFFFFFFFFFFFFFFF AND DUP2 PUSH20 0xFFFFFFFFFFFFFFFFFFFFFFFFFFFFFFFFFFFFFFFF AND EQ PUSH2 0x973 JUMPI PUSH1 0x40 MLOAD PUSH32 0x6697B23200000000000000000000000000000000000000000000000000000000 DUP2 MSTORE PUSH1 0x4 ADD PUSH1 0x40 MLOAD DUP1 SWAP2 SUB SWAP1 REVERT JUMPDEST PUSH2 0x97D DUP3 DUP3 PUSH2 0x1CE2 JUMP JUMPDEST POP POP POP JUMP JUMPDEST PUSH1 0x60 DUP1 PUSH1 0x0 DUP1 PUSH1 0x0 PUSH1 0x4 DUP1 SLOAD SWAP1 POP DUP7 LT PUSH2 0x9D1 JUMPI PUSH1 0x40 MLOAD PUSH32 0x8C379A000000000000000000000000000000000000000000000000000000000 DUP2 MSTORE PUSH1 0x4 ADD PUSH2 0x9C8 SWAP1 PUSH2 0x2D81 JUMP JUMPDEST PUSH1 0x40 MLOAD DUP1 SWAP2 SUB SWAP1 REVERT JUMPDEST PUSH1 0x0 PUSH1 0x4 DUP8 DUP2 SLOAD DUP2 LT PUSH2 0x9E7 JUMPI PUSH2 0x9E6 PUSH2 0x2DA1 JUMP JUMPDEST JUMPDEST SWAP1 PUSH1 0x0 MSTORE PUSH1 0x20 PUSH1 0x0 KECCAK256 SWAP1 PUSH1 0x5 MUL ADD SWAP1 POP DUP1 PUSH1 0x0 ADD DUP2 PUSH1 0x1 ADD DUP3 PUSH1 0x2 ADD SLOAD DUP4 PUSH1 0x3 ADD PUSH1 0x0 SWAP1 SLOAD SWAP1 PUSH2 0x100 EXP SWAP1 DIV PUSH20 0xFFFFFFFFFFFFFFFFFFFFFFFFFFFFFFFFFFFFFFFF AND DUP5 PUSH1 0x4 ADD SLOAD DUP5 DUP1 SLOAD DUP1 PUSH1 0x20 MUL PUSH1 0x20 ADD PUSH1 0x40 MLOAD SWAP1 DUP2 ADD PUSH1 0x40 MSTORE DUP1 SWAP3 SWAP2 SWAP1 DUP2 DUP2 MSTORE PUSH1 0x20 ADD DUP3 DUP1 SLOAD DUP1 ISZERO PUSH2 0xAAF JUMPI PUSH1 0x20 MUL DUP3 ADD SWAP2 SWAP1 PUSH1 0x0 MSTORE PUSH1 0x20 PUSH1 0x0 KECCAK256 SWAP1 JUMPDEST DUP2 PUSH1 0x0 SWAP1 SLOAD SWAP1 PUSH2 0x100 EXP SWAP1 DIV PUSH20 0xFFFFFFFFFFFFFFFFFFFFFFFFFFFFFFFFFFFFFFFF AND PUSH20 0xFFFFFFFFFFFFFFFFFFFFFFFFFFFFFFFFFFFFFFFF AND DUP2 MSTORE PUSH1 0x20 ADD SWAP1 PUSH1 0x1 ADD SWAP1 DUP1 DUP4 GT PUSH2 0xA65 JUMPI JUMPDEST POP POP POP POP POP SWAP5 POP DUP4 DUP1 SLOAD DUP1 PUSH1 0x20 MUL PUSH1 0x20 ADD PUSH1 0x40 MLOAD SWAP1 DUP2 ADD PUSH1 0x40 MSTORE DUP1 SWAP3 SWAP2 SWAP1 DUP2 DUP2 MSTORE PUSH1 0x20 ADD DUP3 DUP1 SLOAD DUP1 ISZERO PUSH2 0xB01 JUMPI PUSH1 0x20 MUL DUP3 ADD SWAP2 SWAP1 PUSH1 0x0 MSTORE PUSH1 0x20 PUSH1 0x0 KECCAK256 SWAP1 JUMPDEST DUP2 SLOAD DUP2 MSTORE PUSH1 0x20 ADD SWAP1 PUSH1 0x1 ADD SWAP1 DUP1 DUP4 GT PUSH2 0xAED JUMPI JUMPDEST POP POP POP POP POP SWAP4 POP SWAP6 POP SWAP6 POP SWAP6 POP SWAP6 POP SWAP6 POP POP SWAP2 SWAP4 SWAP6 SWAP1 SWAP3 SWAP5 POP JUMP JUMPDEST PUSH1 0x4 DUP2 DUP2 SLOAD DUP2 LT PUSH2 0xB2C JUMPI PUSH1 0x0 DUP1 REVERT JUMPDEST SWAP1 PUSH1 0x0 MSTORE PUSH1 0x20 PUSH1 0x0 KECCAK256 SWAP1 PUSH1 0x5 MUL ADD PUSH1 0x0 SWAP2 POP SWAP1 POP DUP1 PUSH1 0x2 ADD SLOAD SWAP1 DUP1 PUSH1 0x3 ADD PUSH1 0x0 SWAP1 SLOAD SWAP1 PUSH2 0x100 EXP SWAP1 DIV PUSH20 0xFFFFFFFFFFFFFFFFFFFFFFFFFFFFFFFFFFFFFFFF AND SWAP1 DUP1 PUSH1 0x4 ADD SLOAD SWAP1 POP DUP4 JUMP JUMPDEST PUSH1 0x0 DUP1 PUSH1 0x0 SWAP1 POP PUSH1 0x0 JUMPDEST PUSH1 0x4 DUP1 SLOAD SWAP1 POP DUP2 LT ISZERO PUSH2 0xBD0 JUMPI PUSH1 0x4 DUP2 DUP2 SLOAD DUP2 LT PUSH2 0xBA1 JUMPI PUSH2 0xBA0 PUSH2 0x2DA1 JUMP JUMPDEST JUMPDEST SWAP1 PUSH1 0x0 MSTORE PUSH1 0x20 PUSH1 0x0 KECCAK256 SWAP1 PUSH1 0x5 MUL ADD PUSH1 0x0 ADD DUP1 SLOAD SWAP1 POP DUP3 PUSH2 0xBC1 SWAP2 SWAP1 PUSH2 0x2DFF JUMP JUMPDEST SWAP2 POP DUP1 DUP1 PUSH1 0x1 ADD SWAP2 POP POP PUSH2 0xB80 JUMP JUMPDEST POP DUP1 SWAP2 POP POP SWAP1 JUMP JUMPDEST PUSH2 0xBE5 PUSH1 0x0 DUP1 SHL CALLER PUSH2 0x1438 JUMP JUMPDEST DUP1 PUSH2 0xC16 JUMPI POP PUSH2 0xC15 PUSH32 0xA49807205CE4D355092EF5A8A18F56E8913CF4A201FBE287825B095693C21775 CALLER PUSH2 0x1438 JUMP JUMPDEST JUMPDEST PUSH2 0xC55 JUMPI PUSH1 0x40 MLOAD PUSH32 0x8C379A000000000000000000000000000000000000000000000000000000000 DUP2 MSTORE PUSH1 0x4 ADD PUSH2 0xC4C SWAP1 PUSH2 0x2EA5 JUMP JUMPDEST PUSH1 0x40 MLOAD DUP1 SWAP2 SUB SWAP1 REVERT JUMPDEST PUSH2 0xC5D PUSH2 0x1EE2 JUMP JUMPDEST PUSH1 0x0 DUP5 DUP5 SWAP1 POP GT PUSH2 0xCA3 JUMPI PUSH1 0x40 MLOAD PUSH32 0x8C379A000000000000000000000000000000000000000000000000000000000 DUP2 MSTORE PUSH1 0x4 ADD PUSH2 0xC9A SWAP1 PUSH2 0x2F11 JUMP JUMPDEST PUSH1 0x40 MLOAD DUP1 SWAP2 SUB SWAP1 REVERT JUMPDEST DUP2 DUP2 SWAP1 POP DUP5 DUP5 SWAP1 POP EQ PUSH2 0xCEB JUMPI PUSH1 0x40 MLOAD PUSH32 0x8C379A000000000000000000000000000000000000000000000000000000000 DUP2 MSTORE PUSH1 0x4 ADD PUSH2 0xCE2 SWAP1 PUSH2 0x2F7D JUMP JUMPDEST PUSH1 0x40 MLOAD DUP1 SWAP2 SUB SWAP1 REVERT JUMPDEST PUSH1 0x64 DUP5 DUP5 SWAP1 POP GT ISZERO PUSH2 0xD32 JUMPI PUSH1 0x40 MLOAD PUSH32 0x8C379A000000000000000000000000000000000000000000000000000000000 DUP2 MSTORE PUSH1 0x4 ADD PUSH2 0xD29 SWAP1 PUSH2 0x2FE9 JUMP JUMPDEST PUSH1 0x40 MLOAD DUP1 SWAP2 SUB SWAP1 REVERT JUMPDEST PUSH1 0x0 DUP1 JUMPDEST DUP4 DUP4 SWAP1 POP DUP2 LT ISZERO PUSH2 0xE67 JUMPI PUSH1 0x0 DUP5 DUP5 DUP4 DUP2 DUP2 LT PUSH2 0xD56 JUMPI PUSH2 0xD55 PUSH2 0x2DA1 JUMP JUMPDEST JUMPDEST SWAP1 POP PUSH1 0x20 MUL ADD CALLDATALOAD GT PUSH2 0xD9D JUMPI PUSH1 0x40 MLOAD PUSH32 0x8C379A000000000000000000000000000000000000000000000000000000000 DUP2 MSTORE PUSH1 0x4 ADD PUSH2 0xD94 SWAP1 PUSH2 0x3055 JUMP JUMPDEST PUSH1 0x40 MLOAD DUP1 SWAP2 SUB SWAP1 REVERT JUMPDEST PUSH1 0x0 PUSH20 0xFFFFFFFFFFFFFFFFFFFFFFFFFFFFFFFFFFFFFFFF AND DUP7 DUP7 DUP4 DUP2 DUP2 LT PUSH2 0xDC8 JUMPI PUSH2 0xDC7 PUSH2 0x2DA1 JUMP JUMPDEST JUMPDEST SWAP1 POP PUSH1 0x20 MUL ADD PUSH1 0x20 DUP2 ADD SWAP1 PUSH2 0xDDD SWAP2 SWAP1 PUSH2 0x25E5 JUMP JUMPDEST PUSH20 0xFFFFFFFFFFFFFFFFFFFFFFFFFFFFFFFFFFFFFFFF AND SUB PUSH2 0xE33 JUMPI PUSH1 0x40 MLOAD PUSH32 0x8C379A000000000000000000000000000000000000000000000000000000000 DUP2 MSTORE PUSH1 0x4 ADD PUSH2 0xE2A SWAP1 PUSH2 0x30C1 JUMP JUMPDEST PUSH1 0x40 MLOAD DUP1 SWAP2 SUB SWAP1 REVERT JUMPDEST DUP4 DUP4 DUP3 DUP2 DUP2 LT PUSH2 0xE46 JUMPI PUSH2 0xE45 PUSH2 0x2DA1 JUMP JUMPDEST JUMPDEST SWAP1 POP PUSH1 0x20 MUL ADD CALLDATALOAD DUP3 PUSH2 0xE58 SWAP2 SWAP1 PUSH2 0x2DFF JUMP JUMPDEST SWAP2 POP DUP1 DUP1 PUSH1 0x1 ADD SWAP2 POP POP PUSH2 0xD36 JUMP JUMPDEST POP PUSH1 0x9 SLOAD DUP2 GT ISZERO PUSH2 0xEAD JUMPI PUSH1 0x40 MLOAD PUSH32 0x8C379A000000000000000000000000000000000000000000000000000000000 DUP2 MSTORE PUSH1 0x4 ADD PUSH2 0xEA4 SWAP1 PUSH2 0x312D JUMP JUMPDEST PUSH1 0x40 MLOAD DUP1 SWAP2 SUB SWAP1 REVERT JUMPDEST PUSH1 0x0 JUMPDEST DUP6 DUP6 SWAP1 POP DUP2 LT ISZERO PUSH2 0xF53 JUMPI PUSH2 0xF46 DUP7 DUP7 DUP4 DUP2 DUP2 LT PUSH2 0xED1 JUMPI PUSH2 0xED0 PUSH2 0x2DA1 JUMP JUMPDEST JUMPDEST SWAP1 POP PUSH1 0x20 MUL ADD PUSH1 0x20 DUP2 ADD SWAP1 PUSH2 0xEE6 SWAP2 SWAP1 PUSH2 0x25E5 JUMP JUMPDEST DUP6 DUP6 DUP5 DUP2 DUP2 LT PUSH2 0xEF9 JUMPI PUSH2 0xEF8 PUSH2 0x2DA1 JUMP JUMPDEST JUMPDEST SWAP1 POP PUSH1 0x20 MUL ADD CALLDATALOAD PUSH32 0x0 PUSH20 0xFFFFFFFFFFFFFFFFFFFFFFFFFFFFFFFFFFFFFFFF AND PUSH2 0x1F28 SWAP1 SWAP3 SWAP2 SWAP1 PUSH4 0xFFFFFFFF AND JUMP JUMPDEST DUP1 DUP1 PUSH1 0x1 ADD SWAP2 POP POP PUSH2 0xEB0 JUMP JUMPDEST POP DUP1 PUSH1 0x8 PUSH1 0x0 DUP3 DUP3 SLOAD PUSH2 0xF66 SWAP2 SWAP1 PUSH2 0x2DFF JUMP JUMPDEST SWAP3 POP POP DUP2 SWAP1 SSTORE POP DUP1 PUSH1 0x9 PUSH1 0x0 DUP3 DUP3 SLOAD PUSH2 0xF7F SWAP2 SWAP1 PUSH2 0x314D JUMP JUMPDEST SWAP3 POP POP DUP2 SWAP1 SSTORE POP PUSH1 0x4 PUSH1 0x40 MLOAD DUP1 PUSH1 0xA0 ADD PUSH1 0x40 MSTORE DUP1 DUP8 DUP8 DUP1 DUP1 PUSH1 0x20 MUL PUSH1 0x20 ADD PUSH1 0x40 MLOAD SWAP1 DUP2 ADD PUSH1 0x40 MSTORE DUP1 SWAP4 SWAP3 SWAP2 SWAP1 DUP2 DUP2 MSTORE PUSH1 0x20 ADD DUP4 DUP4 PUSH1 0x20 MUL DUP1 DUP3 DUP5 CALLDATACOPY PUSH1 0x0 DUP2 DUP5 ADD MSTORE PUSH1 0x1F NOT PUSH1 0x1F DUP3 ADD AND SWAP1 POP DUP1 DUP4 ADD SWAP3 POP POP POP POP POP POP POP DUP2 MSTORE PUSH1 0x20 ADD DUP6 DUP6 DUP1 DUP1 PUSH1 0x20 MUL PUSH1 0x20 ADD PUSH1 0x40 MLOAD SWAP1 DUP2 ADD PUSH1 0x40 MSTORE DUP1 SWAP4 SWAP3 SWAP2 SWAP1 DUP2 DUP2 MSTORE PUSH1 0x20 ADD DUP4 DUP4 PUSH1 0x20 MUL DUP1 DUP3 DUP5 CALLDATACOPY PUSH1 0x0 DUP2 DUP5 ADD MSTORE PUSH1 0x1F NOT PUSH1 0x1F DUP3 ADD AND SWAP1 POP DUP1 DUP4 ADD SWAP3 POP POP POP POP POP POP POP DUP2 MSTORE PUSH1 0x20 ADD TIMESTAMP DUP2 MSTORE PUSH1 0x20 ADD CALLER PUSH20 0xFFFFFFFFFFFFFFFFFFFFFFFFFFFFFFFFFFFFFFFF AND DUP2 MSTORE PUSH1 0x20 ADD DUP4 DUP2 MSTORE POP SWAP1 DUP1 PUSH1 0x1 DUP2 SLOAD ADD DUP1 DUP3 SSTORE DUP1 SWAP2 POP POP PUSH1 0x1 SWAP1 SUB SWAP1 PUSH1 0x0 MSTORE PUSH1 0x20 PUSH1 0x0 KECCAK256 SWAP1 PUSH1 0x5 MUL ADD PUSH1 0x0 SWAP1 SWAP2 SWAP1 SWAP2 SWAP1 SWAP2 POP PUSH1 0x0 DUP3 ADD MLOAD DUP2 PUSH1 0x0 ADD SWAP1 DUP1 MLOAD SWAP1 PUSH1 0x20 ADD SWAP1 PUSH2 0x108C SWAP3 SWAP2 SWAP1 PUSH2 0x239A JUMP JUMPDEST POP PUSH1 0x20 DUP3 ADD MLOAD DUP2 PUSH1 0x1 ADD SWAP1 DUP1 MLOAD SWAP1 PUSH1 0x20 ADD SWAP1 PUSH2 0x10A9 SWAP3 SWAP2 SWAP1 PUSH2 0x2424 JUMP JUMPDEST POP PUSH1 0x40 DUP3 ADD MLOAD DUP2 PUSH1 0x2 ADD SSTORE PUSH1 0x60 DUP3 ADD MLOAD DUP2 PUSH1 0x3 ADD PUSH1 0x0 PUSH2 0x100 EXP DUP2 SLOAD DUP2 PUSH20 0xFFFFFFFFFFFFFFFFFFFFFFFFFFFFFFFFFFFFFFFF MUL NOT AND SWAP1 DUP4 PUSH20 0xFFFFFFFFFFFFFFFFFFFFFFFFFFFFFFFFFFFFFFFF AND MUL OR SWAP1 SSTORE POP PUSH1 0x80 DUP3 ADD MLOAD DUP2 PUSH1 0x4 ADD SSTORE POP POP CALLER PUSH20 0xFFFFFFFFFFFFFFFFFFFFFFFFFFFFFFFFFFFFFFFF AND PUSH32 0x2BD565FFFD3136F51E857A386C0502FF823D41B58259913079B1754154DBD34C DUP3 DUP8 DUP8 SWAP1 POP TIMESTAMP PUSH1 0x1 PUSH1 0x4 DUP1 SLOAD SWAP1 POP PUSH2 0x1157 SWAP2 SWAP1 PUSH2 0x314D JUMP JUMPDEST PUSH1 0x40 MLOAD PUSH2 0x1167 SWAP5 SWAP4 SWAP3 SWAP2 SWAP1 PUSH2 0x3181 JUMP JUMPDEST PUSH1 0x40 MLOAD DUP1 SWAP2 SUB SWAP1 LOG2 POP PUSH2 0x1178 PUSH2 0x1FA7 JUMP JUMPDEST POP POP POP POP JUMP JUMPDEST PUSH2 0x118B PUSH1 0x0 DUP1 SHL CALLER PUSH2 0x1438 JUMP JUMPDEST PUSH2 0x11CA JUMPI PUSH1 0x40 MLOAD PUSH32 0x8C379A000000000000000000000000000000000000000000000000000000000 DUP2 MSTORE PUSH1 0x4 ADD PUSH2 0x11C1 SWAP1 PUSH2 0x2CA9 JUMP JUMPDEST PUSH1 0x40 MLOAD DUP1 SWAP2 SUB SWAP1 REVERT JUMPDEST PUSH1 0x0 PUSH20 0xFFFFFFFFFFFFFFFFFFFFFFFFFFFFFFFFFFFFFFFF AND DUP2 PUSH20 0xFFFFFFFFFFFFFFFFFFFFFFFFFFFFFFFFFFFFFFFF AND SUB PUSH2 0x1239 JUMPI PUSH1 0x40 MLOAD PUSH32 0x8C379A000000000000000000000000000000000000000000000000000000000 DUP2 MSTORE PUSH1 0x4 ADD PUSH2 0x1230 SWAP1 PUSH2 0x3212 JUMP JUMPDEST PUSH1 0x40 MLOAD DUP1 SWAP2 SUB SWAP1 REVERT JUMPDEST PUSH2 0x1263 PUSH32 0xA49807205CE4D355092EF5A8A18F56E8913CF4A201FBE287825B095693C21775 DUP3 PUSH2 0x1438 JUMP JUMPDEST ISZERO PUSH2 0x12A3 JUMPI PUSH1 0x40 MLOAD PUSH32 0x8C379A000000000000000000000000000000000000000000000000000000000 DUP2 MSTORE PUSH1 0x4 ADD PUSH2 0x129A SWAP1 PUSH2 0x327E JUMP JUMPDEST PUSH1 0x40 MLOAD DUP1 SWAP2 SUB SWAP1 REVERT JUMPDEST PUSH2 0x12CD PUSH32 0xA49807205CE4D355092EF5A8A18F56E8913CF4A201FBE287825B095693C21775 DUP3 PUSH2 0x1DE9 JUMP JUMPDEST POP DUP1 PUSH20 0xFFFFFFFFFFFFFFFFFFFFFFFFFFFFFFFFFFFFFFFF AND PUSH32 0x44D6D25963F097AD14F29F06854A01F575648A1EF82F30E562CCD3889717E339 PUSH1 0x40 MLOAD PUSH1 0x40 MLOAD DUP1 SWAP2 SUB SWAP1 LOG2 POP JUMP JUMPDEST PUSH1 0x0 PUSH32 0x0 PUSH20 0xFFFFFFFFFFFFFFFFFFFFFFFFFFFFFFFFFFFFFFFF AND PUSH4 0x70A08231 ADDRESS PUSH1 0x40 MLOAD DUP3 PUSH4 0xFFFFFFFF AND PUSH1 0xE0 SHL DUP2 MSTORE PUSH1 0x4 ADD PUSH2 0x136F SWAP2 SWAP1 PUSH2 0x2AD7 JUMP JUMPDEST PUSH1 0x20 PUSH1 0x40 MLOAD DUP1 DUP4 SUB DUP2 DUP7 GAS STATICCALL ISZERO DUP1 ISZERO PUSH2 0x138C JUMPI RETURNDATASIZE PUSH1 0x0 DUP1 RETURNDATACOPY RETURNDATASIZE PUSH1 0x0 REVERT JUMPDEST POP POP POP POP PUSH1 0x40 MLOAD RETURNDATASIZE PUSH1 0x1F NOT PUSH1 0x1F DUP3 ADD AND DUP3 ADD DUP1 PUSH1 0x40 MSTORE POP DUP2 ADD SWAP1 PUSH2 0x13B0 SWAP2 SWAP1 PUSH2 0x32B3 JUMP JUMPDEST SWAP1 POP PUSH1 0x9 SLOAD DUP2 GT ISZERO PUSH2 0x13DD JUMPI PUSH1 0x0 PUSH1 0x9 SLOAD DUP3 PUSH2 0x13CC SWAP2 SWAP1 PUSH2 0x314D JUMP JUMPDEST SWAP1 POP PUSH2 0x13DB PUSH1 0x0 DUP3 PUSH1 0x1 PUSH2 0x1FB1 JUMP JUMPDEST POP JUMPDEST POP JUMP JUMPDEST PUSH32 0xA49807205CE4D355092EF5A8A18F56E8913CF4A201FBE287825B095693C21775 DUP2 JUMP JUMPDEST PUSH1 0x0 PUSH1 0x7 SLOAD SWAP1 POP SWAP1 JUMP JUMPDEST PUSH1 0x0 PUSH1 0x2 PUSH1 0x0 SWAP1 SLOAD SWAP1 PUSH2 0x100 EXP SWAP1 DIV PUSH20 0xFFFFFFFFFFFFFFFFFFFFFFFFFFFFFFFFFFFFFFFF AND SWAP1 POP SWAP1 JUMP JUMPDEST PUSH1 0x0 PUSH1 0x1 PUSH1 0x0 DUP5 DUP2 MSTORE PUSH1 0x20 ADD SWAP1 DUP2 MSTORE PUSH1 0x20 ADD PUSH1 0x0 KECCAK256 PUSH1 0x0 ADD PUSH1 0x0 DUP4 PUSH20 0xFFFFFFFFFFFFFFFFFFFFFFFFFFFFFFFFFFFFFFFF AND PUSH20 0xFFFFFFFFFFFFFFFFFFFFFFFFFFFFFFFFFFFFFFFF AND DUP2 MSTORE PUSH1 0x20 ADD SWAP1 DUP2 MSTORE PUSH1 0x20 ADD PUSH1 0x0 KECCAK256 PUSH1 0x0 SWAP1 SLOAD SWAP1 PUSH2 0x100 EXP SWAP1 DIV PUSH1 0xFF AND SWAP1 POP SWAP3 SWAP2 POP POP JUMP JUMPDEST PUSH1 0x0 DUP1 SHL DUP2 JUMP JUMPDEST PUSH1 0x60 PUSH1 0x6 PUSH1 0x0 DUP4 PUSH20 0xFFFFFFFFFFFFFFFFFFFFFFFFFFFFFFFFFFFFFFFF AND PUSH20 0xFFFFFFFFFFFFFFFFFFFFFFFFFFFFFFFFFFFFFFFF AND DUP2 MSTORE PUSH1 0x20 ADD SWAP1 DUP2 MSTORE PUSH1 0x20 ADD PUSH1 0x0 KECCAK256 DUP1 SLOAD DUP1 PUSH1 0x20 MUL PUSH1 0x20 ADD PUSH1 0x40 MLOAD SWAP1 DUP2 ADD PUSH1 0x40 MSTORE DUP1 SWAP3 SWAP2 SWAP1 DUP2 DUP2 MSTORE PUSH1 0x20 ADD DUP3 DUP1 SLOAD DUP1 ISZERO PUSH2 0x1535 JUMPI PUSH1 0x20 MUL DUP3 ADD SWAP2 SWAP1 PUSH1 0x0 MSTORE PUSH1 0x20 PUSH1 0x0 KECCAK256 SWAP1 JUMPDEST DUP2 SLOAD DUP2 MSTORE PUSH1 0x20 ADD SWAP1 PUSH1 0x1 ADD SWAP1 DUP1 DUP4 GT PUSH2 0x1521 JUMPI JUMPDEST POP POP POP POP POP SWAP1 POP SWAP2 SWAP1 POP JUMP JUMPDEST PUSH1 0x2 PUSH1 0x0 SWAP1 SLOAD SWAP1 PUSH2 0x100 EXP SWAP1 DIV PUSH20 0xFFFFFFFFFFFFFFFFFFFFFFFFFFFFFFFFFFFFFFFF AND DUP2 JUMP JUMPDEST PUSH1 0x9 SLOAD DUP2 JUMP JUMPDEST PUSH2 0x1576 DUP3 PUSH2 0x84B JUMP JUMPDEST PUSH2 0x157F DUP2 PUSH2 0x1DD5 JUMP JUMPDEST PUSH2 0x1589 DUP4 DUP4 PUSH2 0x1CE2 JUMP JUMPDEST POP POP POP POP JUMP JUMPDEST PUSH1 0x0 DUP1 PUSH1 0x0 DUP1 PUSH1 0x0 DUP1 PUSH2 0x15A0 PUSH2 0xB76 JUMP JUMPDEST SWAP1 POP PUSH1 0x7 SLOAD PUSH1 0x8 SLOAD PUSH1 0x9 SLOAD PUSH1 0x3 DUP1 SLOAD SWAP1 POP DUP5 SWAP6 POP SWAP6 POP SWAP6 POP SWAP6 POP SWAP6 POP POP SWAP1 SWAP2 SWAP3 SWAP4 SWAP5 JUMP JUMPDEST PUSH1 0x0 DUP1 PUSH1 0x0 DUP1 PUSH1 0x3 DUP1 SLOAD SWAP1 POP DUP6 LT PUSH2 0x1611 JUMPI PUSH1 0x40 MLOAD PUSH32 0x8C379A000000000000000000000000000000000000000000000000000000000 DUP2 MSTORE PUSH1 0x4 ADD PUSH2 0x1608 SWAP1 PUSH2 0x332C JUMP JUMPDEST PUSH1 0x40 MLOAD DUP1 SWAP2 SUB SWAP1 REVERT JUMPDEST PUSH1 0x0 PUSH1 0x3 DUP7 DUP2 SLOAD DUP2 LT PUSH2 0x1627 JUMPI PUSH2 0x1626 PUSH2 0x2DA1 JUMP JUMPDEST JUMPDEST SWAP1 PUSH1 0x0 MSTORE PUSH1 0x20 PUSH1 0x0 KECCAK256 SWAP1 PUSH1 0x4 MUL ADD SWAP1 POP DUP1 PUSH1 0x0 ADD PUSH1 0x0 SWAP1 SLOAD SWAP1 PUSH2 0x100 EXP SWAP1 DIV PUSH20 0xFFFFFFFFFFFFFFFFFFFFFFFFFFFFFFFFFFFFFFFF AND DUP2 PUSH1 0x1 ADD SLOAD DUP3 PUSH1 0x2 ADD SLOAD DUP4 PUSH1 0x3 ADD PUSH1 0x0 SWAP1 SLOAD SWAP1 PUSH2 0x100 EXP SWAP1 DIV PUSH1 0xFF AND SWAP5 POP SWAP5 POP SWAP5 POP SWAP5 POP POP SWAP2 SWAP4 POP SWAP2 SWAP4 JUMP JUMPDEST PUSH1 0x8 SLOAD DUP2 JUMP JUMPDEST PUSH2 0x1696 PUSH2 0x1EE2 JUMP JUMPDEST PUSH1 0x0 DUP2 GT PUSH2 0x16D9 JUMPI PUSH1 0x40 MLOAD PUSH32 0x8C379A000000000000000000000000000000000000000000000000000000000 DUP2 MSTORE PUSH1 0x4 ADD PUSH2 0x16D0 SWAP1 PUSH2 0x33BE JUMP JUMPDEST PUSH1 0x40 MLOAD DUP1 SWAP2 SUB SWAP1 REVERT JUMPDEST PUSH1 0x0 PUSH32 0x0 PUSH20 0xFFFFFFFFFFFFFFFFFFFFFFFFFFFFFFFFFFFFFFFF AND PUSH4 0x70A08231 ADDRESS PUSH1 0x40 MLOAD DUP3 PUSH4 0xFFFFFFFF AND PUSH1 0xE0 SHL DUP2 MSTORE PUSH1 0x4 ADD PUSH2 0x1734 SWAP2 SWAP1 PUSH2 0x2AD7 JUMP JUMPDEST PUSH1 0x20 PUSH1 0x40 MLOAD DUP1 DUP4 SUB DUP2 DUP7 GAS STATICCALL ISZERO DUP1 ISZERO PUSH2 0x1751 JUMPI RETURNDATASIZE PUSH1 0x0 DUP1 RETURNDATACOPY RETURNDATASIZE PUSH1 0x0 REVERT JUMPDEST POP POP POP POP PUSH1 0x40 MLOAD RETURNDATASIZE PUSH1 0x1F NOT PUSH1 0x1F DUP3 ADD AND DUP3 ADD DUP1 PUSH1 0x40 MSTORE POP DUP2 ADD SWAP1 PUSH2 0x1775 SWAP2 SWAP1 PUSH2 0x32B3 JUMP JUMPDEST SWAP1 POP PUSH2 0x17C4 CALLER ADDRESS DUP5 PUSH32 0x0 PUSH20 0xFFFFFFFFFFFFFFFFFFFFFFFFFFFFFFFFFFFFFFFF AND PUSH2 0x2225 SWAP1 SWAP4 SWAP3 SWAP2 SWAP1 PUSH4 0xFFFFFFFF AND JUMP JUMPDEST PUSH1 0x0 PUSH32 0x0 PUSH20 0xFFFFFFFFFFFFFFFFFFFFFFFFFFFFFFFFFFFFFFFF AND PUSH4 0x70A08231 ADDRESS PUSH1 0x40 MLOAD DUP3 PUSH4 0xFFFFFFFF AND PUSH1 0xE0 SHL DUP2 MSTORE PUSH1 0x4 ADD PUSH2 0x181F SWAP2 SWAP1 PUSH2 0x2AD7 JUMP JUMPDEST PUSH1 0x20 PUSH1 0x40 MLOAD DUP1 DUP4 SUB DUP2 DUP7 GAS STATICCALL ISZERO DUP1 ISZERO PUSH2 0x183C JUMPI RETURNDATASIZE PUSH1 0x0 DUP1 RETURNDATACOPY RETURNDATASIZE PUSH1 0x0 REVERT JUMPDEST POP POP POP POP PUSH1 0x40 MLOAD RETURNDATASIZE PUSH1 0x1F NOT PUSH1 0x1F DUP3 ADD AND DUP3 ADD DUP1 PUSH1 0x40 MSTORE POP DUP2 ADD SWAP1 PUSH2 0x1860 SWAP2 SWAP1 PUSH2 0x32B3 JUMP JUMPDEST SWAP1 POP PUSH1 0x0 DUP3 DUP3 PUSH2 0x1870 SWAP2 SWAP1 PUSH2 0x314D JUMP JUMPDEST SWAP1 POP PUSH1 0x0 DUP2 GT PUSH2 0x18B5 JUMPI PUSH1 0x40 MLOAD PUSH32 0x8C379A000000000000000000000000000000000000000000000000000000000 DUP2 MSTORE PUSH1 0x4 ADD PUSH2 0x18AC SWAP1 PUSH2 0x342A JUMP JUMPDEST PUSH1 0x40 MLOAD DUP1 SWAP2 SUB SWAP1 REVERT JUMPDEST PUSH2 0x18C1 CALLER DUP3 PUSH1 0x0 PUSH2 0x1FB1 JUMP JUMPDEST POP POP POP PUSH2 0x18CC PUSH2 0x1FA7 JUMP JUMPDEST POP JUMP JUMPDEST PUSH2 0x18DC PUSH1 0x0 DUP1 SHL CALLER PUSH2 0x1438 JUMP JUMPDEST PUSH2 0x191B JUMPI PUSH1 0x40 MLOAD PUSH32 0x8C379A000000000000000000000000000000000000000000000000000000000 DUP2 MSTORE PUSH1 0x4 ADD PUSH2 0x1912 SWAP1 PUSH2 0x2CA9 JUMP JUMPDEST PUSH1 0x40 MLOAD DUP1 SWAP2 SUB SWAP1 REVERT JUMPDEST PUSH1 0x0 PUSH20 0xFFFFFFFFFFFFFFFFFFFFFFFFFFFFFFFFFFFFFFFF AND DUP2 PUSH20 0xFFFFFFFFFFFFFFFFFFFFFFFFFFFFFFFFFFFFFFFF AND SUB PUSH2 0x198A JUMPI PUSH1 0x40 MLOAD PUSH32 0x8C379A000000000000000000000000000000000000000000000000000000000 DUP2 MSTORE PUSH1 0x4 ADD PUSH2 0x1981 SWAP1 PUSH2 0x3496 JUMP JUMPDEST PUSH1 0x40 MLOAD DUP1 SWAP2 SUB SWAP1 REVERT JUMPDEST CALLER PUSH20 0xFFFFFFFFFFFFFFFFFFFFFFFFFFFFFFFFFFFFFFFF AND DUP2 PUSH20 0xFFFFFFFFFFFFFFFFFFFFFFFFFFFFFFFFFFFFFFFF AND SUB PUSH2 0x19F8 JUMPI PUSH1 0x40 MLOAD PUSH32 0x8C379A000000000000000000000000000000000000000000000000000000000 DUP2 MSTORE PUSH1 0x4 ADD PUSH2 0x19EF SWAP1 PUSH2 0x3528 JUMP JUMPDEST PUSH1 0x40 MLOAD DUP1 SWAP2 SUB SWAP1 REVERT JUMPDEST PUSH1 0x0 CALLER SWAP1 POP PUSH2 0x1A0A PUSH1 0x0 DUP1 SHL DUP3 PUSH2 0x1CE2 JUMP JUMPDEST POP PUSH2 0x1A18 PUSH1 0x0 DUP1 SHL DUP4 PUSH2 0x1DE9 JUMP JUMPDEST POP DUP2 PUSH1 0x2 PUSH1 0x0 PUSH2 0x100 EXP DUP2 SLOAD DUP2 PUSH20 0xFFFFFFFFFFFFFFFFFFFFFFFFFFFFFFFFFFFFFFFF MUL NOT AND SWAP1 DUP4 PUSH20 0xFFFFFFFFFFFFFFFFFFFFFFFFFFFFFFFFFFFFFFFF AND MUL OR SWAP1 SSTORE POP DUP2 PUSH20 0xFFFFFFFFFFFFFFFFFFFFFFFFFFFFFFFFFFFFFFFF AND DUP2 PUSH20 0xFFFFFFFFFFFFFFFFFFFFFFFFFFFFFFFFFFFFFFFF AND PUSH32 0x8BE0079C531659141344CD1FD0A4F28419497F9722A3DAAFE3B4186F6B6457E0 PUSH1 0x40 MLOAD PUSH1 0x40 MLOAD DUP1 SWAP2 SUB SWAP1 LOG3 POP POP JUMP JUMPDEST PUSH1 0x3 DUP2 DUP2 SLOAD DUP2 LT PUSH2 0x1AC8 JUMPI PUSH1 0x0 DUP1 REVERT JUMPDEST SWAP1 PUSH1 0x0 MSTORE PUSH1 0x20 PUSH1 0x0 KECCAK256 SWAP1 PUSH1 0x4 MUL ADD PUSH1 0x0 SWAP2 POP SWAP1 POP DUP1 PUSH1 0x0 ADD PUSH1 0x0 SWAP1 SLOAD SWAP1 PUSH2 0x100 EXP SWAP1 DIV PUSH20 0xFFFFFFFFFFFFFFFFFFFFFFFFFFFFFFFFFFFFFFFF AND SWAP1 DUP1 PUSH1 0x1 ADD SLOAD SWAP1 DUP1 PUSH1 0x2 ADD SLOAD SWAP1 DUP1 PUSH1 0x3 ADD PUSH1 0x0 SWAP1 SLOAD SWAP1 PUSH2 0x100 EXP SWAP1 DIV PUSH1 0xFF AND SWAP1 POP DUP5 JUMP JUMPDEST PUSH32 0x0 DUP2 JUMP JUMPDEST PUSH2 0x1B56 PUSH1 0x0 DUP1 SHL CALLER PUSH2 0x1438 JUMP JUMPDEST PUSH2 0x1B95 JUMPI PUSH1 0x40 MLOAD PUSH32 0x8C379A000000000000000000000000000000000000000000000000000000000 DUP2 MSTORE PUSH1 0x4 ADD PUSH2 0x1B8C SWAP1 PUSH2 0x2CA9 JUMP JUMPDEST PUSH1 0x40 MLOAD DUP1 SWAP2 SUB SWAP1 REVERT JUMPDEST PUSH1 0x0 PUSH32 0x0 PUSH20 0xFFFFFFFFFFFFFFFFFFFFFFFFFFFFFFFFFFFFFFFF AND PUSH4 0x70A08231 ADDRESS PUSH1 0x40 MLOAD DUP3 PUSH4 0xFFFFFFFF AND PUSH1 0xE0 SHL DUP2 MSTORE PUSH1 0x4 ADD PUSH2 0x1BF0 SWAP2 SWAP1 PUSH2 0x2AD7 JUMP JUMPDEST PUSH1 0x20 PUSH1 0x40 MLOAD DUP1 DUP4 SUB DUP2 DUP7 GAS STATICCALL ISZERO DUP1 ISZERO PUSH2 0x1C0D JUMPI RETURNDATASIZE PUSH1 0x0 DUP1 RETURNDATACOPY RETURNDATASIZE PUSH1 0x0 REVERT JUMPDEST POP POP POP POP PUSH1 0x40 MLOAD RETURNDATASIZE PUSH1 0x1F NOT PUSH1 0x1F DUP3 ADD AND DUP3 ADD DUP1 PUSH1 0x40 MSTORE POP DUP2 ADD SWAP1 PUSH2 0x1C31 SWAP2 SWAP1 PUSH2 0x32B3 JUMP JUMPDEST SWAP1 POP PUSH1 0x9 SLOAD DUP2 GT ISZERO PUSH2 0x1C62 JUMPI PUSH1 0x0 PUSH1 0x9 SLOAD DUP3 PUSH2 0x1C4D SWAP2 SWAP1 PUSH2 0x314D JUMP JUMPDEST SWAP1 POP PUSH2 0x1C5C PUSH1 0x0 DUP3 PUSH1 0x1 PUSH2 0x1FB1 JUMP JUMPDEST POP PUSH2 0x1C75 JUMP JUMPDEST PUSH1 0x9 SLOAD DUP2 LT ISZERO PUSH2 0x1C74 JUMPI DUP1 PUSH1 0x9 DUP2 SWAP1 SSTORE POP JUMPDEST JUMPDEST POP JUMP JUMPDEST PUSH1 0x0 PUSH32 0x1FFC9A700000000000000000000000000000000000000000000000000000000 PUSH28 0xFFFFFFFFFFFFFFFFFFFFFFFFFFFFFFFFFFFFFFFFFFFFFFFFFFFFFFFF NOT AND DUP3 PUSH28 0xFFFFFFFFFFFFFFFFFFFFFFFFFFFFFFFFFFFFFFFFFFFFFFFFFFFFFFFF NOT AND EQ SWAP1 POP SWAP2 SWAP1 POP JUMP JUMPDEST PUSH1 0x0 PUSH2 0x1CEE DUP4 DUP4 PUSH2 0x1438 JUMP JUMPDEST ISZERO PUSH2 0x1DCA JUMPI PUSH1 0x0 PUSH1 0x1 PUSH1 0x0 DUP6 DUP2 MSTORE PUSH1 0x20 ADD SWAP1 DUP2 MSTORE PUSH1 0x20 ADD PUSH1 0x0 KECCAK256 PUSH1 0x0 ADD PUSH1 0x0 DUP5 PUSH20 0xFFFFFFFFFFFFFFFFFFFFFFFFFFFFFFFFFFFFFFFF AND PUSH20 0xFFFFFFFFFFFFFFFFFFFFFFFFFFFFFFFFFFFFFFFF AND DUP2 MSTORE PUSH1 0x20 ADD SWAP1 DUP2 MSTORE PUSH1 0x20 ADD PUSH1 0x0 KECCAK256 PUSH1 0x0 PUSH2 0x100 EXP DUP2 SLOAD DUP2 PUSH1 0xFF MUL NOT AND SWAP1 DUP4 ISZERO ISZERO MUL OR SWAP1 SSTORE POP PUSH2 0x1D67 PUSH2 0x1EDA JUMP JUMPDEST PUSH20 0xFFFFFFFFFFFFFFFFFFFFFFFFFFFFFFFFFFFFFFFF AND DUP3 PUSH20 0xFFFFFFFFFFFFFFFFFFFFFFFFFFFFFFFFFFFFFFFF AND DUP5 PUSH32 0xF6391F5C32D9C69D2A47EA670B442974B53935D1EDC7FD64EB21E047A839171B PUSH1 0x40 MLOAD PUSH1 0x40 MLOAD DUP1 SWAP2 SUB SWAP1 LOG4 PUSH1 0x1 SWAP1 POP PUSH2 0x1DCF JUMP JUMPDEST PUSH1 0x0 SWAP1 POP JUMPDEST SWAP3 SWAP2 POP POP JUMP JUMPDEST PUSH2 0x1DE6 DUP2 PUSH2 0x1DE1 PUSH2 0x1EDA JUMP JUMPDEST PUSH2 0x22A7 JUMP JUMPDEST POP JUMP JUMPDEST PUSH1 0x0 PUSH2 0x1DF5 DUP4 DUP4 PUSH2 0x1438 JUMP JUMPDEST PUSH2 0x1ECF JUMPI PUSH1 0x1 DUP1 PUSH1 0x0 DUP6 DUP2 MSTORE PUSH1 0x20 ADD SWAP1 DUP2 MSTORE PUSH1 0x20 ADD PUSH1 0x0 KECCAK256 PUSH1 0x0 ADD PUSH1 0x0 DUP5 PUSH20 0xFFFFFFFFFFFFFFFFFFFFFFFFFFFFFFFFFFFFFFFF AND PUSH20 0xFFFFFFFFFFFFFFFFFFFFFFFFFFFFFFFFFFFFFFFF AND DUP2 MSTORE PUSH1 0x20 ADD SWAP1 DUP2 MSTORE PUSH1 0x20 ADD PUSH1 0x0 KECCAK256 PUSH1 0x0 PUSH2 0x100 EXP DUP2 SLOAD DUP2 PUSH1 0xFF MUL NOT AND SWAP1 DUP4 ISZERO ISZERO MUL OR SWAP1 SSTORE POP PUSH2 0x1E6C PUSH2 0x1EDA JUMP JUMPDEST PUSH20 0xFFFFFFFFFFFFFFFFFFFFFFFFFFFFFFFFFFFFFFFF AND DUP3 PUSH20 0xFFFFFFFFFFFFFFFFFFFFFFFFFFFFFFFFFFFFFFFF AND DUP5 PUSH32 0x2F8788117E7EFF1D82E926EC794901D17C78024A50270940304540A733656F0D PUSH1 0x40 MLOAD PUSH1 0x40 MLOAD DUP1 SWAP2 SUB SWAP1 LOG4 PUSH1 0x1 SWAP1 POP PUSH2 0x1ED4 JUMP JUMPDEST PUSH1 0x0 SWAP1 POP JUMPDEST SWAP3 SWAP2 POP POP JUMP JUMPDEST PUSH1 0x0 CALLER SWAP1 POP SWAP1 JUMP JUMPDEST PUSH1 0x2 PUSH1 0x0 SLOAD SUB PUSH2 0x1F1E JUMPI PUSH1 0x40 MLOAD PUSH32 0x3EE5AEB500000000000000000000000000000000000000000000000000000000 DUP2 MSTORE PUSH1 0x4 ADD PUSH1 0x40 MLOAD DUP1 SWAP2 SUB SWAP1 REVERT JUMPDEST PUSH1 0x2 PUSH1 0x0 DUP2 SWAP1 SSTORE POP JUMP JUMPDEST PUSH2 0x1FA2 DUP4 DUP5 PUSH20 0xFFFFFFFFFFFFFFFFFFFFFFFFFFFFFFFFFFFFFFFF AND PUSH4 0xA9059CBB DUP6 DUP6 PUSH1 0x40 MLOAD PUSH1 0x24 ADD PUSH2 0x1F5B SWAP3 SWAP2 SWAP1 PUSH2 0x3548 JUMP JUMPDEST PUSH1 0x40 MLOAD PUSH1 0x20 DUP2 DUP4 SUB SUB DUP2 MSTORE SWAP1 PUSH1 0x40 MSTORE SWAP2 POP PUSH1 0xE0 SHL PUSH1 0x20 DUP3 ADD DUP1 MLOAD PUSH28 0xFFFFFFFFFFFFFFFFFFFFFFFFFFFFFFFFFFFFFFFFFFFFFFFFFFFFFFFF DUP4 DUP2 DUP4 AND OR DUP4 MSTORE POP POP POP POP PUSH2 0x22F8 JUMP JUMPDEST POP POP POP JUMP JUMPDEST PUSH1 0x1 PUSH1 0x0 DUP2 SWAP1 SSTORE POP JUMP JUMPDEST PUSH1 0x3 PUSH1 0x40 MLOAD DUP1 PUSH1 0x80 ADD PUSH1 0x40 MSTORE DUP1 DUP6 PUSH20 0xFFFFFFFFFFFFFFFFFFFFFFFFFFFFFFFFFFFFFFFF AND DUP2 MSTORE PUSH1 0x20 ADD DUP5 DUP2 MSTORE PUSH1 0x20 ADD TIMESTAMP DUP2 MSTORE PUSH1 0x20 ADD DUP4 ISZERO ISZERO DUP2 MSTORE POP SWAP1 DUP1 PUSH1 0x1 DUP2 SLOAD ADD DUP1 DUP3 SSTORE DUP1 SWAP2 POP POP PUSH1 0x1 SWAP1 SUB SWAP1 PUSH1 0x0 MSTORE PUSH1 0x20 PUSH1 0x0 KECCAK256 SWAP1 PUSH1 0x4 MUL ADD PUSH1 0x0 SWAP1 SWAP2 SWAP1 SWAP2 SWAP1 SWAP2 POP PUSH1 0x0 DUP3 ADD MLOAD DUP2 PUSH1 0x0 ADD PUSH1 0x0 PUSH2 0x100 EXP DUP2 SLOAD DUP2 PUSH20 0xFFFFFFFFFFFFFFFFFFFFFFFFFFFFFFFFFFFFFFFF MUL NOT AND SWAP1 DUP4 PUSH20 0xFFFFFFFFFFFFFFFFFFFFFFFFFFFFFFFFFFFFFFFF AND MUL OR SWAP1 SSTORE POP PUSH1 0x20 DUP3 ADD MLOAD DUP2 PUSH1 0x1 ADD SSTORE PUSH1 0x40 DUP3 ADD MLOAD DUP2 PUSH1 0x2 ADD SSTORE PUSH1 0x60 DUP3 ADD MLOAD DUP2 PUSH1 0x3 ADD PUSH1 0x0 PUSH2 0x100 EXP DUP2 SLOAD DUP2 PUSH1 0xFF MUL NOT AND SWAP1 DUP4 ISZERO ISZERO MUL OR SWAP1 SSTORE POP POP POP PUSH1 0x0 PUSH1 0x1 PUSH1 0x3 DUP1 SLOAD SWAP1 POP PUSH2 0x20A6 SWAP2 SWAP1 PUSH2 0x314D JUMP JUMPDEST SWAP1 POP PUSH1 0x0 PUSH20 0xFFFFFFFFFFFFFFFFFFFFFFFFFFFFFFFFFFFFFFFF AND DUP5 PUSH20 0xFFFFFFFFFFFFFFFFFFFFFFFFFFFFFFFFFFFFFFFF AND EQ PUSH2 0x2199 JUMPI DUP3 PUSH1 0x5 PUSH1 0x0 DUP7 PUSH20 0xFFFFFFFFFFFFFFFFFFFFFFFFFFFFFFFFFFFFFFFF AND PUSH20 0xFFFFFFFFFFFFFFFFFFFFFFFFFFFFFFFFFFFFFFFF AND DUP2 MSTORE PUSH1 0x20 ADD SWAP1 DUP2 MSTORE PUSH1 0x20 ADD PUSH1 0x0 KECCAK256 PUSH1 0x0 DUP3 DUP3 SLOAD PUSH2 0x212B SWAP2 SWAP1 PUSH2 0x2DFF JUMP JUMPDEST SWAP3 POP POP DUP2 SWAP1 SSTORE POP PUSH1 0x6 PUSH1 0x0 DUP6 PUSH20 0xFFFFFFFFFFFFFFFFFFFFFFFFFFFFFFFFFFFFFFFF AND PUSH20 0xFFFFFFFFFFFFFFFFFFFFFFFFFFFFFFFFFFFFFFFF AND DUP2 MSTORE PUSH1 0x20 ADD SWAP1 DUP2 MSTORE PUSH1 0x20 ADD PUSH1 0x0 KECCAK256 DUP2 SWAP1 DUP1 PUSH1 0x1 DUP2 SLOAD ADD DUP1 DUP3 SSTORE DUP1 SWAP2 POP POP PUSH1 0x1 SWAP1 SUB SWAP1 PUSH1 0x0 MSTORE PUSH1 0x20 PUSH1 0x0 KECCAK256 ADD PUSH1 0x0 SWAP1 SWAP2 SWAP1 SWAP2 SWAP1 SWAP2 POP SSTORE JUMPDEST DUP3 PUSH1 0x7 PUSH1 0x0 DUP3 DUP3 SLOAD PUSH2 0x21AB SWAP2 SWAP1 PUSH2 0x2DFF JUMP JUMPDEST SWAP3 POP POP DUP2 SWAP1 SSTORE POP DUP3 PUSH1 0x9 PUSH1 0x0 DUP3 DUP3 SLOAD PUSH2 0x21C4 SWAP2 SWAP1 PUSH2 0x2DFF JUMP JUMPDEST SWAP3 POP POP DUP2 SWAP1 SSTORE POP DUP4 PUSH20 0xFFFFFFFFFFFFFFFFFFFFFFFFFFFFFFFFFFFFFFFF AND PUSH32 0x8B710BF75D0C255D5B9C32AD5905DBD0A9457B807F4D70722143743E08DCB916 DUP5 TIMESTAMP DUP6 DUP6 PUSH1 0x40 MLOAD PUSH2 0x2217 SWAP5 SWAP4 SWAP3 SWAP2 SWAP1 PUSH2 0x3571 JUMP JUMPDEST PUSH1 0x40 MLOAD DUP1 SWAP2 SUB SWAP1 LOG2 POP POP POP POP JUMP JUMPDEST PUSH2 0x22A1 DUP5 DUP6 PUSH20 0xFFFFFFFFFFFFFFFFFFFFFFFFFFFFFFFFFFFFFFFF AND PUSH4 0x23B872DD DUP7 DUP7 DUP7 PUSH1 0x40 MLOAD PUSH1 0x24 ADD PUSH2 0x225A SWAP4 SWAP3 SWAP2 SWAP1 PUSH2 0x35B6 JUMP JUMPDEST PUSH1 0x40 MLOAD PUSH1 0x20 DUP2 DUP4 SUB SUB DUP2 MSTORE SWAP1 PUSH1 0x40 MSTORE SWAP2 POP PUSH1 0xE0 SHL PUSH1 0x20 DUP3 ADD DUP1 MLOAD PUSH28 0xFFFFFFFFFFFFFFFFFFFFFFFFFFFFFFFFFFFFFFFFFFFFFFFFFFFFFFFF DUP4 DUP2 DUP4 AND OR DUP4 MSTORE POP POP POP POP PUSH2 0x22F8 JUMP JUMPDEST POP POP POP POP JUMP JUMPDEST PUSH2 0x22B1 DUP3 DUP3 PUSH2 0x1438 JUMP JUMPDEST PUSH2 0x22F4 JUMPI DUP1 DUP3 PUSH1 0x40 MLOAD PUSH32 0xE2517D3F00000000000000000000000000000000000000000000000000000000 DUP2 MSTORE PUSH1 0x4 ADD PUSH2 0x22EB SWAP3 SWAP2 SWAP1 PUSH2 0x35ED JUMP JUMPDEST PUSH1 0x40 MLOAD DUP1 SWAP2 SUB SWAP1 REVERT JUMPDEST POP POP JUMP JUMPDEST PUSH1 0x0 DUP1 PUSH1 0x20 PUSH1 0x0 DUP5 MLOAD PUSH1 0x20 DUP7 ADD PUSH1 0x0 DUP9 GAS CALL DUP1 PUSH2 0x231B JUMPI PUSH1 0x40 MLOAD RETURNDATASIZE PUSH1 0x0 DUP3 RETURNDATACOPY RETURNDATASIZE DUP2 REVERT JUMPDEST RETURNDATASIZE SWAP3 POP PUSH1 0x0 MLOAD SWAP2 POP POP PUSH1 0x0 DUP3 EQ PUSH2 0x2336 JUMPI PUSH1 0x1 DUP2 EQ ISZERO PUSH2 0x2352 JUMP JUMPDEST PUSH1 0x0 DUP5 PUSH20 0xFFFFFFFFFFFFFFFFFFFFFFFFFFFFFFFFFFFFFFFF AND EXTCODESIZE EQ JUMPDEST ISZERO PUSH2 0x2394 JUMPI DUP4 PUSH1 0x40 MLOAD PUSH32 0x5274AFE700000000000000000000000000000000000000000000000000000000 DUP2 MSTORE PUSH1 0x4 ADD PUSH2 0x238B SWAP2 SWAP1 PUSH2 0x2AD7 JUMP JUMPDEST PUSH1 0x40 MLOAD DUP1 SWAP2 SUB SWAP1 REVERT JUMPDEST POP POP POP POP JUMP JUMPDEST DUP3 DUP1 SLOAD DUP3 DUP3 SSTORE SWAP1 PUSH1 0x0 MSTORE PUSH1 0x20 PUSH1 0x0 KECCAK256 SWAP1 DUP2 ADD SWAP3 DUP3 ISZERO PUSH2 0x2413 JUMPI SWAP2 PUSH1 0x20 MUL DUP3 ADD JUMPDEST DUP3 DUP2 GT ISZERO PUSH2 0x2412 JUMPI DUP3 MLOAD DUP3 PUSH1 0x0 PUSH2 0x100 EXP DUP2 SLOAD DUP2 PUSH20 0xFFFFFFFFFFFFFFFFFFFFFFFFFFFFFFFFFFFFFFFF MUL NOT AND SWAP1 DUP4 PUSH20 0xFFFFFFFFFFFFFFFFFFFFFFFFFFFFFFFFFFFFFFFF AND MUL OR SWAP1 SSTORE POP SWAP2 PUSH1 0x20 ADD SWAP2 SWAP1 PUSH1 0x1 ADD SWAP1 PUSH2 0x23BA JUMP JUMPDEST JUMPDEST POP SWAP1 POP PUSH2 0x2420 SWAP2 SWAP1 PUSH2 0x2471 JUMP JUMPDEST POP SWAP1 JUMP JUMPDEST DUP3 DUP1 SLOAD DUP3 DUP3 SSTORE SWAP1 PUSH1 0x0 MSTORE PUSH1 0x20 PUSH1 0x0 KECCAK256 SWAP1 DUP2 ADD SWAP3 DUP3 ISZERO PUSH2 0x2460 JUMPI SWAP2 PUSH1 0x20 MUL DUP3 ADD JUMPDEST DUP3 DUP2 GT ISZERO PUSH2 0x245F JUMPI DUP3 MLOAD DUP3 SSTORE SWAP2 PUSH1 0x20 ADD SWAP2 SWAP1 PUSH1 0x1 ADD SWAP1 PUSH2 0x2444 JUMP JUMPDEST JUMPDEST POP SWAP1 POP PUSH2 0x246D SWAP2 SWAP1 PUSH2 0x2471 JUMP JUMPDEST POP SWAP1 JUMP JUMPDEST JUMPDEST DUP1 DUP3 GT ISZERO PUSH2 0x248A JUMPI PUSH1 0x0 DUP2 PUSH1 0x0 SWAP1 SSTORE POP PUSH1 0x1 ADD PUSH2 0x2472 JUMP JUMPDEST POP SWAP1 JUMP JUMPDEST PUSH1 0x0 DUP2 SWAP1 POP SWAP2 SWAP1 POP JUMP JUMPDEST PUSH2 0x24A1 DUP2 PUSH2 0x248E JUMP JUMPDEST DUP3 MSTORE POP POP JUMP JUMPDEST PUSH1 0x0 PUSH1 0x20 DUP3 ADD SWAP1 POP PUSH2 0x24BC PUSH1 0x0 DUP4 ADD DUP5 PUSH2 0x2498 JUMP JUMPDEST SWAP3 SWAP2 POP POP JUMP JUMPDEST PUSH1 0x0 DUP1 REVERT JUMPDEST PUSH1 0x0 DUP1 REVERT JUMPDEST PUSH1 0x0 PUSH32 0xFFFFFFFF00000000000000000000000000000000000000000000000000000000 DUP3 AND SWAP1 POP SWAP2 SWAP1 POP JUMP JUMPDEST PUSH2 0x2501 DUP2 PUSH2 0x24CC JUMP JUMPDEST DUP2 EQ PUSH2 0x250C JUMPI PUSH1 0x0 DUP1 REVERT JUMPDEST POP JUMP JUMPDEST PUSH1 0x0 DUP2 CALLDATALOAD SWAP1 POP PUSH2 0x251E DUP2 PUSH2 0x24F8 JUMP JUMPDEST SWAP3 SWAP2 POP POP JUMP JUMPDEST PUSH1 0x0 PUSH1 0x20 DUP3 DUP5 SUB SLT ISZERO PUSH2 0x253A JUMPI PUSH2 0x2539 PUSH2 0x24C2 JUMP JUMPDEST JUMPDEST PUSH1 0x0 PUSH2 0x2548 DUP5 DUP3 DUP6 ADD PUSH2 0x250F JUMP JUMPDEST SWAP2 POP POP SWAP3 SWAP2 POP POP JUMP JUMPDEST PUSH1 0x0 DUP2 ISZERO ISZERO SWAP1 POP SWAP2 SWAP1 POP JUMP JUMPDEST PUSH2 0x2566 DUP2 PUSH2 0x2551 JUMP JUMPDEST DUP3 MSTORE POP POP JUMP JUMPDEST PUSH1 0x0 PUSH1 0x20 DUP3 ADD SWAP1 POP PUSH2 0x2581 PUSH1 0x0 DUP4 ADD DUP5 PUSH2 0x255D JUMP JUMPDEST SWAP3 SWAP2 POP POP JUMP JUMPDEST PUSH1 0x0 PUSH20 0xFFFFFFFFFFFFFFFFFFFFFFFFFFFFFFFFFFFFFFFF DUP3 AND SWAP1 POP SWAP2 SWAP1 POP JUMP JUMPDEST PUSH1 0x0 PUSH2 0x25B2 DUP3 PUSH2 0x2587 JUMP JUMPDEST SWAP1 POP SWAP2 SWAP1 POP JUMP JUMPDEST PUSH2 0x25C2 DUP2 PUSH2 0x25A7 JUMP JUMPDEST DUP2 EQ PUSH2 0x25CD JUMPI PUSH1 0x0 DUP1 REVERT JUMPDEST POP JUMP JUMPDEST PUSH1 0x0 DUP2 CALLDATALOAD SWAP1 POP PUSH2 0x25DF DUP2 PUSH2 0x25B9 JUMP JUMPDEST SWAP3 SWAP2 POP POP JUMP JUMPDEST PUSH1 0x0 PUSH1 0x20 DUP3 DUP5 SUB SLT ISZERO PUSH2 0x25FB JUMPI PUSH2 0x25FA PUSH2 0x24C2 JUMP JUMPDEST JUMPDEST PUSH1 0x0 PUSH2 0x2609 DUP5 DUP3 DUP6 ADD PUSH2 0x25D0 JUMP JUMPDEST SWAP2 POP POP SWAP3 SWAP2 POP POP JUMP JUMPDEST PUSH1 0x0 DUP2 SWAP1 POP SWAP2 SWAP1 POP JUMP JUMPDEST PUSH2 0x2625 DUP2 PUSH2 0x2612 JUMP JUMPDEST DUP2 EQ PUSH2 0x2630 JUMPI PUSH1 0x0 DUP1 REVERT JUMPDEST POP JUMP JUMPDEST PUSH1 0x0 DUP2 CALLDATALOAD SWAP1 POP PUSH2 0x2642 DUP2 PUSH2 0x261C JUMP JUMPDEST SWAP3 SWAP2 POP POP JUMP JUMPDEST PUSH1 0x0 PUSH1 0x20 DUP3 DUP5 SUB SLT ISZERO PUSH2 0x265E JUMPI PUSH2 0x265D PUSH2 0x24C2 JUMP JUMPDEST JUMPDEST PUSH1 0x0 PUSH2 0x266C DUP5 DUP3 DUP6 ADD PUSH2 0x2633 JUMP JUMPDEST SWAP2 POP POP SWAP3 SWAP2 POP POP JUMP JUMPDEST PUSH2 0x267E DUP2 PUSH2 0x2612 JUMP JUMPDEST DUP3 MSTORE POP POP JUMP JUMPDEST PUSH1 0x0 PUSH1 0x20 DUP3 ADD SWAP1 POP PUSH2 0x2699 PUSH1 0x0 DUP4 ADD DUP5 PUSH2 0x2675 JUMP JUMPDEST SWAP3 SWAP2 POP POP JUMP JUMPDEST PUSH2 0x26A8 DUP2 PUSH2 0x248E JUMP JUMPDEST DUP2 EQ PUSH2 0x26B3 JUMPI PUSH1 0x0 DUP1 REVERT JUMPDEST POP JUMP JUMPDEST PUSH1 0x0 DUP2 CALLDATALOAD SWAP1 POP PUSH2 0x26C5 DUP2 PUSH2 0x269F JUMP JUMPDEST SWAP3 SWAP2 POP POP JUMP JUMPDEST PUSH1 0x0 DUP1 PUSH1 0x40 DUP4 DUP6 SUB SLT ISZERO PUSH2 0x26E2 JUMPI PUSH2 0x26E1 PUSH2 0x24C2 JUMP JUMPDEST JUMPDEST PUSH1 0x0 PUSH2 0x26F0 DUP6 DUP3 DUP7 ADD PUSH2 0x25D0 JUMP JUMPDEST SWAP3 POP POP PUSH1 0x20 PUSH2 0x2701 DUP6 DUP3 DUP7 ADD PUSH2 0x26B6 JUMP JUMPDEST SWAP2 POP POP SWAP3 POP SWAP3 SWAP1 POP JUMP JUMPDEST PUSH1 0x0 DUP1 PUSH1 0x40 DUP4 DUP6 SUB SLT ISZERO PUSH2 0x2722 JUMPI PUSH2 0x2721 PUSH2 0x24C2 JUMP JUMPDEST JUMPDEST PUSH1 0x0 PUSH2 0x2730 DUP6 DUP3 DUP7 ADD PUSH2 0x2633 JUMP JUMPDEST SWAP3 POP POP PUSH1 0x20 PUSH2 0x2741 DUP6 DUP3 DUP7 ADD PUSH2 0x25D0 JUMP JUMPDEST SWAP2 POP POP SWAP3 POP SWAP3 SWAP1 POP JUMP JUMPDEST PUSH1 0x0 PUSH1 0x20 DUP3 DUP5 SUB SLT ISZERO PUSH2 0x2761 JUMPI PUSH2 0x2760 PUSH2 0x24C2 JUMP JUMPDEST JUMPDEST PUSH1 0x0 PUSH2 0x276F DUP5 DUP3 DUP6 ADD PUSH2 0x26B6 JUMP JUMPDEST SWAP2 POP POP SWAP3 SWAP2 POP POP JUMP JUMPDEST PUSH1 0x0 DUP2 MLOAD SWAP1 POP SWAP2 SWAP1 POP JUMP JUMPDEST PUSH1 0x0 DUP3 DUP3 MSTORE PUSH1 0x20 DUP3 ADD SWAP1 POP SWAP3 SWAP2 POP POP JUMP JUMPDEST PUSH1 0x0 DUP2 SWAP1 POP PUSH1 0x20 DUP3 ADD SWAP1 POP SWAP2 SWAP1 POP JUMP JUMPDEST PUSH2 0x27AD DUP2 PUSH2 0x25A7 JUMP JUMPDEST DUP3 MSTORE POP POP JUMP JUMPDEST PUSH1 0x0 PUSH2 0x27BF DUP4 DUP4 PUSH2 0x27A4 JUMP JUMPDEST PUSH1 0x20 DUP4 ADD SWAP1 POP SWAP3 SWAP2 POP POP JUMP JUMPDEST PUSH1 0x0 PUSH1 0x20 DUP3 ADD SWAP1 POP SWAP2 SWAP1 POP JUMP JUMPDEST PUSH1 0x0 PUSH2 0x27E3 DUP3 PUSH2 0x2778 JUMP JUMPDEST PUSH2 0x27ED DUP2 DUP6 PUSH2 0x2783 JUMP JUMPDEST SWAP4 POP PUSH2 0x27F8 DUP4 PUSH2 0x2794 JUMP JUMPDEST DUP1 PUSH1 0x0 JUMPDEST DUP4 DUP2 LT ISZERO PUSH2 0x2829 JUMPI DUP2 MLOAD PUSH2 0x2810 DUP9 DUP3 PUSH2 0x27B3 JUMP JUMPDEST SWAP8 POP PUSH2 0x281B DUP4 PUSH2 0x27CB JUMP JUMPDEST SWAP3 POP POP PUSH1 0x1 DUP2 ADD SWAP1 POP PUSH2 0x27FC JUMP JUMPDEST POP DUP6 SWAP4 POP POP POP POP SWAP3 SWAP2 POP POP JUMP JUMPDEST PUSH1 0x0 DUP2 MLOAD SWAP1 POP SWAP2 SWAP1 POP JUMP JUMPDEST PUSH1 0x0 DUP3 DUP3 MSTORE PUSH1 0x20 DUP3 ADD SWAP1 POP SWAP3 SWAP2 POP POP JUMP JUMPDEST PUSH1 0x0 DUP2 SWAP1 POP PUSH1 0x20 DUP3 ADD SWAP1 POP SWAP2 SWAP1 POP JUMP JUMPDEST PUSH2 0x286B DUP2 PUSH2 0x248E JUMP JUMPDEST DUP3 MSTORE POP POP JUMP JUMPDEST PUSH1 0x0 PUSH2 0x287D DUP4 DUP4 PUSH2 0x2862 JUMP JUMPDEST PUSH1 0x20 DUP4 ADD SWAP1 POP SWAP3 SWAP2 POP POP JUMP JUMPDEST PUSH1 0x0 PUSH1 0x20 DUP3 ADD SWAP1 POP SWAP2 SWAP1 POP JUMP JUMPDEST PUSH1 0x0 PUSH2 0x28A1 DUP3 PUSH2 0x2836 JUMP JUMPDEST PUSH2 0x28AB DUP2 DUP6 PUSH2 0x2841 JUMP JUMPDEST SWAP4 POP PUSH2 0x28B6 DUP4 PUSH2 0x2852 JUMP JUMPDEST DUP1 PUSH1 0x0 JUMPDEST DUP4 DUP2 LT ISZERO PUSH2 0x28E7 JUMPI DUP2 MLOAD PUSH2 0x28CE DUP9 DUP3 PUSH2 0x2871 JUMP JUMPDEST SWAP8 POP PUSH2 0x28D9 DUP4 PUSH2 0x2889 JUMP JUMPDEST SWAP3 POP POP PUSH1 0x1 DUP2 ADD SWAP1 POP PUSH2 0x28BA JUMP JUMPDEST POP DUP6 SWAP4 POP POP POP POP SWAP3 SWAP2 POP POP JUMP JUMPDEST PUSH2 0x28FD DUP2 PUSH2 0x25A7 JUMP JUMPDEST DUP3 MSTORE POP POP JUMP JUMPDEST PUSH1 0x0 PUSH1 0xA0 DUP3 ADD SWAP1 POP DUP2 DUP2 SUB PUSH1 0x0 DUP4 ADD MSTORE PUSH2 0x291D DUP2 DUP9 PUSH2 0x27D8 JUMP JUMPDEST SWAP1 POP DUP2 DUP2 SUB PUSH1 0x20 DUP4 ADD MSTORE PUSH2 0x2931 DUP2 DUP8 PUSH2 0x2896 JUMP JUMPDEST SWAP1 POP PUSH2 0x2940 PUSH1 0x40 DUP4 ADD DUP7 PUSH2 0x2498 JUMP JUMPDEST PUSH2 0x294D PUSH1 0x60 DUP4 ADD DUP6 PUSH2 0x28F4 JUMP JUMPDEST PUSH2 0x295A PUSH1 0x80 DUP4 ADD DUP5 PUSH2 0x2498 JUMP JUMPDEST SWAP7 SWAP6 POP POP POP POP POP POP JUMP JUMPDEST PUSH1 0x0 PUSH1 0x60 DUP3 ADD SWAP1 POP PUSH2 0x2979 PUSH1 0x0 DUP4 ADD DUP7 PUSH2 0x2498 JUMP JUMPDEST PUSH2 0x2986 PUSH1 0x20 DUP4 ADD DUP6 PUSH2 0x28F4 JUMP JUMPDEST PUSH2 0x2993 PUSH1 0x40 DUP4 ADD DUP5 PUSH2 0x2498 JUMP JUMPDEST SWAP5 SWAP4 POP POP POP POP JUMP JUMPDEST PUSH1 0x0 DUP1 REVERT JUMPDEST PUSH1 0x0 DUP1 REVERT JUMPDEST PUSH1 0x0 DUP1 REVERT JUMPDEST PUSH1 0x0 DUP1 DUP4 PUSH1 0x1F DUP5 ADD SLT PUSH2 0x29C0 JUMPI PUSH2 0x29BF PUSH2 0x299B JUMP JUMPDEST JUMPDEST DUP3 CALLDATALOAD SWAP1 POP PUSH8 0xFFFFFFFFFFFFFFFF DUP2 GT ISZERO PUSH2 0x29DD JUMPI PUSH2 0x29DC PUSH2 0x29A0 JUMP JUMPDEST JUMPDEST PUSH1 0x20 DUP4 ADD SWAP2 POP DUP4 PUSH1 0x20 DUP3 MUL DUP4 ADD GT ISZERO PUSH2 0x29F9 JUMPI PUSH2 0x29F8 PUSH2 0x29A5 JUMP JUMPDEST JUMPDEST SWAP3 POP SWAP3 SWAP1 POP JUMP JUMPDEST PUSH1 0x0 DUP1 DUP4 PUSH1 0x1F DUP5 ADD SLT PUSH2 0x2A16 JUMPI PUSH2 0x2A15 PUSH2 0x299B JUMP JUMPDEST JUMPDEST DUP3 CALLDATALOAD SWAP1 POP PUSH8 0xFFFFFFFFFFFFFFFF DUP2 GT ISZERO PUSH2 0x2A33 JUMPI PUSH2 0x2A32 PUSH2 0x29A0 JUMP JUMPDEST JUMPDEST PUSH1 0x20 DUP4 ADD SWAP2 POP DUP4 PUSH1 0x20 DUP3 MUL DUP4 ADD GT ISZERO PUSH2 0x2A4F JUMPI PUSH2 0x2A4E PUSH2 0x29A5 JUMP JUMPDEST JUMPDEST SWAP3 POP SWAP3 SWAP1 POP JUMP JUMPDEST PUSH1 0x0 DUP1 PUSH1 0x0 DUP1 PUSH1 0x40 DUP6 DUP8 SUB SLT ISZERO PUSH2 0x2A70 JUMPI PUSH2 0x2A6F PUSH2 0x24C2 JUMP JUMPDEST JUMPDEST PUSH1 0x0 DUP6 ADD CALLDATALOAD PUSH8 0xFFFFFFFFFFFFFFFF DUP2 GT ISZERO PUSH2 0x2A8E JUMPI PUSH2 0x2A8D PUSH2 0x24C7 JUMP JUMPDEST JUMPDEST PUSH2 0x2A9A DUP8 DUP3 DUP9 ADD PUSH2 0x29AA JUMP JUMPDEST SWAP5 POP SWAP5 POP POP PUSH1 0x20 DUP6 ADD CALLDATALOAD PUSH8 0xFFFFFFFFFFFFFFFF DUP2 GT ISZERO PUSH2 0x2ABD JUMPI PUSH2 0x2ABC PUSH2 0x24C7 JUMP JUMPDEST JUMPDEST PUSH2 0x2AC9 DUP8 DUP3 DUP9 ADD PUSH2 0x2A00 JUMP JUMPDEST SWAP3 POP SWAP3 POP POP SWAP3 SWAP6 SWAP2 SWAP5 POP SWAP3 POP JUMP JUMPDEST PUSH1 0x0 PUSH1 0x20 DUP3 ADD SWAP1 POP PUSH2 0x2AEC PUSH1 0x0 DUP4 ADD DUP5 PUSH2 0x28F4 JUMP JUMPDEST SWAP3 SWAP2 POP POP JUMP JUMPDEST PUSH1 0x0 PUSH1 0x20 DUP3 ADD SWAP1 POP DUP2 DUP2 SUB PUSH1 0x0 DUP4 ADD MSTORE PUSH2 0x2B0C DUP2 DUP5 PUSH2 0x2896 JUMP JUMPDEST SWAP1 POP SWAP3 SWAP2 POP POP JUMP JUMPDEST PUSH1 0x0 PUSH1 0xA0 DUP3 ADD SWAP1 POP PUSH2 0x2B29 PUSH1 0x0 DUP4 ADD DUP9 PUSH2 0x2498 JUMP JUMPDEST PUSH2 0x2B36 PUSH1 0x20 DUP4 ADD DUP8 PUSH2 0x2498 JUMP JUMPDEST PUSH2 0x2B43 PUSH1 0x40 DUP4 ADD DUP7 PUSH2 0x2498 JUMP JUMPDEST PUSH2 0x2B50 PUSH1 0x60 DUP4 ADD DUP6 PUSH2 0x2498 JUMP JUMPDEST PUSH2 0x2B5D PUSH1 0x80 DUP4 ADD DUP5 PUSH2 0x2498 JUMP JUMPDEST SWAP7 SWAP6 POP POP POP POP POP POP JUMP JUMPDEST PUSH1 0x0 PUSH1 0x80 DUP3 ADD SWAP1 POP PUSH2 0x2B7C PUSH1 0x0 DUP4 ADD DUP8 PUSH2 0x28F4 JUMP JUMPDEST PUSH2 0x2B89 PUSH1 0x20 DUP4 ADD DUP7 PUSH2 0x2498 JUMP JUMPDEST PUSH2 0x2B96 PUSH1 0x40 DUP4 ADD DUP6 PUSH2 0x2498 JUMP JUMPDEST PUSH2 0x2BA3 PUSH1 0x60 DUP4 ADD DUP5 PUSH2 0x255D JUMP JUMPDEST SWAP6 SWAP5 POP POP POP POP POP JUMP JUMPDEST PUSH1 0x0 DUP2 SWAP1 POP SWAP2 SWAP1 POP JUMP JUMPDEST PUSH1 0x0 PUSH2 0x2BD1 PUSH2 0x2BCC PUSH2 0x2BC7 DUP5 PUSH2 0x2587 JUMP JUMPDEST PUSH2 0x2BAC JUMP JUMPDEST PUSH2 0x2587 JUMP JUMPDEST SWAP1 POP SWAP2 SWAP1 POP JUMP JUMPDEST PUSH1 0x0 PUSH2 0x2BE3 DUP3 PUSH2 0x2BB6 JUMP JUMPDEST SWAP1 POP SWAP2 SWAP1 POP JUMP JUMPDEST PUSH1 0x0 PUSH2 0x2BF5 DUP3 PUSH2 0x2BD8 JUMP JUMPDEST SWAP1 POP SWAP2 SWAP1 POP JUMP JUMPDEST PUSH2 0x2C05 DUP2 PUSH2 0x2BEA JUMP JUMPDEST DUP3 MSTORE POP POP JUMP JUMPDEST PUSH1 0x0 PUSH1 0x20 DUP3 ADD SWAP1 POP PUSH2 0x2C20 PUSH1 0x0 DUP4 ADD DUP5 PUSH2 0x2BFC JUMP JUMPDEST SWAP3 SWAP2 POP POP JUMP JUMPDEST PUSH1 0x0 DUP3 DUP3 MSTORE PUSH1 0x20 DUP3 ADD SWAP1 POP SWAP3 SWAP2 POP POP JUMP JUMPDEST PUSH32 0x4F6E6C79206F776E65722063616E2063616C6C20746869732066756E6374696F PUSH1 0x0 DUP3 ADD MSTORE PUSH32 0x6E00000000000000000000000000000000000000000000000000000000000000 PUSH1 0x20 DUP3 ADD MSTORE POP JUMP JUMPDEST PUSH1 0x0 PUSH2 0x2C93 PUSH1 0x21 DUP4 PUSH2 0x2C26 JUMP JUMPDEST SWAP2 POP PUSH2 0x2C9E DUP3 PUSH2 0x2C37 JUMP JUMPDEST PUSH1 0x40 DUP3 ADD SWAP1 POP SWAP2 SWAP1 POP JUMP JUMPDEST PUSH1 0x0 PUSH1 0x20 DUP3 ADD SWAP1 POP DUP2 DUP2 SUB PUSH1 0x0 DUP4 ADD MSTORE PUSH2 0x2CC2 DUP2 PUSH2 0x2C86 JUMP JUMPDEST SWAP1 POP SWAP2 SWAP1 POP JUMP JUMPDEST PUSH32 0x41646472657373206973206E6F7420616E2061646D696E000000000000000000 PUSH1 0x0 DUP3 ADD MSTORE POP JUMP JUMPDEST PUSH1 0x0 PUSH2 0x2CFF PUSH1 0x17 DUP4 PUSH2 0x2C26 JUMP JUMPDEST SWAP2 POP PUSH2 0x2D0A DUP3 PUSH2 0x2CC9 JUMP JUMPDEST PUSH1 0x20 DUP3 ADD SWAP1 POP SWAP2 SWAP1 POP JUMP JUMPDEST PUSH1 0x0 PUSH1 0x20 DUP3 ADD SWAP1 POP DUP2 DUP2 SUB PUSH1 0x0 DUP4 ADD MSTORE PUSH2 0x2D2E DUP2 PUSH2 0x2CF2 JUMP JUMPDEST SWAP1 POP SWAP2 SWAP1 POP JUMP JUMPDEST PUSH32 0x496E76616C696420646973747269627574696F6E204944000000000000000000 PUSH1 0x0 DUP3 ADD MSTORE POP JUMP JUMPDEST PUSH1 0x0 PUSH2 0x2D6B PUSH1 0x17 DUP4 PUSH2 0x2C26 JUMP JUMPDEST SWAP2 POP PUSH2 0x2D76 DUP3 PUSH2 0x2D35 JUMP JUMPDEST PUSH1 0x20 DUP3 ADD SWAP1 POP SWAP2 SWAP1 POP JUMP JUMPDEST PUSH1 0x0 PUSH1 0x20 DUP3 ADD SWAP1 POP DUP2 DUP2 SUB PUSH1 0x0 DUP4 ADD MSTORE PUSH2 0x2D9A DUP2 PUSH2 0x2D5E JUMP JUMPDEST SWAP1 POP SWAP2 SWAP1 POP JUMP JUMPDEST PUSH32 0x4E487B7100000000000000000000000000000000000000000000000000000000 PUSH1 0x0 MSTORE PUSH1 0x32 PUSH1 0x4 MSTORE PUSH1 0x24 PUSH1 0x0 REVERT JUMPDEST PUSH32 0x4E487B7100000000000000000000000000000000000000000000000000000000 PUSH1 0x0 MSTORE PUSH1 0x11 PUSH1 0x4 MSTORE PUSH1 0x24 PUSH1 0x0 REVERT JUMPDEST PUSH1 0x0 PUSH2 0x2E0A DUP3 PUSH2 0x248E JUMP JUMPDEST SWAP2 POP PUSH2 0x2E15 DUP4 PUSH2 0x248E JUMP JUMPDEST SWAP3 POP DUP3 DUP3 ADD SWAP1 POP DUP1 DUP3 GT ISZERO PUSH2 0x2E2D JUMPI PUSH2 0x2E2C PUSH2 0x2DD0 JUMP JUMPDEST JUMPDEST SWAP3 SWAP2 POP POP JUMP JUMPDEST PUSH32 0x4F6E6C79206F776E6572206F722061646D696E2063616E2063616C6C20746869 PUSH1 0x0 DUP3 ADD MSTORE PUSH32 0x732066756E6374696F6E00000000000000000000000000000000000000000000 PUSH1 0x20 DUP3 ADD MSTORE POP JUMP JUMPDEST PUSH1 0x0 PUSH2 0x2E8F PUSH1 0x2A DUP4 PUSH2 0x2C26 JUMP JUMPDEST SWAP2 POP PUSH2 0x2E9A DUP3 PUSH2 0x2E33 JUMP JUMPDEST PUSH1 0x40 DUP3 ADD SWAP1 POP SWAP2 SWAP1 POP JUMP JUMPDEST PUSH1 0x0 PUSH1 0x20 DUP3 ADD SWAP1 POP DUP2 DUP2 SUB PUSH1 0x0 DUP4 ADD MSTORE PUSH2 0x2EBE DUP2 PUSH2 0x2E82 JUMP JUMPDEST SWAP1 POP SWAP2 SWAP1 POP JUMP JUMPDEST PUSH32 0x526563697069656E74732061727261792063616E6E6F7420626520656D707479 PUSH1 0x0 DUP3 ADD MSTORE POP JUMP JUMPDEST PUSH1 0x0 PUSH2 0x2EFB PUSH1 0x20 DUP4 PUSH2 0x2C26 JUMP JUMPDEST SWAP2 POP PUSH2 0x2F06 DUP3 PUSH2 0x2EC5 JUMP JUMPDEST PUSH1 0x20 DUP3 ADD SWAP1 POP SWAP2 SWAP1 POP JUMP JUMPDEST PUSH1 0x0 PUSH1 0x20 DUP3 ADD SWAP1 POP DUP2 DUP2 SUB PUSH1 0x0 DUP4 ADD MSTORE PUSH2 0x2F2A DUP2 PUSH2 0x2EEE JUMP JUMPDEST SWAP1 POP SWAP2 SWAP1 POP JUMP JUMPDEST PUSH32 0x417272617973206C656E677468206D69736D6174636800000000000000000000 PUSH1 0x0 DUP3 ADD MSTORE POP JUMP JUMPDEST PUSH1 0x0 PUSH2 0x2F67 PUSH1 0x16 DUP4 PUSH2 0x2C26 JUMP JUMPDEST SWAP2 POP PUSH2 0x2F72 DUP3 PUSH2 0x2F31 JUMP JUMPDEST PUSH1 0x20 DUP3 ADD SWAP1 POP SWAP2 SWAP1 POP JUMP JUMPDEST PUSH1 0x0 PUSH1 0x20 DUP3 ADD SWAP1 POP DUP2 DUP2 SUB PUSH1 0x0 DUP4 ADD MSTORE PUSH2 0x2F96 DUP2 PUSH2 0x2F5A JUMP JUMPDEST SWAP1 POP SWAP2 SWAP1 POP JUMP JUMPDEST PUSH32 0x546F6F206D616E7920726563697069656E747320286D61782031303029000000 PUSH1 0x0 DUP3 ADD MSTORE POP JUMP JUMPDEST PUSH1 0x0 PUSH2 0x2FD3 PUSH1 0x1D DUP4 PUSH2 0x2C26 JUMP JUMPDEST SWAP2 POP PUSH2 0x2FDE DUP3 PUSH2 0x2F9D JUMP JUMPDEST PUSH1 0x20 DUP3 ADD SWAP1 POP SWAP2 SWAP1 POP JUMP JUMPDEST PUSH1 0x0 PUSH1 0x20 DUP3 ADD SWAP1 POP DUP2 DUP2 SUB PUSH1 0x0 DUP4 ADD MSTORE PUSH2 0x3002 DUP2 PUSH2 0x2FC6 JUMP JUMPDEST SWAP1 POP SWAP2 SWAP1 POP JUMP JUMPDEST PUSH32 0x416D6F756E74206D7573742062652067726561746572207468616E2030000000 PUSH1 0x0 DUP3 ADD MSTORE POP JUMP JUMPDEST PUSH1 0x0 PUSH2 0x303F PUSH1 0x1D DUP4 PUSH2 0x2C26 JUMP JUMPDEST SWAP2 POP PUSH2 0x304A DUP3 PUSH2 0x3009 JUMP JUMPDEST PUSH1 0x20 DUP3 ADD SWAP1 POP SWAP2 SWAP1 POP JUMP JUMPDEST PUSH1 0x0 PUSH1 0x20 DUP3 ADD SWAP1 POP DUP2 DUP2 SUB PUSH1 0x0 DUP4 ADD MSTORE PUSH2 0x306E DUP2 PUSH2 0x3032 JUMP JUMPDEST SWAP1 POP SWAP2 SWAP1 POP JUMP JUMPDEST PUSH32 0x526563697069656E742063616E6E6F74206265207A65726F2061646472657373 PUSH1 0x0 DUP3 ADD MSTORE POP JUMP JUMPDEST PUSH1 0x0 PUSH2 0x30AB PUSH1 0x20 DUP4 PUSH2 0x2C26 JUMP JUMPDEST SWAP2 POP PUSH2 0x30B6 DUP3 PUSH2 0x3075 JUMP JUMPDEST PUSH1 0x20 DUP3 ADD SWAP1 POP SWAP2 SWAP1 POP JUMP JUMPDEST PUSH1 0x0 PUSH1 0x20 DUP3 ADD SWAP1 POP DUP2 DUP2 SUB PUSH1 0x0 DUP4 ADD MSTORE PUSH2 0x30DA DUP2 PUSH2 0x309E JUMP JUMPDEST SWAP1 POP SWAP2 SWAP1 POP JUMP JUMPDEST PUSH32 0x496E73756666696369656E742066756E647320696E20636F6E74726163740000 PUSH1 0x0 DUP3 ADD MSTORE POP JUMP JUMPDEST PUSH1 0x0 PUSH2 0x3117 PUSH1 0x1E DUP4 PUSH2 0x2C26 JUMP JUMPDEST SWAP2 POP PUSH2 0x3122 DUP3 PUSH2 0x30E1 JUMP JUMPDEST PUSH1 0x20 DUP3 ADD SWAP1 POP SWAP2 SWAP1 POP JUMP JUMPDEST PUSH1 0x0 PUSH1 0x20 DUP3 ADD SWAP1 POP DUP2 DUP2 SUB PUSH1 0x0 DUP4 ADD MSTORE PUSH2 0x3146 DUP2 PUSH2 0x310A JUMP JUMPDEST SWAP1 POP SWAP2 SWAP1 POP JUMP JUMPDEST PUSH1 0x0 PUSH2 0x3158 DUP3 PUSH2 0x248E JUMP JUMPDEST SWAP2 POP PUSH2 0x3163 DUP4 PUSH2 0x248E JUMP JUMPDEST SWAP3 POP DUP3 DUP3 SUB SWAP1 POP DUP2 DUP2 GT ISZERO PUSH2 0x317B JUMPI PUSH2 0x317A PUSH2 0x2DD0 JUMP JUMPDEST JUMPDEST SWAP3 SWAP2 POP POP JUMP JUMPDEST PUSH1 0x0 PUSH1 0x80 DUP3 ADD SWAP1 POP PUSH2 0x3196 PUSH1 0x0 DUP4 ADD DUP8 PUSH2 0x2498 JUMP JUMPDEST PUSH2 0x31A3 PUSH1 0x20 DUP4 ADD DUP7 PUSH2 0x2498 JUMP JUMPDEST PUSH2 0x31B0 PUSH1 0x40 DUP4 ADD DUP6 PUSH2 0x2498 JUMP JUMPDEST PUSH2 0x31BD PUSH1 0x60 DUP4 ADD DUP5 PUSH2 0x2498 JUMP JUMPDEST SWAP6 SWAP5 POP POP POP POP POP JUMP JUMPDEST PUSH32 0x41646D696E20616464726573732063616E6E6F74206265207A65726F00000000 PUSH1 0x0 DUP3 ADD MSTORE POP JUMP JUMPDEST PUSH1 0x0 PUSH2 0x31FC PUSH1 0x1C DUP4 PUSH2 0x2C26 JUMP JUMPDEST SWAP2 POP PUSH2 0x3207 DUP3 PUSH2 0x31C6 JUMP JUMPDEST PUSH1 0x20 DUP3 ADD SWAP1 POP SWAP2 SWAP1 POP JUMP JUMPDEST PUSH1 0x0 PUSH1 0x20 DUP3 ADD SWAP1 POP DUP2 DUP2 SUB PUSH1 0x0 DUP4 ADD MSTORE PUSH2 0x322B DUP2 PUSH2 0x31EF JUMP JUMPDEST SWAP1 POP SWAP2 SWAP1 POP JUMP JUMPDEST PUSH32 0x4164647265737320697320616C726561647920616E2061646D696E0000000000 PUSH1 0x0 DUP3 ADD MSTORE POP JUMP JUMPDEST PUSH1 0x0 PUSH2 0x3268 PUSH1 0x1B DUP4 PUSH2 0x2C26 JUMP JUMPDEST SWAP2 POP PUSH2 0x3273 DUP3 PUSH2 0x3232 JUMP JUMPDEST PUSH1 0x20 DUP3 ADD SWAP1 POP SWAP2 SWAP1 POP JUMP JUMPDEST PUSH1 0x0 PUSH1 0x20 DUP3 ADD SWAP1 POP DUP2 DUP2 SUB PUSH1 0x0 DUP4 ADD MSTORE PUSH2 0x3297 DUP2 PUSH2 0x325B JUMP JUMPDEST SWAP1 POP SWAP2 SWAP1 POP JUMP JUMPDEST PUSH1 0x0 DUP2 MLOAD SWAP1 POP PUSH2 0x32AD DUP2 PUSH2 0x269F JUMP JUMPDEST SWAP3 SWAP2 POP POP JUMP JUMPDEST PUSH1 0x0 PUSH1 0x20 DUP3 DUP5 SUB SLT ISZERO PUSH2 0x32C9 JUMPI PUSH2 0x32C8 PUSH2 0x24C2 JUMP JUMPDEST JUMPDEST PUSH1 0x0 PUSH2 0x32D7 DUP5 DUP3 DUP6 ADD PUSH2 0x329E JUMP JUMPDEST SWAP2 POP POP SWAP3 SWAP2 POP POP JUMP JUMPDEST PUSH32 0x496E76616C696420646F6E6174696F6E20494400000000000000000000000000 PUSH1 0x0 DUP3 ADD MSTORE POP JUMP JUMPDEST PUSH1 0x0 PUSH2 0x3316 PUSH1 0x13 DUP4 PUSH2 0x2C26 JUMP JUMPDEST SWAP2 POP PUSH2 0x3321 DUP3 PUSH2 0x32E0 JUMP JUMPDEST PUSH1 0x20 DUP3 ADD SWAP1 POP SWAP2 SWAP1 POP JUMP JUMPDEST PUSH1 0x0 PUSH1 0x20 DUP3 ADD SWAP1 POP DUP2 DUP2 SUB PUSH1 0x0 DUP4 ADD MSTORE PUSH2 0x3345 DUP2 PUSH2 0x3309 JUMP JUMPDEST SWAP1 POP SWAP2 SWAP1 POP JUMP JUMPDEST PUSH32 0x446F6E6174696F6E20616D6F756E74206D757374206265206772656174657220 PUSH1 0x0 DUP3 ADD MSTORE PUSH32 0x7468616E20300000000000000000000000000000000000000000000000000000 PUSH1 0x20 DUP3 ADD MSTORE POP JUMP JUMPDEST PUSH1 0x0 PUSH2 0x33A8 PUSH1 0x26 DUP4 PUSH2 0x2C26 JUMP JUMPDEST SWAP2 POP PUSH2 0x33B3 DUP3 PUSH2 0x334C JUMP JUMPDEST PUSH1 0x40 DUP3 ADD SWAP1 POP SWAP2 SWAP1 POP JUMP JUMPDEST PUSH1 0x0 PUSH1 0x20 DUP3 ADD SWAP1 POP DUP2 DUP2 SUB PUSH1 0x0 DUP4 ADD MSTORE PUSH2 0x33D7 DUP2 PUSH2 0x339B JUMP JUMPDEST SWAP1 POP SWAP2 SWAP1 POP JUMP JUMPDEST PUSH32 0x4E6F20746F6B656E732072656365697665640000000000000000000000000000 PUSH1 0x0 DUP3 ADD MSTORE POP JUMP JUMPDEST PUSH1 0x0 PUSH2 0x3414 PUSH1 0x12 DUP4 PUSH2 0x2C26 JUMP JUMPDEST SWAP2 POP PUSH2 0x341F DUP3 PUSH2 0x33DE JUMP JUMPDEST PUSH1 0x20 DUP3 ADD SWAP1 POP SWAP2 SWAP1 POP JUMP JUMPDEST PUSH1 0x0 PUSH1 0x20 DUP3 ADD SWAP1 POP DUP2 DUP2 SUB PUSH1 0x0 DUP4 ADD MSTORE PUSH2 0x3443 DUP2 PUSH2 0x3407 JUMP JUMPDEST SWAP1 POP SWAP2 SWAP1 POP JUMP JUMPDEST PUSH32 0x4E6577206F776E65722063616E6E6F74206265207A65726F2061646472657373 PUSH1 0x0 DUP3 ADD MSTORE POP JUMP JUMPDEST PUSH1 0x0 PUSH2 0x3480 PUSH1 0x20 DUP4 PUSH2 0x2C26 JUMP JUMPDEST SWAP2 POP PUSH2 0x348B DUP3 PUSH2 0x344A JUMP JUMPDEST PUSH1 0x20 DUP3 ADD SWAP1 POP SWAP2 SWAP1 POP JUMP JUMPDEST PUSH1 0x0 PUSH1 0x20 DUP3 ADD SWAP1 POP DUP2 DUP2 SUB PUSH1 0x0 DUP4 ADD MSTORE PUSH2 0x34AF DUP2 PUSH2 0x3473 JUMP JUMPDEST SWAP1 POP SWAP2 SWAP1 POP JUMP JUMPDEST PUSH32 0x4E6577206F776E65722063616E6E6F742062652063757272656E74206F776E65 PUSH1 0x0 DUP3 ADD MSTORE PUSH32 0x7200000000000000000000000000000000000000000000000000000000000000 PUSH1 0x20 DUP3 ADD MSTORE POP JUMP JUMPDEST PUSH1 0x0 PUSH2 0x3512 PUSH1 0x21 DUP4 PUSH2 0x2C26 JUMP JUMPDEST SWAP2 POP PUSH2 0x351D DUP3 PUSH2 0x34B6 JUMP JUMPDEST PUSH1 0x40 DUP3 ADD SWAP1 POP SWAP2 SWAP1 POP JUMP JUMPDEST PUSH1 0x0 PUSH1 0x20 DUP3 ADD SWAP1 POP DUP2 DUP2 SUB PUSH1 0x0 DUP4 ADD MSTORE PUSH2 0x3541 DUP2 PUSH2 0x3505 JUMP JUMPDEST SWAP1 POP SWAP2 SWAP1 POP JUMP JUMPDEST PUSH1 0x0 PUSH1 0x40 DUP3 ADD SWAP1 POP PUSH2 0x355D PUSH1 0x0 DUP4 ADD DUP6 PUSH2 0x28F4 JUMP JUMPDEST PUSH2 0x356A PUSH1 0x20 DUP4 ADD DUP5 PUSH2 0x2498 JUMP JUMPDEST SWAP4 SWAP3 POP POP POP JUMP JUMPDEST PUSH1 0x0 PUSH1 0x80 DUP3 ADD SWAP1 POP PUSH2 0x3586 PUSH1 0x0 DUP4 ADD DUP8 PUSH2 0x2498 JUMP JUMPDEST PUSH2 0x3593 PUSH1 0x20 DUP4 ADD DUP7 PUSH2 0x2498 JUMP JUMPDEST PUSH2 0x35A0 PUSH1 0x40 DUP4 ADD DUP6 PUSH2 0x255D JUMP JUMPDEST PUSH2 0x35AD PUSH1 0x60 DUP4 ADD DUP5 PUSH2 0x2498 JUMP JUMPDEST SWAP6 SWAP5 POP POP POP POP POP JUMP JUMPDEST PUSH1 0x0 PUSH1 0x60 DUP3 ADD SWAP1 POP PUSH2 0x35CB PUSH1 0x0 DUP4 ADD DUP7 PUSH2 0x28F4 JUMP JUMPDEST PUSH2 0x35D8 PUSH1 0x20 DUP4 ADD DUP6 PUSH2 0x28F4 JUMP JUMPDEST PUSH2 0x35E5 PUSH1 0x40 DUP4 ADD DUP5 PUSH2 0x2498 JUMP JUMPDEST SWAP5 SWAP4 POP POP POP POP JUMP JUMPDEST PUSH1 0x0 PUSH1 0x40 DUP3 ADD SWAP1 POP PUSH2 0x3602 PUSH1 0x0 DUP4 ADD DUP6 PUSH2 0x28F4 JUMP JUMPDEST PUSH2 0x360F PUSH1 0x20 DUP4 ADD DUP5 PUSH2 0x2675 JUMP JUMPDEST SWAP4 SWAP3 POP POP POP JUMP INVALID LOG2 PUSH5 0x6970667358 0x22 SLT KECCAK256 SWAP10 BYTE SWAP9 CALL CALLVALUE SGT 0xEB KECCAK256 DUP1 STOP DUP5 0xB0 LOG0 LOG4 0xDB BLOCKHASH 0xAD 0xD4 0xC7 DUP5 0xDD 0xBD JUMPDEST LOG2 BALANCE MULMOD 0xC9 0xCD LT PUSH18 0xCA264736F6C634300081C00330000000000 "},"methodIdentifiers":{"ADMIN_ROLE()":"75b238fc","DEFAULT_ADMIN_ROLE()":"a217fddf","addAdmin(address)":"70480275","contractOwner()":"ce606ee0","currentBalance()":"ce845d1d","distributeFunds(address[],uint256[])":"6bd59ec0","distributions(uint256)":"4487d3df","donate(uint256)":"f14faf6f","donationIdsByAddress(address,uint256)":"2cda0460","donations(uint256)":"f8626af8","getContractStats()":"dfe6b5d6","getDistribution(uint256)":"3b345a87","getDonation(uint256)":"ef07a81f","getDonationIdsByAddress(address)":"c68ac852","getRoleAdmin(bytes32)":"248a9ca3","getTotalDistributions()":"5e6d4a64","getTotalDonations()":"777c658f","grantRole(bytes32,address)":"2f2ff15d","handleDirectTransfer()":"732d432c","hasRole(bytes32,address)":"91d14854","isAdmin(address)":"24d7806c","isOwner(address)":"2f54bf6e","owner()":"8da5cb5b","removeAdmin(address)":"1785f53c","renounceRole(bytes32,address)":"36568abe","revokeRole(bytes32,address)":"d547741f","supportsInterface(bytes4)":"01ffc9a7","syncBalance()":"fd9c652b","token()":"fc0c546a","totalDistributed()":"efca2eed","totalDonated()":"00b37044","totalDonatedByAddress(address)":"034411d7","transferOwnership(address)":"f2fde38b"}}}}}